S012000031354D617263685F48532E73726563C7
S113000052C000006FC000006DC000006BC0000053
S113001069C0000067C0000065C0000063C0000044
S11300200C947C0C5FC000005DC000005BC000004D
S113003059C0000057C0000055C0000053C0000064
S11300400C949A0C4FC000004DC000004BC000003F
S113005049C0000047C0000045C0000043C0000084
S113006041C000003FC000003DC000003BC0000094
S113007039C0000037C0000035C0000033C00000A4
S113008031C000002FC000002DC00000A919AD1917
S1130090B119B519B919BD19C119C519C919CD199C
S11300A0D119D519D91911241FBECFEFD0E1DEBF64
S11300B0CDBF15E0A0E0B1E0E4E1F3E400E00BBF64
S11300C002C007900D92AE30B107D9F726E0AEE03A
S11300D0B5E001C01D92A33CB207E1F70E94E01D08
S11300E00C9488218DCFBF9A8FEF83BD85B5806234
S11300F085BD85B5886485BD85B5826085BD089557
S113010013BCBF980895DA988BB38BBBD8988FEC47
S113011097E00197F1F700C00000D29A8AB38ABB36
S1130120D09A8FEC97E00197F1F700C000008FECB4
S113013097E00197F1F700C000000895EFE9FFE0B0
S11301403197F1F700C00000DA989BB39BBBD89AB3
S11301509AB3906F9ABB9BB39F70282F207F922BEA
S11301609BBBD898D89A2BB32F70F0E18F9FC00116
S11301701124822B8BBBD8980895EFECF7E03197CC
S1130180F1F700C0000000000000000000000000C3
S11301900000DA9A9BB39BBBD89A000000000000D1
S11301A09AB3906F9ABB9BB39F70282F207F922B9A
S11301B09BBB000000000000D89800000000000075
S11301C0D89A0000000000002BB32F70F0E18F9F3D
S11301D0C0011124822B8BBB000000000000D898C2
S11301E000000000000008958FEC97E00197F1F7FC
S11301F000C0000088DF80E0A1DF8FEC97E001976A
S1130200F1F700C0000088E299DF81E097DF9FEFFB
S113021020E782E0915020408040E1F700C00000D8
S11302208FEC97E00197F1F700C0000086E086DFCD
S11302308FEC97E00197F1F700C000008CE07EDFBF
S11302408FEC97E00197F1F700C000008FEC97E086
S11302500197F1F700C000008FEC97E00197F1F7E8
S113026000C00000089581E069CF0F931F93CF93DE
S1130270DF93009751F0EC018C01060F111DC0179C
S1130280D10719F0899179DFFACFDF91CF911F91CE
S11302900F910895A8959FE088E10FB6F894A8956A
S11302A081BD0FBE91BD2FEF89E698E121508040BA
S11302B09040E1F700C00000A8959FE088E10FB6E8
S11302C0F894A89581BD0FBE91BD2FEF89E698E102
S11302D0215080409040E1F700C00000A8959FE0C5
S11302E088E10FB6F894A89581BD0FBE91BD2FEF9C
S11302F089E698E1215080409040E1F700C0000079
S1130300A8959FE088E10FB6F894A89581BD0FBE2B
S113031091BD2FEF89E698E1215080409040E1F7AC
S113032000C00000A0CF80E487B986B1876086B999
S113033086B1806A86B9089585E487B98FE19EE421
S11303400197F1F700C0000064B175B1072E000CED
S1130350880B990B0E94E51F2BEF3AE340E75DE31E
S11303600E9495209B01AC01609360057093610528
S1130370809362059093630580915605909157058B
S11303808A309105C0F401969093570580935605E1
S113039060915C0570915D0580915E0590915F05AB
S11303A00E94E21E60935C0570935D0580935E0578
S11303B090935F0508950A9711F5109257051092CE
S11303C0560520E030E040E251E460915C05709114
S11303D05D0580915E0590915F050E944A1F6093C0
S11303E058057093590580935A0590935B051092B4
S11303F05C0510925D0510925E0510925F050895EC
S113040087E487B98FE19EE40197F1F700C000000B
S113041024B135B1309355052093540540915205CC
S11304205091530580915005909151054A305105E2
S113043068F44F5F5F4F5093530540935205280F64
S1130440391F309351052093500508951092530598
S1130450109252056AE070E00E94042170934F05E7
S113046060934E0510925105109250050895CF9354
S1130470DF93EC010A9720F461E086E591E0F5DE74
S11304804AE067EB76E0CE010E942821E7EBF6E034
S113049001900020E9F73197BF01675B764087EB55
S11304A096E0DF91CF91E1CECF92DF92EF92FF926F
S11304B00F931F93CF93DF93CDB7DEB72A970FB671
S11304C0F894DEBF0FBECDBF7C01892B21F461E01F
S11304D086E591E0CADE4AE08E010F5F1F4FB80146
S11304E0C7010E9428218AE0E816F10478F461E04B
S11304F086E591E0BADEF80101900020E9F7319732
S1130500BF01601B710BC801B0DE1EC0F801019071
S11305100020E9F731977F01E01AF10ACC24C39453
S1130520D12CC7018C199D0997FD0EC0F80181914A
S11305308F0123DEF2E0CF16D10411F48EE21DDE2A
S11305408FEFC81AD80AEDCF2A960FB6F894DEBFFB
S11305500FBECDBFDF91CF911F910F91FF90EF9010
S1130560DF90CF9008951C98149A8FEB93E0019735
S1130570F1F700C000009FB7F8941498E0EBEA95F7
S1130580F1F781B19FBFEBE3F3E03197F1F700C0DE
S113059000000C9B02C08071089581E008959FB70C
S11305A0F894149A22E02A95F1F700C08111149866
S11305B025E22A95F1F700000C9B80E028E72A95B4
S11305C0F1F714989FBF0895CF93DF93C82FD8E015
S11305D08C2F8170E4DFC6958111C068D150C1F7BA
S11305E08C2FDF91CF9108958FEFEECFFF920F9371
S11305F01F93CF93DF93082FB6DF81111FC080EFC5
S1130600E3DFD0E0C0E488EFF82EFC0E81E0C7DF22
S1130610182F81E0C4DF882319F0112339F010C0AA
S1130620111104C00C1711F0DC2F11E0812FB7DF7A
S1130630C150CF11EBCF39F78D2F03C08FEF01C01D
S11306408EEFDF91CF911F910F91FF900895CF937B
S1130650C82F89DF8CECB8DF8C2FCF91B5CFCF9327
S1130660DF93EC018881C2DF888381508D3FD0F312
S1130670DF91CF910895EF92FF921F93CF93DF9371
S1130680CDB7DEB729970FB6F894DEBF0FBECDBF46
S11306908FEF89878FE8E82E86E0F82E10E08985B1
S11306A08823D9F01530C9F0CE010996D8DF8985A1
S11306B08E5F823090F0FE01319680E090E02191CF
S11306C0D701A80FB91F2C93019688309105B9F76B
S11306D01F5F88E0E80EF11CE2CF812F29960FB648
S11306E0F894DEBF0FBECDBFDF91CF911F91FF9075
S11306F0EF90089538DF0C9B06C08CECA8DF84E4EF
S1130700A6DF80E0089508950F931F93CF93DF939E
S1130710C0919305D09194058CEC99DF8EEB97DF13
S113072063DF182F61DF082F1EDF882351F08091CB
S11307304D058F5F853108F089E180934D0560E0B8
S113074011C0612F70E0702B80E090E00E94E31FE5
S113075020E030E040E85DE30E9495200E94B71F4E
S113076010924D052091720580917A0590917B0538
S11307702A3050F4860F911D90937B0580937A055F
S11307802F5F209372050EC0109272056AE070E02C
S11307900E940421709394056093930510927B0545
S11307A010927A058091930590919405873991056B
S11307B028F0DD27D0939405C09393058091930589
S11307C090919405039720F4109294051092930548
S11307D080E0DF91CF911F910F9108951A98129A9A
S11307E08FEB93E00197F1F700C000009FB7F894F6
S11307F01298E0EBEA95F1F781B19FBFEBE3F3E0E8
S11308003197F1F700C000000A9B02C0847008957C
S113081081E008959FB7F894129A22E02A95F1F79F
S113082000C08111129825E22A95F1F700000A9B75
S113083080E028E72A95F1F712989FBF0895CF9397
S1130840DF93C82FD8E08C2F8170E4DFC695811127
S1130850C068D150C1F78C2FDF91CF9108958FEFED
S1130860EECFFF920F931F93CF93DF93082FB6DF42
S113087081111FC080EFE3DFD0E0C0E488EFF82EE1
S1130880FC0E81E0C7DF182F81E0C4DF882319F054
S1130890112339F010C0111104C00C1711F0DC2F12
S11308A011E0812F7CDEC150CF11EBCF39F78D2FB2
S11308B003C08FEF01C08EEFDF91CF911F910F9195
S11308C0FF900895CF93C82F89DF8CECB8DF8C2F6D
S11308D0CF91B5CFCF93DF93EC018881C2DF8883BA
S11308E081508D3FD0F3DF91CF910895EF92FF9225
S11308F01F93CF93DF93CDB7DEB729970FB6F89444
S1130900DEBF0FBECDBF8FEF89878FE8E82E86E06C
S1130910F82E10E089858823D9F01530C9F0CE016E
S11309200996D8DF89858E5F823090F0FE0131967A
S113093080E090E02191D701A80FB91F2C93019674
S113094088309105B9F71F5F88E0E80EF11CE2CF0B
S1130950812F29960FB6F894DEBF0FBECDBFDF916D
S1130960CF911F91FF90EF90089538DF0A9B06C046
S11309708CECA8DF84E4A6DF80E0089508950F934B
S11309801F93CF93DF93C0919505D09196058CEC7E
S113099099DF8EEB97DF63DF182F61DF082F1EDFEF
S11309A0882351F080914C058F5F853108F089E1EF
S11309B080934C0560E011C0612F70E0702B80E0E3
S11309C090E00E94E31F20E030E040E85DE30E94F5
S11309D095200E94B71F10924C05209173058091B9
S11309E07C0590917D052A3050F4860F911D9093DB
S11309F07D0580937C052F5F209373050EC01092B4
S1130A0073056AE070E00E94042170939605609378
S1130A10950510927D0510927C0580919505909125
S1130A2096058739910528F0DD27D0939605C09364
S1130A3095058091950590919605039720F4109261
S1130A4096051092950580E0DF91CF911F910F914B
S1130A500895E4E7F0E0108282E18093700081E081
S1130A60809371001092720084E48083A8950895A5
S1130A7085E080937000E1E7F0E080818C7F8083E3
S1130A80A895089534EA40EA54E83093740020911C
S1130A90740027FFFCCF20917100287F283011F0CB
S1130AA080E0089540937300509374002091740083
S1130AB027FFFCCF20917100287F283131F79093D4
S1130AC0730094E8909374009091740097FFFCCFA6
S1130AD090917100987F983219F78093730084E89D
S1130AE0809374008091740087FFFCCF8091710023
S1130AF0887F8832A9F66093730084E88093740039
S1130B008091740087FFFCCF80917100887F8832C8
S1130B1039F684E9809374008091740084FDFCCFDD
S1130B208FEB9DE50197F1F700C0000081E0089587
S1130B3034EA40EA54E8309374002091740027FFAB
S1130B40FCCF20917100287F283011F080E00895B7
S1130B5040937300509374002091740027FFFCCFDE
S1130B6020917100287F283131F79093730094E825
S1130B70909374009091740097FFFCCF9091710052
S1130B80987F983219F78093730084E880937400F7
S1130B908091740087FFFCCF80917100887F883238
S1130BA0A9F684EA809374008091740087FFFCCFD7
S1130BB080917100887F803149F681EA80937300C7
S1130BC084E8809374008091740087FFFCCF809147
S1130BD07100887F803409F0B9CF84E88093740071
S1130BE08091740087FFFCCF80917100887F8835E5
S1130BF009F0ACCF8091730094E9909374009091C4
S1130C00740094FDFCCF089584EA8093740080916D
S1130C10740087FFFCCF90917100987F81E0983039
S1130C2009F480E0089584EA80937400809174004C
S1130C3087FFFCCF90917100987F81E0903109F497
S1130C4080E0089580FF02C020E401C028E1809381
S1130C50730084E8809374008091740087FFFCCF54
S1130C6090917100987F81E0921301C080E0089513
S1130C708093730084E8809374008091740087FFEC
S1130C80FCCF90917100987F81E0983209F480E064
S1130C90089584EC809374008091740087FFFCCFE6
S1130CA080917100887F803519F4809173000895D4
S1130CB08EE7089584E8809374008091740087FF20
S1130CC0FCCF80917100887F883519F4809173007E
S1130CD008958EE70895EFECF5E0A5E7B6E01696E3
S1130CE08C911697877020E1829FC001112417967A
S1130CF09C9117979F70892B808313968C911397DF
S1130D00877020E1829FC001112414969C9114974E
S1130D109F70892B81838C91837020E1829FC00115
S1130D20112411969C919F70892B8283A3E8B6E0CD
S1130D301A968C911A9783838C91837020E1829FF9
S1130D40C001112411969C9111979F70892B848363
S1130D5013968C911397282F217030E084E0220F92
S1130D60331F8A95E1F714968C9114978F70282B72
S1130D70258318968C91189720E1829FC001112435
S1130D8019969C919F70892B868308950F931F93C6
S1130D90CF933ADF813019F180ED54DF8130F9F0DF
S1130DA080E066DF8130D9F03EDF8130C1F081ED33
S1130DB049DF8130A1F00FEC15E0C0E06ADF8E3727
S1130DC019F480E8BBD90BC0F80181938F01CF5F80
S1130DD0C630A1F76FDF8E37A1F38093D50584E980
S1130DE080937400CF911F910F910895CFDFAFECE2
S1130DF0B5E08C91E5E7F6E0982F9F7090639783B8
S1130E00807782958F70806386832AE32583119689
S1130E108C911197982F9F7090639483807782951B
S1130E208F7080638383228312968C91982F9F7096
S1130E3090639183807382958F708063808308951B
S1130E40A5DFE3E8F6E080E28387AFECB5E0169631
S1130E508C911697982F9F709063918782958F70CD
S1130E608063808780E3878382E386832FE2258300
S1130E7015968C911597982F9F7090639483829503
S1130E80817080638383228314968C91982F9F7042
S1130E9090639183807382958F70806380830895BB
S1130EA0D8DDA4DFE5E7F6E08681880F8056982F29
S1130EB0990F990F890F97819053890F8093170584
S1130EC08381880F8056982F990F990F890F9481E9
S1130ED09053890F809316058081880F8056982F30
S1130EE0990F990F890F91819053890F809315055C
S1130EF0A7DFE3E8F6E08081880F8056982F990FEA
S1130F00990F890F91819053890F809313058381E1
S1130F10880F8056982F990F990F890F94819053B9
S1130F20890F809314058085880F8056982F990F18
S1130F30990F890F91859053890F80931205089515
S1130F40CF93DF9361DE8130B9F080ED7BDE8130B9
S1130F5099F080E08DDE813079F0CFECD5E0899195
S1130F6087DE813049F085E0C23DD807C1F784E9C6
S1130F708093740080E004C084E98093740081E06D
S1130F80DF91CF910895CF93DF933EDE813071F0EE
S1130F9080ED58DE813051F083E06ADE813031F03B
S1130FA0C2EDD5E0899164DE813039F480E8C6D899
S1130FB084E98093740081E008C085E0C63DD807C9
S1130FC089F784E98093740080E0DF91CF910895DC
S1130FD082DEB6DF48D980E8B1C80F931F93CF9360
S1130FE0DF938B01EA01E5E7F6E02AE030E0B9019E
S1130FF00E940421605D6083805D81834AE34283B3
S1131000C801B9010E940421605D6383805D84830B
S11310104583CE01B9010E940421605D6683805D31
S11310208783DF91CF911F910F91089554DEABDF39
S11310301AD980E883C80F931F93CF93DF938B0152
S1131040EA01E3E8F6E02AE030E0B9010E94042175
S1131050605D6083805D81834FE24283C801B90192
S11310600E940421605D6383805D8483458382E301
S1131070868380E38783CE01B9010E940421605DE9
S11310806087805D8187DF91CF911F910F910895D3
S11310905D9BFECF8CB908950F931F93CF93DF937D
S11310A0FC0101900020E9F73197CE2FC81BD82FFF
S11310B08C01802F8D1B8C1728F4F80181918F01EE
S11310C0E7DFF7CFDF91CF911F910F9108959093B0
S11310D0900089B988E08AB986E080939500119AD6
S11310E008954F925F926F927F928F929F92AF92E8
S11310F0BF92CF92DF92EF92FF920F931F93CF9301
S1131100DF93CDB7DEB72A970FB6F894DEBF0FBED4
S1131110CDBF5C0180E389838A838B838C838D8339
S11311208E83CE0101967C01A114B10429F480E3DD
S1131130AFDF00E010E025C03C01650100E010E0F5
S11311408AE0882E912CC601B4010E9404212B014F
S1131150BC0180E090E00E94E31F620120E030E0E7
S113116040E452E40E94E21E0E94B21FF301619324
S11311703F010F5F1F4F452831F7FAE0AF16B10466
S113118060F480E385DF0E0D1F1D0E151F0579F039
S1131190F80182918F017CDFF8CF0E0D1F1D0E1513
S11311A01F0529F0F80182918F0172DFF8CF2A968A
S11311B00FB6F894DEBF0FBECDBFDF91CF911F9164
S11311C00F91FF90EF90DF90CF90BF90AF909F90E2
S11311D08F907F906F905F904F9008958DE058DFCF
S11311E08AE056CFCF92DF92EF92FF920F931F9334
S11311F0CF93DF93CDB7DEB72A970FB6F894DEBF4F
S11312000FBECDBF7C01892B19F486E591E040DF48
S11312104AE08E010F5F1F4FB801C7010E942821C9
S11312208AE0E816F104B0F486E591E031DFF801D4
S113123001900020E9F7CF0101977C01F1E0EF1A5A
S1131240F108C701801B910B97FD22C0F701808133
S11312501FDFF4CFF80101900020E9F731977F01F7
S1131260E01AF10ACC24C394D12CC7018C199D092E
S113127097FD0EC0F80181918F010ADFF2E0CF16CD
S1131280D10411F48EE204DF8FEFC81AD80AEDCF2F
S11312902A960FB6F894DEBF0FBECDBFDF91CF9173
S11312A01F910F91FF90EF90DF90CF900895E6E2A9
S11312B0F6E060837183089510920F0510920E0575
S11312C0FC01618170E070930F0560930E05762F29
S11312D066278081682B70930F0560930E0580E06C
S11312E090E00895CF93C92F682F89EF91E00E9471
S11312F068216C2F8AEF91E0CF910C946821CF93F1
S1131300C92F682F8BEF91E00E9468216C2F8CEF1E
S113131091E0CF910C9468210F931F93CF9389EFA1
S113132091E00E945B21C82F8AEF91E00E945B212B
S11313304C2F50E060E070E08A019B01182BD9012A
S1131340C801CF911F910F9108950F931F93CF93CD
S11313508BEF91E00E945B21C82F8CEF91E00E94FB
S11313605B214C2F50E060E070E08A019B01182B58
S1131370D901C801CF911F910F910895CF92DF92A7
S1131380EF92FF92CF93DF93C7DFEC018CE08C9F49
S113139060018D9FD00C1124E12CF12C20E030E071
S11313A040E251E4609158057091590580915A05C5
S11313B090915B050E9495200E94B71F78DFB701CA
S11313C0A601445F5F4F6F4F7F4F80910001909162
S11313D00101A0910201B091030184179507A607AA
S11313E0B707C8F40E94330184ED0E949E0064E1B3
S11313F08EE391E00E94350161E088E990E00E946B
S1131400682180E090E06EDFCE0179DFC12CD12C21
S11314107601C0E0D0E08FE19EE40197F1F700C0CF
S1131420000060911305C6012DDB8FE19EE4019756
S1131430F1F700C00000C60101966091140522DB9B
S11314408FE19EE40197F1F700C00000C601029607
S11314506091120517DB8FE19EE40197F1F700C05C
S11314600000C6010396609115050CDB8FE19EE434
S11314700197F1F700C00000C601049660911605BB
S113148001DB8FE19EE40197F1F700C00000C60183
S1131490059660919505F6DA8FE19EE40197F1F7E0
S11314A000C00000C601069660919305EBDA8FE157
S11314B09EE40197F1F700C00000C6010796609111
S11314C07605E0DA8FE19EE40197F1F700C00000B1
S11314D0C601089660916605D5DA8FE19EE401970E
S11314E0F1F700C00000C601099660913605CADA1A
S11314F08FE19EE40197F1F700C00000C6010A964F
S113150060912606BFDA8FE19EE40197F1F700C0EF
S11315100000C6010B9660912706B4DA8FE19EE4C1
S11315200197F1F700C00000CE010196DF91CF9141
S1131530FF90EF90DF90CF90D5CEB2DC809116056E
S113154060911C050E94F820911113C08091170529
S113155081110FC080910501813059F489DA0EDFC1
S113156082E08093050175DAD7DE90931B058093A2
S11315701A0580911705813011F4809305010895AF
S11315807F928F929F92AF92BF92CF92DF92EF920F
S1131590FF920F931F93CF93DF938B01D82FC92F03
S11315A080911005909111050196909311058093F7
S11315B0100582E591E070DD809110059091110590
S11315C08536910530F0883E934030F486E591E00D
S11315D002C085E591E060DD8091100590911105D0
S11315E080DD88E591E058DD8BE591E055DD40DA5A
S11315F06801ED2EFC2EC0E0D0E0460157018CE0DE
S1131600880E911CA11CB11C08E18FE0782EC8142F
S1131610D904EA04FB0408F06BC02196C60188DAF9
S1131620182FC630D1053CF490E05BDDC130D10504
S113163009F03BC03DC0C630D10519F481E691E004
S113164017C0C730D10519F488E691E011C0C8303D
S1131650D10519F48FE691E00BC0C930D10519F416
S113166089E791E005C0CA30D10539F485E891E0F5
S113167013DD812F90E035DD2EC0CB30D10529F468
S11316808093260682E991E01AC0CC30D10591F40A
S11316908093270686E296E00FDE80910E059091F6
S11316A00F05A0DD80EA91E00AC0C230D10511F433
S11316B08DE210C0C330D10521F482EA91E0ECDC64
S11316C00AC0C430D10511F48AE304C0C530D10581
S11316D011F480E2DDDCA8950FB6F894A89501BD5D
S11316E00FBE71BC9FEFC91AD90AE90AF90A8FCF54
S11316F0B0D974DD2FEF80E792E021508040904014
S1131700E1F700C00000A8959FE088E10FB6F894C7
S1131710A89581BD0FBE91BDDF91CF911F910F910F
S1131720FF90EF90DF90CF90BF90AF909F908F90FD
S11317307F900895AF92BF92CF92DF92EF92FF9283
S11317400F931F93CF93DF93E7DDEC011D9846DDE4
S113175089EA91E0A1DC10921105109210052097FE
S113176021F48DEB91E098DC73C088E990E00E944D
S11317705B21813009F04AC0E8DDEC012FDDCCDDCE
S11317808C018CE0809F6001819FD00C1124E12C9E
S1131790F12C48E1B42E5FE0A52E8CE0E81AF108A4
S11317A00115110581F0A8950FB6F894A895B1BC60
S11317B00FBEA1BCB7016C0D7D1D80E090E0E0DEA2
S11317C001501109EACFA8DD7C018CE08C9F6001F7
S11317D08D9FD00C112400E010E028E1B22E3FE0F0
S11317E0A32E0C501109CE15DF0509F431C0A895BC
S11317F00FB6F894A895B1BC0FBEA1BCB601600F9A
S1131800711F80E090E0BCDE2197EBCFE7DC8CE039
S11318108C9F70018D9FF00C112400E010E088E192
S1131820D82E9FE0C92E8CE0E81AF108A8950FB6CF
S1131830F894A895D1BC0FBEC1BCB701600F711F4D
S113184080E090E09DDE21970C501109209771F7FC
S11318501D9ADF91CF911F910F91FF90EF90DF9030
S1131860CF90BF90AF90089580914A058F5F809389
S11318704A058C3380F0809149058F5F8093490538
S113188010924A058C3338F080914B058F5F80931A
S11318904B05109249050895809145058F5F80930B
S11318A045058C3380F0809144058F5F8093440517
S11318B0109245058C3338F0809146058F5F8093F4
S11318C04605109244050895809142058F5F8093E8
S11318D042058C3380F0809141058F5F80934105F0
S11318E0109242058C3338F0809143058F5F8093CA
S11318F043051092410508951F920F920FB60F925F
S113190011248F939F938091320590913305019612
S113191090933305809332059F918F910F900FBE62
S11319200F901F90189587B7816087BF83B7836036
S113193083BF08951F920F920FB60F9211240BB616
S11319400F922F933F934F935F936F937F938F9354
S11319509F93AF93BF93EF93FF938091180590915A
S1131960190501969093190580931805843F9140B9
S113197020F480916200826003C0809162008D7FB8
S1131980809362008091AA05813240F01092AA05EA
S11319906CE075E08DEF95E00E9421218091AA050D
S11319A08823C9F080911E0590911F050196853604
S11319B0910528F490931F0580931E050CC0109286
S11319C01F0510921E051092AA056CE075E08DEFBC
S11319D095E00E9421218091A3059091A40501978F
S11319E0D9F48091A1059091A2050196893B2BE041
S11319F0920728F49093A2058093A10504C0109245
S1131A00A2051092A105D99A8091A1059091A205F1
S1131A108536910508F0D99880911805909119059B
S1131A20813D934008F4A8C080913705813049F482
S1131A308091700590917105019690937105809342
S1131A40700580917605813021F080918A0581307E
S1131A50D9F422DF809132059091330590933105BA
S1131A6080933005109233051092320580913D0524
S1131A708F5F8D3318F480933D0506C08CE380930B
S1131A803D0581E080933E059091880521E0809199
S1131A907705813009F020E081E03091890531300B
S1131AA009F080E0822B11F49130D9F480913C0547
S1131AB0813051F480912E0590912F0501969093D9
S1131AC02F0580932E050DC0911102C0FDDE09C0C3
S1131AD08091800590918105019690938105809372
S1131AE08005C2DE109219051092180580916605D2
S1131AF090916705019751F480913B058F5F853084
S1131B0018F480933B0502C010923B0580919F0519
S1131B109091A00501969093A00580939F05883726
S1131B20910531F40E94F4001092A00510929F05D3
S1131B308091A805813071F48091A7058F5F80930F
S1131B40A7058B3530F093981092A8051092A7053D
S1131B5001C0939A809120069091210601968F35B9
S1131B6021E0920728F4909321068093200604C074
S1131B701092210610922006FF91EF91BF91AF9130
S1131B809F918F917F916F915F914F913F912F9191
S1131B900F900BBE0F900FBE0F901F901895809161
S1131BA0460590E00E94370261E086EA92E00E94D6
S1131BB035018091440590E00E94370261E086EA95
S1131BC092E00E9435018091450590E00C94370223
S1131BD0179883B193B18068892B83B98AB78068D9
S1131BE08ABF89B7806889BF0895CF92DF92EF9248
S1131BF0FF920F931F93CF93DF93CDB7DEB7E89790
S1131C000FB6F894DEBF0FBECDBF88E3E6E0F1E087
S1131C10DE01119601900D928A95E1F780E40E940D
S1131C209E008E010F5F1F4F7E0189E3E80EF11CB9
S1131C3088E1D82E9FE0C92EF80181918F010E947E
S1131C40BD00A8950FB6F894A895D1BC0FBEC1BC31
S1131C500E151F0589F7E8960FB6F894DEBF0FBE80
S1131C60CDBFDF91CF911F910F91FF90EF90DF9047
S1131C70CF90089553B343B333B323B3852F817007
S1131C8090E04270840F911D3870830F911D207273
S1131C90820F911D039709F080C0C69A2FEF34E399
S1131CA04CE0215030404040E1F700C00000C698AD
S1131CB0A89588E19FE00FB6F894A89581BD0FBE62
S1131CC091BDC59A2FEF34E34CE0215030404040A1
S1131CD0E1F700C00000C598A8950FB6F894A89540
S1131CE081BD0FBE91BDC29A2FEF34E34CE0215069
S1131CF030404040E1F700C00000C298A8950FB6FC
S1131D00F894A89581BD0FBE91BDC09A2FEF34E31E
S1131D104CE0215030404040E1F700C00000C09842
S1131D20A8950FB6F894A89581BD0FBE91BD1E9AD3
S1131D302FEF34E34CE0215030404040E1F700C045
S1131D4000001E98A8950FB6F894A89581BD0FBE03
S1131D5091BDC49A2FEF34E34CE021503040404011
S1131D60E1F700C00000C498A8950FB6F894A895B0
S1131D7081BD0FBE91BDDB9A2FEF30E742E02150C9
S1131D8030404040E1F700C00000DB98A8950FB652
S1131D90F894A89581BD0FBE91BD089582B182B912
S1131DA0E1E6F0E0808180838081808383B1846177
S1131DB083B98B9A8081808382B1806682B9808165
S1131DC08264808387B3856D87BB84B384BB85B30A
S1131DD08B6285BB1D9AD39A8BB38BBBA4E6B0E010
S1131DE08C9182608C938B9A9398A5E6B0E08C9149
S1131DF082608C93BF9AC598BD9AC598D19AD99A96
S1131E00169A1E98BE9AC698808184608083E2E602
S1131E10F0E0808184608083BA9AC298B89AC098AE
S1131E20BC9AC4982FEF89E698E1215080409040F5
S1131E30E1F700C000000E94F4000E9493010E9498
S1131E40330180E80E949E0064E182ED91E00E94EB
S1131E50350180EC0E949E0064E187EE91E00E94CF
S1131E60350184E90E949E0064E18CEF91E00E94B8
S1131E70350184ED0E949E0064E181E192E00E94BC
S1131E8035010E944A010E943301EAE2F6E081E052
S1131E90808382E0838383E0868385E0818786E094
S1131EA0828787E0838788E0848789E085878AE062
S1131EB0868783E387878BE0828B8CE0858B8DE03C
S1131EC0808F8EE0838F8FE0848F80E1858F81E126
S1131ED0868F82E1878F83E180A384E181A385E1FA
S1131EE084A386E187A387E182A788E185A789E1A6
S1131EF080AB8AE183AB8BE186AB8CE180936C068B
S1131F008DE184AF10DD64DE83E390E0E0D8789463
S1131F106CDE8BB38BBB0895CF93DF93CAE2D6E01C
S1131F20888190E00E945B21809327058B8190E05B
S1131F300E945B21809397058E8190E00E945B2133
S1131F408093A905898590E00E945B2180932505F3
S1131F508A8590E00E945B21809324058B8590E024
S1131F600E945B21809323058C8590E00E945B2175
S1131F70809322058D8590E00E945B21809321054A
S1131F808E8590E00E945B21809320058F8590E0F0
S1131F900E945B21809326058CE291E00E946321DC
S1131FA090932B0580932A058CED90E00E94632189
S1131FB090932905809328058D8990E00E945B21E8
S1131FC080931C0589A190E00E945B2190E090938E
S1131FD09E0580939D05DF91CF910895CF936091E5
S1131FE0A90580912705861740F46E5F6093270545
S1131FF080912A0690E00E9468218091970583339E
S113200048F0609127056093970580912D0690E034
S11320100E94682180912705853648F08EE18093DF
S1132020270580912A066EE190E00E946821809144
S1132030A905853648F089E18093A90580912D068C
S113204069E190E00E94682191E080912505853640
S113205008F490E081E020912405253608F480E01E
S1132060892B21F4809123058536D0F082E080937A
S113207025058091300662E090E00E94682110926C
S113208024058091310660E090E00E9468218FE091
S113209080932305809132066FE090E00E946821CE
S11320A091E080912205853608F490E081E020914A
S11320B02105253608F480E0892B21F48091200540
S11320C08536C8F0109222058091330660E090E0D6
S11320D00E946821CFE0C0932105809134066FE00F
S11320E090E00E946821C0932005809135066FE03E
S11320F090E00E94682180912605853648F08AE2A6
S113210080932605809136066AE290E00E94682159
S113211080911C05883348F08FE080931C058091E2
S11321203C066FE090E00E94682180919D059091AB
S11321309E0503976CF081E090E090939E05809358
S11321409D058091480661E090E0CF910C94682150
S1132150CF910895CF93DF93CAE2D6E088816EE1F0
S113216090E00E9468218B8163E290E00E946821E4
S11321708E816CE190E00E946821898562E090E0A4
S11321800E9468218A8560E090E00E9468218B8526
S113219060E090E00E9468218C8560E090E00E94FD
S11321A068218D856FE090E00E9468218E8560E053
S11321B090E00E9468218F856AE290E00E94682185
S11321C08D896FE090E00E94682189A161E090E030
S11321D00E94682160EE71E08CE291E00E9475211A
S11321E06AEE71E08CED90E0DF91CF910C94752153
S11321F091E080913605813009F090E081E02091F2
S11322003905213009F080E0892B91E02091740593
S1132210213009F090E0982B81E020919C05213039
S113222009F080E0892B31F480916605909167056F
S1132230019711F4C49A0895C4980895039B11C09A
S113224080919B058F5F80939B058333C8F081E069
S11322508093360510929A0588E780939B051E9813
S1132260089580919A058F5F80939A05853140F097
S11322701092360510929B0588E780939A051E9A62
S1132280089580919D0590919E0581309105D1F42A
S1132290209176052130D1F420918A05211116C0B0
S11322A020913E05213091F420916405309165051B
S11322B02436310530F4C59A9093670580936605FA
S11322C00895C598109267051092660508952091A7
S11322D04405822F65E00E94F820911116C0222344
S11322E0A1F080914505811110C080919D059091C8
S11322F09E05019751F4809164059091650584369B
S1132300910518F481E08093A8050895CF93DF9395
S11323102091270530E04091950550919605421B88
S1132320530B64E6649FC001659F900D1124609176
S1132330970570E0621B730B0E940421EB01CA56DF
S1132340DF4FC634D10538F0CF3FD10531F028F046
S1132350CFEFD0E002C0C6E9D0E0C3BD8091440510
S1132360823018F480914B0581118BDF80914405F4
S1132370823020F480914B05882331F0C73ED1058B
S113238018F0DF91CF915ACFDF91CF9108959091BA
S1132390450580912305981780F09091440580911C
S11323A02405981750F081E090E030914605209183
S11323B02505321720F480E0089580E090E0089528
S11323C09091450580912005891780F490914405EA
S11323D080912105981750F081E090E030914605F6
S11323E020912205321720F480E0089580E090E0E7
S11323F008950E94730010924405109245051092AE
S1132400460581E08093760510923D05C69A0895AD
S1132410C798C69810924405109245051092460537
S113242081E080938A050E948000C79810923E053F
S1132430109231051092300510929B0510929A0566
S113244010922D0510922C05089510927605109285
S11324503E0510922D0510922C05C798D9DF1092D5
S11324608A0510929B0510929A05109244051092C9
S11324704505109246051092370510927105109289
S1132480700508958091A90590E0209195053091FB
S1132490960582179307A0F0BBDF109244051092B3
S11324A045051092460510928A05109288051092EF
S11324B03E05109276051092670510926605089500
S11324C066DF019709F4A4CF21CF209195053091BF
S11324D0960580919305909194052817390738F053
S11324E010926D0510926C0510927505CBCF8091FA
S11324F06C0590916D05019690936D0580936C0524
S113250087399105E0F01092760510923E051092FD
S1132510770510922D0510922C0510929B051092B0
S11325209A05C79875DF10928A0510924405109297
S113253045051092460510926D0510926C0508959C
S113254080919505909196052091270530E02817F4
S1132550390708F080C0209193053091940528171D
S1132560390780F54091390541112CC081E08093F1
S113257037051092880510928105109280051092FB
S11325804105109242051092430580917005909187
S11325907105409708F45FC010926F0510926E05A4
S11325A01092370526DF80917005909171058B3F5D
S11325B0910508F450C08EEC90E0909371058093DF
S11325C0700508958217930710F580916E05909118
S11325D06F05019690936F0580936E0510923705F1
S11325E085319105C0F11092710510927005109219
S11325F077051092760510923E058B3F910558F1B0
S11326008EEC90E090936F0580936E050895109280
S1132610370510928805109281051092800510925A
S113262041051092420510924305109271051092D3
S1132630700510926B0510926A051092670510924E
S1132640660510922F0510922E0510923C051092EB
S113265074051E98C598089580917605811106C069
S11326606FDF10926D0510926C0508958130B9F5F5
S113267080913905813091F4E8DE1092760510924C
S11326808A0510923E051092710510927005109201
S113269044051092450510924605089580918A05D7
S11326A0811102C014DE11CF8BDE892BC1F0109290
S11326B0760510928A0510923E05109271051092CB
S11326C0700510924405109245051092460510922B
S11326D02D0510922C0510929B0510929A050895D1
S11326E065E086E292E00E94350180919505909123
S11326F096050E9437028FED0E94BD0062E08CE2D5
S113270092E00E94350166E08FE292E00E9435017A
S113271080919305909194050E9437028FED0E9459
S1132720BD0061E086E392E00C943501CF92DF9224
S1132730EF92FF92CF93DF9320E030E040E251E448
S1132740609158057091590580915A0590915B05E7
S11327500E9495200E94B71F6B017C01EB018091C0
S11327602A0590912B05C816D90610F481E00FC0F4
S11327709C012C5E3F4FC216D30610F482E007C0C2
S11327808896C816D90610F483E001C084E00E943C
S1132790BD0080912A0590912B05C817D90700F533
S11327A0809138058F5F863018F48093380502C015
S11327B01092380580913805833030F464E089E95B
S11327C093E00E94350103C0C6010E94540266E0F2
S11327D088E392E00E9435016BE08FE392E035C01C
S11327E0C6010E94540266E088E392E00E9435012B
S11327F080919D0590919E05019721F565E08BE4FC
S113280092E00E94350180916405909165058536BA
S1132810910538F0893E934048F461E086E591E003
S113282003C062E085E591E00E9435018091640572
S113283090916505DF91CF91FF90EF90DF90CF905D
S11328400C94370269E084E993E0DF91CF91FF9023
S1132850EF90DF90CF900C94350180E80E949E00A9
S113286064E18CEF91E00E94350180EC0E949E00AF
S113287037DF84E90E949E0065E081E592E00E94D2
S113288035018091660590916705892B09F5809142
S11328907605811110C080913705813041F467E0DD
S11328A087E592E01CC080917605811104C067E041
S11328B08FE592E014C08130A1F480918A0567E02D
S11328C0813019F487E692E00AC08FE692E007C0EF
S11328D080913B05833038F767E087E792E00E94F8
S11328E0350180913705811102C059D90BC08091FF
S11328F07005909171050E94370266E08FE792E0BF
S11329000E94350184ED0E949E0010CFA8959FE09F
S113291088E10FB6F894A89581BD0FBE91BD369A93
S11329208FED9EE20197F1F700C000000E949C0128
S1132930369A369A8FED9EE20197F1F700C00000B7
S11329400E9400020E947A038FE99FE00197F1F749
S113295000C000000E9484030E94B5048FE99FE038
S11329600197F1F700C000000C94BF04CF92DF92EE
S1132970EF92FF9220E030E040E251E4609158058C
S11329807091590580915A0590915B050E9495209C
S11329906B017C0160912A0570912B0580E090E029
S11329A00E94E31F9B01AC01C701B6010E94461FB0
S11329B087FF1FC080913A058F5F853618F4809396
S11329C03A0539C089E680933A0581E08093390558
S11329D01092400510923F058091A3059091A405A3
S11329E0892B49F581E090E09093A4058093A30599
S11329F022C080913F059091400501968E3221E0DE
S1132A00920728F49093400580933F0514C081E316
S1132A1091E09093400580933F0510923905109200
S1132A203A058091A3059091A405019721F4109291
S1132A30A4051092A305FF90EF90DF90CF90089526
S1132A40CF93DF9390919005911173C0809192057B
S1132A508F5F8E3008F081E080939205809192051B
S1132A608A3069F40E9450078091150580938E0581
S1132A708091160580938C05809117050EC08B30CC
S1132A8079F40E9450078091130580938E058091FC
S1132A90140580938C058091120580938B0561C089
S1132AA031E024EF280F223008F030E091E02AEFE3
S1132AB0280F233008F090E0932BC82FD0E011F4B6
S1132AC08430F0F4873019F48CE291E004C08D3046
S1132AD041F48CED90E00E9463219093690580930A
S1132AE068052197CE01880F991FC80FD91FC65DAD
S1132AF0D94F888190E00E945B2180938E0531C07C
S1132B002197CE01880F991FC80FD91FC65DD94FD1
S1132B10888190E00E945B2180938E05898190E0FA
S1132B200E945B2180938C058A8190E00E945B2146
S1132B30B4CF9130B1F480918E058F5F80938E0570
S1132B40209192052C3021F4833010F090938E055F
S1132B508091680590916905019690936905809329
S1132B606805DF91CF910895CF93DF9390919005FD
S1132B70911172C080919205815009F48DE0809387
S1132B809205809192058A3069F40E9450078091E1
S1132B90150580938E058091160580938C05809190
S1132BA017050EC08B3079F40E94500780911305ED
S1132BB080938E058091140580938C058091120575
S1132BC080938B0565C031E02AEF280F233008F08D
S1132BD030E091E024EF280F223008F090E0932BAE
S1132BE0C82FD0E011F48430F0F4873019F48CE26B
S1132BF091E004C08D3041F48CED90E00E9463219B
S1132C0090936905809368052197CE01880F991FD9
S1132C10C80FD91FC65DD94F888190E00E945B21FF
S1132C2080938E0535C02197CE01880F991FC80F58
S1132C30D91FC65DD94F888190E00E945B218093A3
S1132C408E05898190E00E945B2180938C058A81A6
S1132C5090E00E945B21B4CF9130D1F480918E0535
S1132C60815080938E05209192052C3041F481117E
S1132C7004C082E080938E0502C090938E058091FB
S1132C80680590916905019790936905809368059B
S1132C90DF91CF9108950F931F93CF93DF9353B395
S1132CA043B333B323B3852F817090E04270840F14
S1132CB0911D3870830F911D20728C01020F111D1C
S1132CC008321105B9F480E090E00E94720960E0D6
S1132CD088E990E00E9468210E94330180E80E9404
S1132CE09E006AE086E892E00E9435010E944A0153
S1132CF00E944A01809184059091850501969093E4
S1132D00850580938405853F914088F01092910554
S1132D1082E080937F051092920586E292E0909380
S1132D20850580938405809165008D7F03C0809123
S1132D30650082608093650080918405909185058B
S1132D408D32914010F010921D050B32110509F4DB
S1132D50BDC183B38170C82FE0E0DE2F43B342705E
S1132D6050E023B3287030E083B3807290E0BE015A
S1132D70640F751F620F731F680F791F6B32710523
S1132D8009F4A4C1DB9AFFEFA0E7E2E0F150A04010
S1132D90E040E1F700C00000DB986A32710509F0F9
S1132DA0D9C0109285051092840588E19FE0C13056
S1132DB0D10569F023B32170C22FF0E0DF2FA8956D
S1132DC00FB6F894A89581BD0FBE91BDF0CF809148
S1132DD0910581110BC0D0938705C093860581E0CE
S1132DE080939105109290058093920580917F05C0
S1132DF0811128C08091860590918705019709F07B
S1132E00A5C080917E0590919105811107C09230F3
S1132E1009F09CC081E080937E0598C0813009F060
S1132E2095C0933009F092C090910401973839F01D
S1132E3010929105109287051092860582E0809386
S1132E407F0584C0813009F041C18091860590914D
S1132E508705019709F03AC1809191052091900569
S1132E6091E0211190E0813071F4992309F46EC04E
S1132E7080919205813009F069C080912A0690E022
S1132E800E945B2144C0823069F4992309F45EC036
S1132E9081E08093900581E090E090938305809396
S1132EA0820554C0833009F051C0213009F04EC06E
S1132EB09091920584EF890F31E0823008F030E080
S1132EC081E02AEF290F233008F080E0832B11F4EE
S1132ED0943020F482E08093900538C0809182057C
S1132EE09091830581309105A9F481E08093900548
S1132EF082E08093910582E090E090938305809333
S1132F00820580918E058093480580918C0580937D
S1132F108E051CC0029799F481E08093900582E0AD
S1132F208093910583E090E09093830580938205DC
S1132F3080918E058093470580918B05E8CF82E0D0
S1132F4080939005109283051092820580919105DB
S1132F508F5F5EC069327105F9F410928505109295
S1132F60840580919105833008F07EC098E12FE0BC
S1132F704230510559F043B3427050E0A8950FB662
S1132F80F894A89591BD0FBE21BDF2CF81116CC0FC
S1132F9081E080931D059AC06332710509F03BC03E
S1132FA01092850510928405809191058330A8F4D0
S1132FB098E14FE02830310559F023B3287030E010
S1132FC0A8950FB6F894A89591BD0FBE41BDF2CF58
S1132FD0811103C010921D0579C080917F05813055
S1132FE009F065C08091860590918705019709F0E5
S1132FF06DC080919205893009F063C0809190057D
S1133000813009F05EC01092900510928F0581E026
S1133010809391055BC06B30710509F057C0109225
S113302085051092840528E13FE0809759F083B329
S1133030807290E0A8950FB6F894A89521BD0FBEB4
S113304031BDF3CF80919105882309F43FC082E01C
S113305080937F0580919005811103C010929105A2
S113306035C0813099F5CFCF80917F058130B9F497
S11330708091860590918705019741F5809192058D
S1133080893041F480919005813021F482E080936D
S113309090051CC0DF91CF911F910F91D1CC8091ED
S11330A07E05813099F4809104018F5F07C080917F
S11330B07E05813059F4809104018150809304018C
S11330C005C0DF91CF911F910F914ECDDF91CF912C
S11330D01F910F910895809190058823A9F0813064
S11330E009F088C080918205909183058130910513
S11330F0E1F480918E05803218F08FE180938E0583
S113310080918D05853048F480918E0590E00E9471
S1133110370261E084E992E003C063E082E992E06F
S11331200E94350180918C051AC08230910561F5A9
S113313080918E058D3018F08CE080938E059091EF
S11331408D05809148059530C0F490E00E943702C7
S113315061E084E992E00E94350180918E0590E05F
S11331600E94370263E089E992E00E943501809170
S11331708B0590E00E9437023DC090E00E94370228
S113318066E086E992E0F1CF0397A1F580918E0580
S11331908C3318F08BE380938E0590918D0580918C
S11331A048059530A8F490E00E94370261E084E974
S11331B092E00E9435018091470590E00E94370219
S11331C063E089E992E00E94350180918E05D1CFB8
S11331D090E00E94370261E084E992E00E943501A8
S11331E08091470590E00E94370265E08DE992E006
S11331F00E94350164E089E993E00C9435018091E3
S113320090058823A9F0813009F088C08091820557
S11332109091830581309105E1F480918E05883188
S113322018F087E180938E0580918D05853048F4F0
S113323080918E0590E00E94370261E086EA92E078
S113324003C063E084EA92E00E94350180918C051A
S11332501AC08230910561F580918E058C3318F087
S11332608BE380938E0590918D0580914805953070
S1133270C0F490E00E94370261E086EA92E00E9486
S1133280350180918E0590E00E94370261E086EA64
S113329092E00E94350180918B0590E00E943702F4
S11332A03DC090E00E94370264E083EA92E0F1CFEF
S11332B00397A1F580918E058C3318F08BE38093EE
S11332C08E0590918D05809148059530A8F490E085
S11332D00E94370261E086EA92E00E943501809103
S11332E0470590E00E94370261E086EA92E00E947E
S11332F0350180918E05D1CF90E00E94370261E0C4
S113330086EA92E00E9435018091470590E00E9490
S1133310370263E088EA92E00E94350166E087E9BB
S113332093E00C943501CF93DF93EC0180E80E9485
S11333309E0064E18CEA92E00E94350180EC0E94D8
S11333409E00FE013197ED30F105C0F5EA5BFF4FB9
S11333506FC760E182EC92E02FC060E183ED92E000
S11333602BC06FE084EE92E027C06CE084EF92E023
S113337023C06CE081E093E01FC064E18EE093E041
S11333801BC064E183E293E017C06EE088E393E03E
S113339013C064E187E493E00FC066E08CE593E03A
S11333A00BC066E083E693E007C069E08AE693E039
S11333B003C064E184E793E00E9435019091900595
S11333C0992339F080918D058F5F80938D058B3023
S11333D010F010928D0580919205893091F484E962
S11333E00E949E0080919005811104C064E189E8E7
S11333F093E036C1813009F035C164E18EE993E090
S11334002FC18B3011F467DE2DC18A3011F4F7DE41
S113341029C18830C1F4992369F081E08093900533
S113342080918D05853030F462E08BE993E00E9451
S1133430350105C080918E0590E00E94370264E05A
S113344083EB93E00DC1863001F58CE90E949E0068
S113345080919005882369F081E0809390058091A4
S11334608D05853030F462E08BE993E00E943501EC
S113347005C080918E0590E00E9437028FED0E9476
S1133480BD0061E086E392E0EBC08230C9F4992389
S113349059F081E08093900580918D05853020F46A
S11334A062E08BE993E045C080918E0590E00E9434
S11334B037028FED0E94BD0062E08CE292E0D0C042
S11334C0873011F08D30E9F48CE90E949E008091E0
S11334D09005882379F0813049F480918D058530F9
S11334E048F464E088EB93E00E94350164E08DEBDE
S11334F093E0B6C080916805909169050E945402DA
S1133500F5CF282F2D7F2130B9F49111C2CF8091AE
S11335108E054AE067EB76E090E09AD6E7EBF6E0BA
S113352001900020E9F73197BF01675B764087EB94
S113353096E00E943501BDCF8C30C1F491110BC0CF
S113354080918E056BE0823019F482EC93E088C0A0
S11335508EEC93E085C0913009F08DC080918D058B
S1133560853070F76BE08AED93E07AC08450823046
S113357008F078C0911109C080918E0590E00E94F6
S1133580370261E086EA92E011C0913009F06AC026
S113359080918205909183058130910561F4809139
S11335A08D05853048F363E084EA92E00E9435019A
S11335B080918C0513C08230910511F590918D0591
S11335C080914805953088F490E00E94370261E0CC
S11335D086EA92E00E94350180918E0590E00E9477
S11335E0370261E086EA92E006C090E00E9437026A
S11335F064E083EA92E00E94350180918B051CC04F
S1133600039781F590918D05809148059530C0F41C
S113361090E00E94370261E086EA92E00E94350160
S11336208091470590E00E94370261E086EA92E0CB
S11336300E94350180918E0590E00E94370212C0ED
S113364090E00E94370261E086EA92E00E94350130
S11336508091470590E00E94370263E088EA92E097
S11336600E943501809192059AEF980F923058F09C
S11336708B7F893041F084E90E949E0064E189E8EF
S113368093E00E94350184ED0E949E0064E189E884
S113369093E0DF91CF910C943501CF93DF93809128
S11336A0860590918705019709F0CDC00E943301EA
S11336B080E80E949E0064E186EE93E00E9435015A
S11336C080919205893041F464E18BEF93E00E948C
S11336D035010E949A0BABC031E02AEF280F23304A
S11336E008F030E091E024EF280F223008F090E059
S11336F0932B11F48430F8F4873039F46091680521
S1133700709169058CE291E008C08D3041F46091BC
S11337106805709169058CED90E0E7D55DC090E097
S11337200197FC01EE0FFF1F8E0F9F1FFC01E65D4A
S1133730F94F80814DC08A3071F440918E0550E07C
S11337406091470570E08091480590E00E94ED0784
S11337500E94E80741C08B3071F440918E0550E01F
S11337606091470570E08091480590E00E941B0835
S11337700E94160831C090E00197FC01EE0FFF1F74
S11337808E0F9F1FFC01E65DF94F80816091480513
S113379090E09ED58091920590E00197FC01EE0F98
S11337A0FF1F8E0F9F1FFC01E65DF94F8181609121
S11337B0470590E08DD58091920590E00197FC013A
S11337C0EE0FFF1F8E0F9F1FFC01E65DF94F8281F4
S11337D060918E0590E07CD5C0919205C93010F0BF
S11337E0CC30C9F4D0E02197CE01880F991FC80FBF
S11337F0D91FC65DD94F888190E05DD580938E0531
S1133800898190E058D580938C058A8190E053D5C6
S113381080938B050CC080918E0580938B058091DD
S1133820480580938E058091470580938C051092FE
S113383083051092820582E08093910510924805D9
S11338401092470508C080E80E949E0063E180E171
S113385094E00E943501DF91CF910C943301CF9312
S1133860DF930E94330181E08093920510927F05DB
S1133870C8E1DFE080917F05811142C0A8950FB6B1
S1133880F894A895C1BD0FBED1BD05DA80E80E94A9
S11338909E0080917E0564E1811103C084E294E07E
S11338A002C08AE394E00E94350180EC0E949E00ED
S11338B06AE080E594E00E94350180917E058130C4
S11338C051F480918D05853030F463E08AE993E00A
S11338D00E94350105C08091040190E00E943702E6
S11338E061E08BE594E00E94350180918D058F5F46
S11338F080938D058B3008F4BDCF10928D05BACF1F
S1133900813069F48093910510928D0580912A0687
S113391090E0D1D480938E05C8E1DFE013C010920B
S1133920910528C0A8950FB6F894A895C1BD0FBEFF
S1133930D1BDB1D980919005823048F4809192052F
S113394090E0F1DC809191058111ECCF13C08230BD
S113395021F4A3DE10929005F5CF833099F71092ED
S1133960910510929205109290051092870510927D
S11339708605E8CF0E94330180E80E949E006EE035
S11339808DE594E00E9435010E944A01A8959FE0CC
S113399088E10FB6F894A89581BD0FBE91BD109231
S11339A092051092910510927F0510927E0582E88F
S11339B0809304010E943301DF91CF910C948C0F0A
S11339C0049B11C0809135058F5F80933505853642
S11339D0C8F081E080939C051092340588E78093B9
S11339E03505C29A0895809134058F5F809334051C
S11339F0853640F010929C051092350588E7809337
S1133A003405C29808950E94500780E80E949E00E1
S1133A1065E08CE694E00E9435018091130590E006
S1133A200E94370261E084E992E00E9435018091AE
S1133A30140590E00E94370263E089E992E00E9455
S1133A4035018091120590E00E94370265E088E913
S1133A5093E00E94350180EC0E949E0065E082E7BD
S1133A6094E00E9435018091150590E00E94370290
S1133A7061E086EA92E00E9435018091160590E0AB
S1133A800E94370261E086EA92E00E94350180914B
S1133A90170590E00E94370267E086E993E00E94F0
S1133AA0350184E90E949E006EE088E794E00E945C
S1133AB0350180911C0590E00E94370264E083EB9D
S1133AC093E00E94350184ED0E949E006BE087E83C
S1133AD094E00E94350180911A0590911B0585366A
S1133AE0910520F061E086E591E003C062E085E5A0
S1133AF091E00E94350180911A0590911B050E9466
S1133B00370261E08CE993E00E94350188E990E096
S1133B10D2D364E0813019F483E994E002C089E9E6
S1133B2093E00C94350180E80E949E0064E189E8EA
S1133B3093E00E94350180EC0E949E0064E188E9D4
S1133B4094E00E94350184E90E949E0064E18DEABC
S1133B5094E00E94350184ED0E949E0064E189E8AE
S1133B6093E00C9435018091260590E02091950511
S1133B70309196058217930790F4809199058F5F91
S1133B80853618F480939905089588E780939905FC
S1133B901092980581E080937405C09A08958091ED
S1133BA098058F5F853618F480939805089588E703
S1133BB0809398051092990510927405C098089501
S1133BC00E94CE0E0E943B030E94760480E80E946D
S1133BD09E0064E182EC94E00E9435010E943A0E5A
S1133BE0DB9A2FEF80E792E0215080409040E1F78C
S1133BF000C00000DB98A8959FE088E10FB6F89418
S1133C00A89581BD0FBE91BDC2E3D8E11FE0369AED
S1133C100E949C018FE19EE40197F1F700C000002F
S1133C20369A0E9400028FE19EE40197F1F700C0EA
S1133C3000000E947A030E9484030E94B5040E943B
S1133C40BF04A8950FB6F894A895D1BD0FBE11BDB9
S1133C50C150E9F69FEF26E181E191502040804078
S1133C60E1F700C000008091660690E02CD3019734
S1133C7021F10E94AA108091660661E070E090E054
S1133C8034D342E350E06DE270E08DE090E00E94B6
S1133C90ED070E94E80744E150E063E070E08FE044
S1133CA090E00E941B080E94160880E090E00E94A9
S1133CB0720980E090E00E947F090E948C0F0E94AC
S1133CC0330187ED94E00E944C0886EF94E00E9453
S1133CD04C0883E090E090937905809378058BB34A
S1133CE08BBB84ED0E949E008091A3059091A40556
S1133CF00E9437028091A5059091A6050E94370283
S1133D0080919B0590E00E94370280919A0590E093
S1133D100E943702C8E1DFE003E610E0A8950FB681
S1133D20F894A895C1BD0FBED1BD0E949D0A6091B3
S1133D3030057091310580E090E045D127EF3EEDEC
S1133D4043EA51E4F2D113D170936505609364059D
S1133D500E94EE0F0E94861480919505909196051D
S1133D60059720F41093960500939505809193058B
S1133D7090919405059720F4109294051092930560
S1133D801FDE80919C05811109C080911D05811160
S1133D9003C00E942D1405C036DE03C0C4DE0E9499
S1133DA025120E942C130E94B6140E944B16DBDECF
S1133DB00E94F81080919105882309F4AFCF4FDD5C
S1133DC0ADCF5058BB27AA270ED075C166D130F0AD
S1133DD06BD120F031F49F3F11F41EF45BC10EF45B
S1133DE0E095E7FB51C1E92F77D180F3BA17620759
S1133DF073078407950718F071F49EF58FC10EF4CC
S1133E00E0950B2EBA2FA02D0B01B90190010C01E6
S1133E10CA01A0011124FF27591B99F0593F50F4FE
S1133E20503E68F11A16F040A22F232F342F442756
S1133E30585FF3CF469537952795A795F04053954E
S1133E40C9F77EF41F16BA0B620B730B840BBAF01E
S1133E509150A1F0FF0FBB1F661F771F881FC2F789
S1133E600EC0BA0F621F731F841F48F4879577959D
S1133E706795B795F7959E3F08F0B3CF9395880F54
S1133E8008F09927EE0F979587950895D9D008F4EF
S1133E9081E008950CD00FC107D140F0FED030F07E
S1133EA021F45F3F19F0F0C0511139C1F3C014D1AE
S1133EB098F39923C9F35523B1F3951B550BBB27ED
S1133EC0AA2762177307840738F09F5F5F4F220F9A
S1133ED0331F441FAA1FA9F333D00E2E3AF0E0E893
S1133EE030D091505040E695001CCAF729D0FE2FDF
S1133EF027D0660F771F881FBB1F26173707480771
S1133F00AB07B0E809F0BB0B802DBF01FF27935826
S1133F105F4F2AF09E3F510568F0B6C000C15F3F75
S1133F20ECF3983EDCF3869577956795B795F7950E
S1133F309F5FC9F7880F911D9695879597F9089506
S1133F40E1E0660F771F881FBB1F621773078407A2
S1133F50BA0720F0621B730B840BBA0BEE1F88F7B1
S1133F60E095089504D06894B111D9C00895BCD0E7
S1133F7088F09F5790F0B92F9927B751A0F0D1F04E
S1133F80660F771F881F991F1AF0BA95C9F712C0D8
S1133F90B13081F0C3D0B1E00895C0C0672F782F4D
S1133FA08827B85F39F0B93FCCF386957795679544
S1133FB0B395D9F73EF490958095709561957F4FB0
S1133FC08F4F9F4F0895E89409C097FB3EF4909556
S1133FD08095709561957F4F8F4F9F4F9923A9F0DE
S1133FE0F92F96E9BB279395F6958795779567956D
S1133FF0B795F111F8CFFAF4BB0F11F460FF1BC0B1
S11340006F5F7F4F8F4F9F4F16C0882311F096E943
S113401011C0772321F09EE8872F762F05C06623F1
S113402071F096E8862F70E060E02AF09A95660FAA
S1134030771F881FDAF7880F9695879597F9089563
S1134040990F0008550FAA0BE0E8FEEF16161706A5
S1134050E807F907C0F012161306E407F50798F00D
S1134060621B730B840B950B39F40A2661F0232B26
S1134070242B252B21F408950A2609F4A140A695A2
S11340808FEF811D811D089597F99F6780E870E087
S113409060E008959FEF80EC089500240A941616BA
S11340A0170618060906089500240A941216130622
S11340B0140605060895092E0394000C11F48823B0
S11340C052F0BB0F40F4BF2B11F460FF04C06F5FCC
S11340D07F4F8F4F9F4F089557FD9058440F551FA2
S11340E059F05F3F71F04795880F97FB991F61F076
S11340F09F3F79F087950895121613061406551FED
S1134100F2CF4695F1DF08C0161617061806991F58
S1134110F1CF86957105610508940895E894BB274D
S113412066277727CB0197F908950BD0C4CFB5DF65
S113413028F0BADF18F0952309F0A6CFABCF1124ED
S1134140EECFCADFA0F3959FD1F3950F50E0551F32
S1134150629FF001729FBB27F00DB11D639FAA27D8
S1134160F00DB11DAA1F649F6627B00DA11D661F27
S1134170829F2227B00DA11D621F739FB00DA11D48
S1134180621F839FA00D611D221F749F3327A00D02
S1134190611D231F849F600D211D822F762F6A2F9E
S11341A011249F5750408AF0E1F088234AF0EE0F23
S11341B0FF1FBB1F661F771F881F91505040A9F730
S11341C09E3F510570F060CFAACF5F3FECF3983E5D
S11341D0DCF3869577956795B795F795E7959F5F97
S11341E0C1F7FE2B880F911D9695879597F9089531
S11341F0991B79E004C0991F961708F0961B881F35
S11342007A95C9F780950895AA1BBB1B51E107C095
S1134210AA1FBB1FA617B70710F0A61BB70B881F52
S1134220991F5A95A9F780959095BC01CD010895E1
S1134230EE0FFF1F0024001C0BBE0790F691E02D2B
S11342400994FB01DC0101900D920020E1F708952F
S1134250BB274A3031F4992322F4BDE2909581952D
S11342609F4F01C0BB27FB015527AA27880F991F21
S1134270AA1FA41710F0A41B83955051B9F7A05D91
S1134280AA3308F0A95DA193009779F7B111B1930E
S11342901192CB0100C0DC01FC01672F71917723DF
S11342A0E1F7329704C07C916D9370836291AE17ED
S11342B0BF07C8F30895E199FECF9FBB8EBBE09A78
S11342C099278DB30895A8E1B0E042E050E012C010
S11342D0262FE199FECF9FBB8EBB2DBB0FB6F89462
S11342E0E29AE19A0FBE01960895F2DF272FF1CFEB
S11342F0DC01CB01FC01E199FECF06C0FFBBEEBBA4
S1134300E09A31960DB20D9241505040B8F708959D
S1074310F894FFCF4B
S1134314E022020082010A0A1F1F0E060C180E1165
S113432411111111111F0E111111111F1F1F0E1143
S1134334111F1F1F1F1F0E111F1F1F1F1F1F0E1FC3
S11343441F1F1F1F1F1F0A0A1F1F0E060C18454597
S113435450524F4D2046554C4C20202020202020E4
S113436420002D3E003030003A2D00446174653D38
S11343740054726F6F6D3D0020546F75743D0020BE
S113438446414E4D4F44453D002046414E5F414C0D
S113439441524D3D002046696C7465725F4A616DFB
S11343A43D00204241545F564F4C544147453D0023
S11343B456002054696D653D004461746120536561
S11343C46E64696E6720537461727473004E4F2077
S11343D4534156454420454550524F4D2044415481
S11343E441004269736D696C6C61686972202020B4
S11343F4202020202020005261686D616E697220A3
S1134404526168696D2020202020200042414E47DB
S11344144C414C494E4B204643552056343030379A
S1134424005049434F504F57455220544543484E3A
S11344344F4C4F475900526F6D543A0043200020AB
S1134444546F75543A00430020566F6C7420002056
S11344544C6F7720766F6C742020002052504D3AB4
S11344640046414E203A0044656C61792020004F97
S11344746666202020200052455354202020004FFB
S11344846E2020202020004641554C542020005307
S11344946563202020004461746120457261736562
S11344A4640020202F002F20202F3230002F2020C2
S11344B42020003A20203A003A2020004D656E75F1
S11344C4204974656D2053656C656374696F6E204F
S11344D4200046414E2053544152542054454D50DB
S11344E43E3D004D41582053504545442054454DCC
S11344F4503E3D0046414E2053544F502054454DA8
S113450450203C0046414E2052554E54494D453AA4
S11345140046414E5245535454494D453A0045438F
S11345245452454D452054454D50455241545552DD
S1134534453E0046414E20444953434F4E4E454365
S11345445420564F4C543C004441544120494E5449
S1134554455256414C3D00444F574E4C4F41442024
S113456444415441202020202020200054494D451A
S11345743A2000444154453A200052504D204F46BD
S1134584463A200046414E205245434F4E4E454341
S11345945420564F4C543C2000202020202020201E
S11345A420202020202020202020202020005072A1
S11345B46573732055503D59657320446F776E3D80
S11345C44E6F004D696E200020202E2000566F6C23
S11345D474005B4F46465D2E2E2E2E2020005B4F2A
S11345E44E5D2E2E2E2E2E2020005B2020205D20BA
S11345F42020202020005570646174696E67204D6A
S1134604656E752E2E2E2E2E2E2E0053686F772057
S113461444617461204F6E205043202020202000E8
S11346245570646174696E67204D656E75204552DA
S1134634524F520050726F76696465207468652025
S113464450617373776F72642000507265737320C2
S11346544F6B20746F20456E7465722020202000F7
S113466450617373776F72643A5B005D002A2A2A7F
S11346744D656E7520454E442A2A2A0044617465AA
S11346843A0054696D653A005361766520496E7445
S1134694657276616C3A0053617665642044617492
S11346A4613A0046756C6C0021212121212043418B
S11346B455544F4E20212121212120200046697286
S11346C46520416C61726D20416C6C204F4646201C
S11346D4200053656E736F7220436865636B2E2EDE
S11346E42E2020202020004269736D6E696C6C6159
S11346F4686972205261686D616E697220526168E2
S1134704696D200D0A004643552042616E676C6151
S11147146C696E6B56312E3031200D0A000098
S9030000FC
