:1000000052C000006FC000006DC000006BC0000057
:1000100069C0000067C0000065C0000063C0000048
:100020000C947C0C5FC000005DC000005BC0000051
:1000300059C0000057C0000055C0000053C0000068
:100040000C949A0C4FC000004DC000004BC0000043
:1000500049C0000047C0000045C0000043C0000088
:1000600041C000003FC000003DC000003BC0000098
:1000700039C0000037C0000035C0000033C00000A8
:1000800031C000002FC000002DC00000A919AD191B
:10009000B119B519B919BD19C119C519C919CD19A0
:1000A000D119D519D91911241FBECFEFD0E1DEBF68
:1000B000CDBF15E0A0E0B1E0E4E1F3E400E00BBF68
:1000C00002C007900D92A630B107D9F726E0A6E04E
:1000D000B5E001C01D92AB3BB207E1F70E94E01D05
:1000E0000C9488218DCFBF9A8FEF83BD85B5806238
:1000F00085BD85B5886485BD85B5826085BD08955B
:1001000013BCBF980895DA988BB38BBBD8988FEC4B
:1001100097E00197F1F700C00000D29A8AB38ABB3A
:10012000D09A8FEC97E00197F1F700C000008FECB8
:1001300097E00197F1F700C000000895EFE9FFE0B4
:100140003197F1F700C00000DA989BB39BBBD89AB7
:100150009AB3906F9ABB9BB39F70282F207F922BEE
:100160009BBBD898D89A2BB32F70F0E18F9FC0011A
:100170001124822B8BBBD8980895EFECF7E03197D0
:10018000F1F700C0000000000000000000000000C7
:100190000000DA9A9BB39BBBD89A000000000000D5
:1001A0009AB3906F9ABB9BB39F70282F207F922B9E
:1001B0009BBB000000000000D89800000000000079
:1001C000D89A0000000000002BB32F70F0E18F9F41
:1001D000C0011124822B8BBB000000000000D898C6
:1001E00000000000000008958FEC97E00197F1F700
:1001F00000C0000088DF80E0A1DF8FEC97E001976E
:10020000F1F700C0000088E299DF81E097DF9FEFFF
:1002100020E782E0915020408040E1F700C00000DC
:100220008FEC97E00197F1F700C0000086E086DFD1
:100230008FEC97E00197F1F700C000008CE07EDFC3
:100240008FEC97E00197F1F700C000008FEC97E08A
:100250000197F1F700C000008FEC97E00197F1F7EC
:1002600000C00000089581E069CF0F931F93CF93E2
:10027000DF93009751F0EC018C01060F111DC017A0
:10028000D10719F0899179DFFACFDF91CF911F91D2
:100290000F910895A8959FE088E10FB6F894A8956E
:1002A00081BD0FBE91BD2FEF89E698E121508040BE
:1002B0009040E1F700C00000A8959FE088E10FB6EC
:1002C000F894A89581BD0FBE91BD2FEF89E698E106
:1002D000215080409040E1F700C00000A8959FE0C9
:1002E00088E10FB6F894A89581BD0FBE91BD2FEFA0
:1002F00089E698E1215080409040E1F700C000007D
:10030000A8959FE088E10FB6F894A89581BD0FBE2F
:1003100091BD2FEF89E698E1215080409040E1F7B0
:1003200000C00000A0CF80E487B986B1876086B99D
:1003300086B1806A86B9089585E487B98FE19EE425
:100340000197F1F700C0000064B175B1072E000CF1
:10035000880B990B0E94E51F2BEF3AE340E75DE322
:100360000E9495209B01AC0160935805709359053C
:1003700080935A0590935B0580914E0590914F05AF
:100380008A309105C0F4019690934F0580934E05F5
:1003900060915405709155058091560590915705CF
:1003A0000E94E21E60935405709355058093560594
:1003B0009093570508950A9711F510924F051092E2
:1003C0004E0520E030E040E251E460915405709128
:1003D000550580915605909157050E944A1F6093DC
:1003E00050057093510580935205909353051092D8
:1003F0005405109255051092560510925705089510
:1004000087E487B98FE19EE40197F1F700C000000F
:1004100024B135B130934D0520934C0540914A05E8
:1004200050914B0580914805909149054A305105FE
:1004300068F44F5F5F4F50934B0540934A05280F78
:10044000391F3093490520934805089510924B05B4
:1004500010924A056AE070E00E94042170934705FB
:100460006093460510924905109248050895CF9370
:10047000DF93EC010A9720F461E086E591E0F5DE78
:100480004AE06FEA76E0CE010E942821EFEAF6E02A
:1004900001900020E9F73197BF016F5A76408FEA4B
:1004A00096E0DF91CF91E1CECF92DF92EF92FF9273
:1004B0000F931F93CF93DF93CDB7DEB72A970FB675
:1004C000F894DEBF0FBECDBF7C01892B21F461E023
:1004D00086E591E0CADE4AE08E010F5F1F4FB8014A
:1004E000C7010E9428218AE0E816F10478F461E04F
:1004F00086E591E0BADEF80101900020E9F7319736
:10050000BF01601B710BC801B0DE1EC0F801019075
:100510000020E9F731977F01E01AF10ACC24C39457
:10052000D12CC7018C199D0997FD0EC0F80181914E
:100530008F0123DEF2E0CF16D10411F48EE21DDE2E
:100540008FEFC81AD80AEDCF2A960FB6F894DEBFFF
:100550000FBECDBFDF91CF911F910F91FF90EF9014
:10056000DF90CF9008951C98149A8FEB93E0019739
:10057000F1F700C000009FB7F8941498E0EBEA95FB
:10058000F1F781B19FBFEBE3F3E03197F1F700C0E2
:1005900000000C9B02C08071089581E008959FB710
:1005A000F894149A22E02A95F1F700C0811114986A
:1005B00025E22A95F1F700000C9B80E028E72A95B8
:1005C000F1F714989FBF0895CF93DF93C82FD8E019
:1005D0008C2F8170E4DFC6958111C068D150C1F7BE
:1005E0008C2FDF91CF9108958FEFEECFFF920F9375
:1005F0001F93CF93DF93082FB6DF81111FC080EFC9
:10060000E3DFD0E0C0E488EFF82EFC0E81E0C7DF26
:10061000182F81E0C4DF882319F0112339F010C0AE
:10062000111104C00C1711F0DC2F11E0812FB7DF7E
:10063000C150CF11EBCF39F78D2F03C08FEF01C021
:100640008EEFDF91CF911F910F91FF900895CF937F
:10065000C82F89DF8CECB8DF8C2FCF91B5CFCF932B
:10066000DF93EC018881C2DF888381508D3FD0F316
:10067000DF91CF910895EF92FF921F93CF93DF9375
:10068000CDB7DEB729970FB6F894DEBF0FBECDBF4A
:100690008FEF898787E8E82E86E0F82E10E08985BD
:1006A0008823D9F01530C9F0CE010996D8DF8985A5
:1006B0008E5F823090F0FE01319680E090E02191D3
:1006C000D701A80FB91F2C93019688309105B9F76F
:1006D0001F5F88E0E80EF11CE2CF812F29960FB64C
:1006E000F894DEBF0FBECDBFDF91CF911F91FF9079
:1006F000EF90089538DF0C9B06C08CECA8DF84E4F3
:10070000A6DF80E0089508950F931F93CF93DF93A2
:10071000C0918B05D0918C058CEC99DF8EEB97DF27
:1007200063DF182F61DF082F1EDF882351F08091CF
:1007300045058F5F853108F089E18093450560E0CC
:1007400011C0612F70E0702B80E090E00E94E31FE9
:1007500020E030E040E85DE30E9495200E94B71F52
:100760001092450520916A0580917205909173055C
:100770002A3050F4860F911D909373058093720573
:100780002F5F20936A050EC010926A056AE070E040
:100790000E94042170938C0560938B051092730561
:1007A0001092720580918B0590918C058739910587
:1007B00028F0DD27D0938C05C0938B0580918B05A5
:1007C00090918C05039720F410928C0510928B0564
:1007D00080E0DF91CF911F910F9108951A98129A9E
:1007E0008FEB93E00197F1F700C000009FB7F894FA
:1007F0001298E0EBEA95F1F781B19FBFEBE3F3E0EC
:100800003197F1F700C000000A9B02C08470089580
:1008100081E008959FB7F894129A22E02A95F1F7A3
:1008200000C08111129825E22A95F1F700000A9B79
:1008300080E028E72A95F1F712989FBF0895CF939B
:10084000DF93C82FD8E08C2F8170E4DFC69581112B
:10085000C068D150C1F78C2FDF91CF9108958FEFF1
:10086000EECFFF920F931F93CF93DF93082FB6DF46
:1008700081111FC080EFE3DFD0E0C0E488EFF82EE5
:10088000FC0E81E0C7DF182F81E0C4DF882319F058
:10089000112339F010C0111104C00C1711F0DC2F16
:1008A00011E0812F7CDEC150CF11EBCF39F78D2FB6
:1008B00003C08FEF01C08EEFDF91CF911F910F9199
:1008C000FF900895CF93C82F89DF8CECB8DF8C2F71
:1008D000CF91B5CFCF93DF93EC018881C2DF8883BE
:1008E00081508D3FD0F3DF91CF910895EF92FF9229
:1008F0001F93CF93DF93CDB7DEB729970FB6F89448
:10090000DEBF0FBECDBF8FEF898787E8E82E86E078
:10091000F82E10E089858823D9F01530C9F0CE0172
:100920000996D8DF89858E5F823090F0FE0131967E
:1009300080E090E02191D701A80FB91F2C93019678
:1009400088309105B9F71F5F88E0E80EF11CE2CF0F
:10095000812F29960FB6F894DEBF0FBECDBFDF9171
:10096000CF911F91FF90EF90089538DF0A9B06C04A
:100970008CECA8DF84E4A6DF80E0089508950F934F
:100980001F93CF93DF93C0918D05D0918E058CEC92
:1009900099DF8EEB97DF63DF182F61DF082F1EDFF3
:1009A000882351F0809144058F5F853108F089E1FB
:1009B0008093440560E011C0612F70E0702B80E0EF
:1009C00090E00E94E31F20E030E040E85DE30E94F9
:1009D00095200E94B71F1092440520916B058091CD
:1009E0007405909175052A3050F4860F911D9093EF
:1009F0007505809374052F5F20936B050EC01092D0
:100A00006B056AE070E00E94042170938E0560938C
:100A10008D05109275051092740580918D05909149
:100A20008E058739910528F0DD27D0938E05C09378
:100A30008D0580918D0590918E05039720F410927D
:100A40008E0510928D0580E0DF91CF911F910F915F
:100A50000895E4E7F0E0108282E18093700081E085
:100A6000809371001092720084E48083A8950895A9
:100A700085E080937000E1E7F0E080818C7F8083E7
:100A8000A895089534EA40EA54E830937400209120
:100A9000740027FFFCCF20917100287F283011F0CF
:100AA00080E0089540937300509374002091740087
:100AB00027FFFCCF20917100287F283131F79093D8
:100AC000730094E8909374009091740097FFFCCFAA
:100AD00090917100987F983219F78093730084E8A1
:100AE000809374008091740087FFFCCF8091710027
:100AF000887F8832A9F66093730084E8809374003D
:100B00008091740087FFFCCF80917100887F8832CC
:100B100039F684E9809374008091740084FDFCCFE1
:100B20008FEB9DE50197F1F700C0000081E008958B
:100B300034EA40EA54E8309374002091740027FFAF
:100B4000FCCF20917100287F283011F080E00895BB
:100B500040937300509374002091740027FFFCCFE2
:100B600020917100287F283131F79093730094E829
:100B7000909374009091740097FFFCCF9091710056
:100B8000987F983219F78093730084E880937400FB
:100B90008091740087FFFCCF80917100887F88323C
:100BA000A9F684EA809374008091740087FFFCCFDB
:100BB00080917100887F803149F681EA80937300CB
:100BC00084E8809374008091740087FFFCCF80914B
:100BD0007100887F803409F0B9CF84E88093740075
:100BE0008091740087FFFCCF80917100887F8835E9
:100BF00009F0ACCF8091730094E9909374009091C8
:100C0000740094FDFCCF089584EA80937400809171
:100C1000740087FFFCCF90917100987F81E098303D
:100C200009F480E0089584EA809374008091740050
:100C300087FFFCCF90917100987F81E0903109F49B
:100C400080E0089580FF02C020E401C028E1809385
:100C5000730084E8809374008091740087FFFCCF58
:100C600090917100987F81E0921301C080E0089517
:100C70008093730084E8809374008091740087FFF0
:100C8000FCCF90917100987F81E0983209F480E068
:100C9000089584EC809374008091740087FFFCCFEA
:100CA00080917100887F803519F4809173000895D8
:100CB0008EE7089584E8809374008091740087FF24
:100CC000FCCF80917100887F883519F48091730082
:100CD00008958EE70895E7ECF5E0ADE6B6E01696E8
:100CE0008C911697877020E1829FC001112417967E
:100CF0009C9117979F70892B808313968C911397E3
:100D0000877020E1829FC001112414969C91149752
:100D10009F70892B81838C91837020E1829FC00119
:100D2000112411969C919F70892B8283ABE7B6E0CA
:100D30001A968C911A9783838C91837020E1829FFD
:100D4000C001112411969C9111979F70892B848367
:100D500013968C911397282F217030E084E0220F96
:100D6000331F8A95E1F714968C9114978F70282B76
:100D7000258318968C91189720E1829FC001112439
:100D800019969C919F70892B868308950F931F93CA
:100D9000CF933ADF813019F180ED54DF8130F9F0E3
:100DA00080E066DF8130D9F03EDF8130C1F081ED37
:100DB00049DF8130A1F007EC15E0C0E06ADF8E3733
:100DC00019F480E8BBD90BC0F80181938F01CF5F84
:100DD000C630A1F76FDF8E37A1F38093CD0584E98C
:100DE00080937400CF911F910F910895CFDFA7ECEE
:100DF000B5E08C91EDE6F6E0982F9F7090639783B5
:100E0000807782958F70806386832AE3258311968D
:100E10008C911197982F9F7090639483807782951F
:100E20008F7080638383228312968C91982F9F709A
:100E300090639183807382958F708063808308951F
:100E4000A5DFEBE7F6E080E28387A7ECB5E0169636
:100E50008C911697982F9F709063918782958F70D1
:100E60008063808780E3878382E386832FE2258304
:100E700015968C911597982F9F7090639483829507
:100E8000817080638383228314968C91982F9F7046
:100E900090639183807382958F70806380830895BF
:100EA000D8DDA4DFEDE6F6E08681880F8056982F26
:100EB000990F990F890F97819053890F80930F0590
:100EC0008381880F8056982F990F990F890F9481ED
:100ED0009053890F80930E058081880F8056982F3C
:100EE000990F990F890F91819053890F80930D0568
:100EF000A7DFEBE7F6E08081880F8056982F990FE7
:100F0000990F890F91819053890F80930B058381ED
:100F1000880F8056982F990F990F890F94819053BD
:100F2000890F80930C058085880F8056982F990F24
:100F3000990F890F91859053890F80930A05089521
:100F4000CF93DF9361DE8130B9F080ED7BDE8130BD
:100F500099F080E08DDE813079F0C7ECD5E08991A1
:100F600087DE813049F085E0CA3CD807C1F784E9C3
:100F70008093740080E004C084E98093740081E071
:100F8000DF91CF910895CF93DF933EDE813071F0F2
:100F900080ED58DE813051F083E06ADE813031F03F
:100FA000CAECD5E0899164DE813039F480E8C6D896
:100FB00084E98093740081E008C085E0CE3CD807C6
:100FC00089F784E98093740080E0DF91CF910895E0
:100FD00082DEB6DF48D980E8B1C80F931F93CF9364
:100FE000DF938B01EA01EDE6F6E02AE030E0B9019B
:100FF0000E940421605D6083805D81834AE34283B7
:10100000C801B9010E940421605D6383805D84830F
:101010004583CE01B9010E940421605D6683805D35
:101020008783DF91CF911F910F91089554DEABDF3D
:101030001AD980E883C80F931F93CF93DF938B0156
:10104000EA01EBE7F6E02AE030E0B9010E94042172
:10105000605D6083805D81834FE24283C801B90196
:101060000E940421605D6383805D8483458382E305
:10107000868380E38783CE01B9010E940421605DED
:101080006087805D8187DF91CF911F910F910895D7
:101090005D9BFECF8CB908950F931F93CF93DF9381
:1010A000FC0101900020E9F73197CE2FC81BD82F03
:1010B0008C01802F8D1B8C1728F4F80181918F01F2
:1010C000E7DFF7CFDF91CF911F910F9108959093B4
:1010D000900089B988E08AB986E080939500119ADA
:1010E00008954F925F926F927F928F929F92AF92EC
:1010F000BF92CF92DF92EF92FF920F931F93CF9305
:10110000DF93CDB7DEB72A970FB6F894DEBF0FBED8
:10111000CDBF5C0180E389838A838B838C838D833D
:101120008E83CE0101967C01A114B10429F480E3E1
:10113000AFDF00E010E025C03C01650100E010E0F9
:101140008AE0882E912CC601B4010E9404212B0153
:10115000BC0180E090E00E94E31F620120E030E0EB
:1011600040E452E40E94E21E0E94B21FF301619328
:101170003F010F5F1F4F452831F7FAE0AF16B1046A
:1011800060F480E385DF0E0D1F1D0E151F0579F03D
:10119000F80182918F017CDFF8CF0E0D1F1D0E1517
:1011A0001F0529F0F80182918F0172DFF8CF2A968E
:1011B0000FB6F894DEBF0FBECDBFDF91CF911F9168
:1011C0000F91FF90EF90DF90CF90BF90AF909F90E6
:1011D0008F907F906F905F904F9008958DE058DFD3
:1011E0008AE056CFCF92DF92EF92FF920F931F9338
:1011F000CF93DF93CDB7DEB72A970FB6F894DEBF53
:101200000FBECDBF7C01892B19F486E591E040DF4C
:101210004AE08E010F5F1F4FB801C7010E942821CD
:101220008AE0E816F104B0F486E591E031DFF801D8
:1012300001900020E9F7CF0101977C01F1E0EF1A5E
:10124000F108C701801B910B97FD22C0F701808137
:101250001FDFF4CFF80101900020E9F731977F01FB
:10126000E01AF10ACC24C394D12CC7018C199D0932
:1012700097FD0EC0F80181918F010ADFF2E0CF16D1
:10128000D10411F48EE204DF8FEFC81AD80AEDCF33
:101290002A960FB6F894DEBF0FBECDBFDF91CF9177
:1012A0001F910F91FF90EF90DF90CF900895EEE1A6
:1012B000F6E0608371830895109207051092060589
:1012C000FC01618170E07093070560930605762F3D
:1012D00066278081682B709307056093060580E080
:1012E00090E00895CF93C92F682F89EF91E00E9475
:1012F00068216C2F8AEF91E0CF910C946821CF93F5
:10130000C92F682F8BEF91E00E9468216C2F8CEF22
:1013100091E0CF910C9468210F931F93CF9389EFA5
:1013200091E00E945B21C82F8AEF91E00E945B212F
:101330004C2F50E060E070E08A019B01182BD9012E
:10134000C801CF911F910F9108950F931F93CF93D1
:101350008BEF91E00E945B21C82F8CEF91E00E94FF
:101360005B214C2F50E060E070E08A019B01182B5C
:10137000D901C801CF911F910F910895CF92DF92AB
:10138000EF92FF92CF93DF93C7DFEC018CE08C9F4D
:1013900060018D9FD00C1124E12CF12C20E030E075
:1013A00040E251E4609150057091510580915205E1
:1013B000909153050E9495200E94B71F78DFB701D6
:1013C000A601445F5F4F6F4F7F4F80910001909166
:1013D0000101A0910201B091030184179507A607AE
:1013E000B707C8F40E94330184ED0E949E0064E1B7
:1013F0008EE391E00E94350161E088E990E00E946F
:10140000682180E090E06EDFCE0179DFC12CD12C25
:101410007601C0E0D0E08FE19EE40197F1F700C0D3
:10142000000060910B05C6012DDB8FE19EE4019762
:10143000F1F700C00000C601019660910C0522DBA7
:101440008FE19EE40197F1F700C00000C60102960B
:1014500060910A0517DB8FE19EE40197F1F700C068
:101460000000C601039660910D050CDB8FE19EE440
:101470000197F1F700C00000C601049660910E05C7
:1014800001DB8FE19EE40197F1F700C00000C60187
:10149000059660918D05F6DA8FE19EE40197F1F7EC
:1014A00000C00000C601069660918B05EBDA8FE163
:1014B0009EE40197F1F700C00000C6010796609115
:1014C0006E05E0DA8FE19EE40197F1F700C00000BD
:1014D000C601089660915E05D5DA8FE19EE401971A
:1014E000F1F700C00000C601099660912E05CADA26
:1014F0008FE19EE40197F1F700C00000C6010A9653
:1015000060911E06BFDA8FE19EE40197F1F700C0FB
:101510000000C6010B9660911F06B4DA8FE19EE4CD
:101520000197F1F700C00000CE010196DF91CF9145
:10153000FF90EF90DF90CF90D5CEB2DC80910E057A
:10154000609114050E94F820911113C080910F053D
:1015500081110FC080910501813059F489DA0EDFC5
:1015600082E08093050175DAD7DE909313058093AE
:10157000120580910F05813011F4809305010895C3
:101580007F928F929F92AF92BF92CF92DF92EF9213
:10159000FF920F931F93CF93DF938B01D82FC92F07
:1015A0008091080590910905019690930905809313
:1015B000080582E591E070DD8091080590910905AC
:1015C0008536910530F0883E934030F486E591E011
:1015D00002C085E591E060DD8091080590910905E4
:1015E00080DD88E591E058DD8BE591E055DD40DA5E
:1015F0006801ED2EFC2EC0E0D0E0460157018CE0E2
:10160000880E911CA11CB11C08E18FE0782EC81433
:10161000D904EA04FB0408F06BC02196C60188DAFD
:10162000182FC630D1053CF490E05BDDC130D10508
:1016300009F03BC03DC0C630D10519F481E691E008
:1016400017C0C730D10519F488E691E011C0C83041
:10165000D10519F48FE691E00BC0C930D10519F41A
:1016600089E791E005C0CA30D10539F485E891E0F9
:1016700013DD812F90E035DD2EC0CB30D10529F46C
:1016800080931E0682E991E01AC0CC30D10591F416
:1016900080931F068EE196E00FDE80910605909103
:1016A0000705A0DD80EA91E00AC0C230D10511F43F
:1016B0008DE210C0C330D10521F482EA91E0ECDC68
:1016C0000AC0C430D10511F48AE304C0C530D10585
:1016D00011F480E2DDDCA8950FB6F894A89501BD61
:1016E0000FBE71BC9FEFC91AD90AE90AF90A8FCF58
:1016F000B0D974DD2FEF80E792E021508040904018
:10170000E1F700C00000A8959FE088E10FB6F894CB
:10171000A89581BD0FBE91BDDF91CF911F910F9113
:10172000FF90EF90DF90CF90BF90AF909F908F9001
:101730007F900895AF92BF92CF92DF92EF92FF9287
:101740000F931F93CF93DF93E7DDEC011D9846DDE8
:1017500089EA91E0A1DC1092090510920805209712
:1017600021F48DEB91E098DC73C088E990E00E9451
:101770005B21813009F04AC0E8DDEC012FDDCCDDD2
:101780008C018CE0809F6001819FD00C1124E12CA2
:10179000F12C48E1B42E5FE0A52E8CE0E81AF108A8
:1017A0000115110581F0A8950FB6F894A895B1BC64
:1017B0000FBEA1BCB7016C0D7D1D80E090E0E0DEA6
:1017C00001501109EACFA8DD7C018CE08C9F6001FB
:1017D0008D9FD00C112400E010E028E1B22E3FE0F4
:1017E000A32E0C501109CE15DF0509F431C0A895C0
:1017F0000FB6F894A895B1BC0FBEA1BCB601600F9E
:10180000711F80E090E0BCDE2197EBCFE7DC8CE03D
:101810008C9F70018D9FF00C112400E010E088E196
:10182000D82E9FE0C92E8CE0E81AF108A8950FB6D3
:10183000F894A895D1BC0FBEC1BCB701600F711F51
:1018400080E090E09DDE21970C501109209771F700
:101850001D9ADF91CF911F910F91FF90EF90DF9034
:10186000CF90BF90AF900895809142058F5F809395
:1018700042058C3380F0809141058F5F8093410554
:10188000109242058C3338F0809143058F5F80932E
:10189000430510924105089580913D058F5F809327
:1018A0003D058C3380F080913C058F5F80933C0533
:1018B00010923D058C3338F080913E058F5F809308
:1018C0003E0510923C05089580913A058F5F809304
:1018D0003A058C3380F0809139058F5F809339050C
:1018E00010923A058C3338F080913B058F5F8093DE
:1018F0003B051092390508951F920F920FB60F9273
:1019000011248F939F9380912A0590912B05019626
:1019100090932B0580932A059F918F910F900FBE76
:101920000F901F90189587B7816087BF83B783603A
:1019300083BF08951F920F920FB60F9211240BB61A
:101940000F922F933F934F935F936F937F938F9358
:101950009F93AF93BF93EF93FF9380911005909166
:10196000110501969093110580931005843F9140D5
:1019700020F480916200826003C0809162008D7FBC
:10198000809362008091A205813240F01092A205FE
:1019900065E075E085EF95E00E9421218091A20528
:1019A0008823C9F080911605909117050196853618
:1019B000910528F490931705809316050CC010929A
:1019C0001705109216051092A20565E075E085EFE7
:1019D00095E00E94212180919B0590919C050197A3
:1019E000D9F48091990590919A050196893B2BE055
:1019F000920728F490939A058093990504C0109259
:101A00009A0510929905D99A8091990590919A0515
:101A10008536910508F0D9988091100590911105AF
:101A2000813D934008F4A8C080912F05813049F48E
:101A3000809168059091690501969093690580935E
:101A4000680580916E05813021F08091820581309A
:101A5000D9F422DF80912A0590912B0590932905D6
:101A60008093280510922B0510922A058091350548
:101A70008F5F8D3318F48093350506C08CE3809317
:101A8000350581E0809336059091800521E08091B5
:101A90006F05813009F020E081E03091810531301F
:101AA00009F080E0822B11F49130D9F48091340553
:101AB000813051F4809126059091270501969093ED
:101AC0002705809326050DC0911102C0FDDE09C0D7
:101AD000809178059091790501969093790580938E
:101AE0007805C2DE109211051092100580915E05F6
:101AF00090915F05019751F4809133058F5F853098
:101B000018F48093330502C0109233058091970535
:101B10009091980501969093980580939705883742
:101B2000910531F40E94F4001092980510929705E7
:101B30008091A005813071F480919F058F5F809323
:101B40009F058B3530F093981092A00510929F0559
:101B500001C0939A809118069091190601968F35CD
:101B600021E0920728F4909319068093180604C088
:101B70001092190610921806FF91EF91BF91AF9144
:101B80009F918F917F916F915F914F913F912F9195
:101B90000F900BBE0F900FBE0F901F901895809165
:101BA0003E0590E00E94370261E086EA92E00E94E2
:101BB000350180913C0590E00E94370261E086EAA1
:101BC00092E00E94350180913D0590E00C9437022F
:101BD000179883B193B18068892B83B98AB78068DD
:101BE0008ABF89B7806889BF0895CF92DF92EF924C
:101BF000FF920F931F93CF93DF93CDB7DEB7E89794
:101C00000FB6F894DEBF0FBECDBF88E3E6E0F1E08B
:101C1000DE01119601900D928A95E1F780E40E9411
:101C20009E008E010F5F1F4F7E0189E3E80EF11CBD
:101C300088E1D82E9FE0C92EF80181918F010E9482
:101C4000BD00A8950FB6F894A895D1BC0FBEC1BC35
:101C50000E151F0589F7E8960FB6F894DEBF0FBE84
:101C6000CDBFDF91CF911F910F91FF90EF90DF904B
:101C7000CF90089553B343B333B323B3852F81700B
:101C800090E04270840F911D3870830F911D207277
:101C9000820F911D039709F080C0C69A2FEF34E39D
:101CA0004CE0215030404040E1F700C00000C698B1
:101CB000A89588E19FE00FB6F894A89581BD0FBE66
:101CC00091BDC59A2FEF34E34CE0215030404040A5
:101CD000E1F700C00000C598A8950FB6F894A89544
:101CE00081BD0FBE91BDC29A2FEF34E34CE021506D
:101CF00030404040E1F700C00000C298A8950FB600
:101D0000F894A89581BD0FBE91BDC09A2FEF34E322
:101D10004CE0215030404040E1F700C00000C09846
:101D2000A8950FB6F894A89581BD0FBE91BD1E9AD7
:101D30002FEF34E34CE0215030404040E1F700C049
:101D400000001E98A8950FB6F894A89581BD0FBE07
:101D500091BDC49A2FEF34E34CE021503040404015
:101D6000E1F700C00000C498A8950FB6F894A895B4
:101D700081BD0FBE91BDDB9A2FEF30E742E02150CD
:101D800030404040E1F700C00000DB98A8950FB656
:101D9000F894A89581BD0FBE91BD089582B182B916
:101DA000E1E6F0E0808180838081808383B184617B
:101DB00083B98B9A8081808382B1806682B9808169
:101DC0008264808387B3856D87BB84B384BB85B30E
:101DD0008B6285BB1D9AD39A8BB38BBBA4E6B0E014
:101DE0008C9182608C938B9A9398A5E6B0E08C914D
:101DF00082608C93BF9AC598BD9AC598D19AD99A9A
:101E0000169A1E98BE9AC698808184608083E2E606
:101E1000F0E0808184608083BA9AC298B89AC098B2
:101E2000BC9AC4982FEF89E698E1215080409040F9
:101E3000E1F700C000000E94F4000E9493010E949C
:101E4000330180E80E949E0064E182ED91E00E94EF
:101E5000350180EC0E949E0064E187EE91E00E94D3
:101E6000350184E90E949E0064E18CEF91E00E94BC
:101E7000350184ED0E949E0064E181E192E00E94C0
:101E800035010E944A010E943301E2E2F6E081E05E
:101E9000808382E0838383E0868385E0818786E098
:101EA000828787E0838788E0848789E085878AE066
:101EB000868783E387878BE0828B8CE0858B8DE040
:101EC000808F8EE0838F8FE0848F80E1858F81E12A
:101ED000868F82E1878F83E180A384E181A385E1FE
:101EE00084A386E187A387E182A788E185A789E1AA
:101EF00080AB8AE183AB8BE186AB8CE18093640697
:101F00008DE184AF10DD64DE83E390E0E0D8789467
:101F10006CDE8BB38BBB0895CF93DF93C2E2D6E028
:101F2000888190E00E945B2180931F058B8190E067
:101F30000E945B2180938F058E8190E00E945B213F
:101F40008093A105898590E00E945B2180931D0507
:101F50008A8590E00E945B2180931C058B8590E030
:101F60000E945B2180931B058C8590E00E945B2181
:101F700080931A058D8590E00E945B21809319055E
:101F80008E8590E00E945B21809318058F8590E0FC
:101F90000E945B2180931E058CE291E00E946321E8
:101FA00090932305809322058CED90E00E9463219D
:101FB00090932105809320058D8990E00E945B21FC
:101FC0008093140589A190E00E945B2190E090939A
:101FD000960580939505DF91CF910895CF936091F9
:101FE000A10580911F05861740F46E5F60931F0561
:101FF0008091220690E00E94682180918F058333B2
:1020000048F060911F0560938F058091250690E050
:102010000E94682180911F05853648F08EE18093EB
:102020001F05809122066EE190E00E946821809158
:10203000A105853648F089E18093A10580912506A8
:1020400069E190E00E94682191E080911D0585364C
:1020500008F490E081E020911C05253608F480E02A
:10206000892B21F480911B058536D0F082E0809386
:102070001D058091280662E090E00E946821109280
:102080001C058091290660E090E00E9468218FE0A5
:1020900080931B0580912A066FE090E00E946821E2
:1020A00091E080911A05853608F490E081E0209156
:1020B0001905253608F480E0892B21F48091180554
:1020C0008536C8F010921A0580912B0660E090E0EA
:1020D0000E946821CFE0C093190580912C066FE023
:1020E00090E00E946821C093180580912D066FE052
:1020F00090E00E94682180911E05853648F08AE2B2
:1021000080931E0580912E066AE290E00E9468216D
:1021100080911405883348F08FE0809314058091F6
:1021200034066FE090E00E946821809195059091BF
:10213000960503976CF081E090E09093960580936C
:1021400095058091400661E090E0CF910C94682164
:10215000CF910895CF93DF93C2E2D6E088816EE1FC
:1021600090E00E9468218B8163E290E00E946821E8
:102170008E816CE190E00E946821898562E090E0A8
:102180000E9468218A8560E090E00E9468218B852A
:1021900060E090E00E9468218C8560E090E00E9401
:1021A00068218D856FE090E00E9468218E8560E057
:1021B00090E00E9468218F856AE290E00E94682189
:1021C0008D896FE090E00E94682189A161E090E034
:1021D0000E94682160EE71E08CE291E00E9475211E
:1021E0006AEE71E08CED90E0DF91CF910C94752157
:1021F00091E080912E05813009F090E081E02091FE
:102200003105213009F080E0892B91E020916C05A7
:10221000213009F090E0982B81E020919405213045
:1022200009F080E0892B31F480915E0590915F0583
:10223000019711F4C49A0895C4980895039B11C09E
:10224000809193058F5F809393058333C8F081E07D
:1022500080932E051092920588E7809393051E982F
:102260000895809192058F5F80939205853140F0AB
:1022700010922E051092930588E7809392051E9A7E
:102280000895809195059091960581309105D1F43E
:1022900020916E052130D1F420918205211116C0C4
:1022A00020913605213091F420915C0530915D0537
:1022B0002436310530F4C59A90935F0580935E050E
:1022C0000895C59810925F0510925E0508952091BB
:1022D0003C05822F65E00E94F820911116C0222350
:1022E000A1F080913D05811110C0809195059091DC
:1022F0009605019751F480915C0590915D058436B7
:10230000910518F481E08093A0050895CF93DF93A1
:1023100020911F0530E040918D0550918E05421BA4
:10232000530B64E6649FC001659F900D112460917A
:102330008F0570E0621B730B0E940421EB01CA56EB
:10234000DF4FC634D10538F0CF3FD10531F028F04A
:10235000CFEFD0E002C0C6E9D0E0C3BD80913C051C
:10236000823018F48091430581118BDF80913C0508
:10237000823020F480914305882331F0C73ED10597
:1023800018F0DF91CF915ACFDF91CF9108959091BE
:102390003D0580911B05981780F090913C05809138
:1023A0001C05981750F081E090E030913E05209197
:1023B0001D05321720F480E0089580E090E0089534
:1023C00090913D0580911805891780F490913C0506
:1023D00080911905981750F081E090E030913E050A
:1023E00020911A05321720F480E0089580E090E0F3
:1023F00008950E94730010923C0510923D051092C2
:102400003E0581E080936E0510923505C69A0895C9
:10241000C798C69810923C0510923D0510923E0553
:1024200081E0809382050E948000C7981092360553
:10243000109229051092280510929305109292058A
:102440001092250510922405089510926E051092A1
:1024500036051092250510922405C798D9DF1092F1
:102460008205109293051092920510923C051092ED
:102470003D0510923E0510922F05109269051092AD
:10248000680508958091A10590E020918D05309117
:102490008E0582179307A0F0BBDF10923C051092C7
:1024A0003D0510923E051092820510928005109213
:1024B000360510926E0510925F0510925E05089524
:1024C00066DF019709F4A4CF21CF20918D053091CB
:1024D0008E0580918B0590918C052817390738F06F
:1024E000109265051092640510926D05CBCF809116
:1024F0006405909165050196909365058093640548
:1025000087399105E0F010926E0510923605109211
:102510006F051092250510922405109293051092D4
:102520009205C79875DF1092820510923C051092B3
:102530003D0510923E0510926505109264050895C0
:1025400080918D0590918E0520911F0530E0281710
:10255000390708F080C020918B0530918C05281731
:10256000390780F54091310541112CC081E08093FD
:102570002F0510928005109279051092780510921F
:10258000390510923A0510923B05809168059091AB
:102590006905409708F45FC01092670510926605C0
:1025A00010922F0526DF80916805909169058B3F79
:1025B000910508F450C08EEC90E0909369058093EB
:1025C000680508958217930710F58091660590912C
:1025D00067050196909367058093660510922F0515
:1025E00085319105C0F1109269051092680510922D
:1025F0006F0510926E05109236058B3F910558F1CC
:102600008EEC90E090936705809366050895109294
:102610002F0510928005109279051092780510927E
:10262000390510923A0510923B05109269051092F7
:102630006805109263051092620510925F05109272
:102640005E0510922705109226051092340510920F
:102650006C051E98C598089580916E05811106C07D
:102660006FDF109265051092640508958130B9F509
:1026700080913105813091F4E8DE10926E05109260
:102680008205109236051092690510926805109225
:102690003C0510923D0510923E05089580918205FB
:1026A000811102C014DE11CF8BDE892BC1F0109294
:1026B0006E051092820510923605109269051092EF
:1026C000680510923C0510923D0510923E0510924F
:1026D00025051092240510929305109292050895F5
:1026E00065E086E292E00E94350180918D0590912F
:1026F0008E050E9437028FED0E94BD0062E08CE2E1
:1027000092E00E94350166E08FE292E00E9435017E
:1027100080918B0590918C050E9437028FED0E946D
:10272000BD0061E086E392E00C943501CF92DF9228
:10273000EF92FF92CF93DF9320E030E040E251E44C
:10274000609150057091510580915205909153050B
:102750000E9495200E94B71F6B017C01EB018091C4
:10276000220590912305C816D90610F481E00FC008
:102770009C012C5E3F4FC216D30610F482E007C0C6
:102780008896C816D90610F483E001C084E00E9440
:10279000BD008091220590912305C817D90700F547
:1027A000809130058F5F863018F48093300502C029
:1027B0001092300580913005833030F464E088E970
:1027C00093E00E94350103C0C6010E94540266E0F6
:1027D00088E392E00E9435016BE08FE392E035C020
:1027E000C6010E94540266E088E392E00E9435012F
:1027F0008091950590919605019721F565E08BE410
:1028000092E00E94350180915C0590915D058536CE
:10281000910538F0893E934048F461E086E591E007
:1028200003C062E085E591E00E94350180915C057E
:1028300090915D05DF91CF91FF90EF90DF90CF9069
:102840000C94370269E083E993E0DF91CF91FF9028
:10285000EF90DF90CF900C94350180E80E949E00AD
:1028600064E181E192E00E94350180EC0E949E00CB
:1028700037DF84E90E949E0065E081E592E00E94D6
:10288000350180915E0590915F05892B09F5809156
:102890006E05811110C080912F05813041F467E0F1
:1028A00087E592E01CC080916E05811104C067E04D
:1028B0008FE592E014C08130A1F48091820567E039
:1028C000813019F487E692E00AC08FE692E007C0F3
:1028D00080913305833038F767E087E792E00E9404
:1028E000350180912F05811102C059D90BC080910B
:1028F0006805909169050E94370266E08FE792E0D3
:102900000E94350184ED0E949E0010CFA8959FE0A3
:1029100088E10FB6F894A89581BD0FBE91BD369A97
:102920008FED9EE20197F1F700C000000E949C012C
:10293000369A369A8FED9EE20197F1F700C00000BB
:102940000E9400020E947A038FE99FE00197F1F74D
:1029500000C000000E9484030E94B5048FE99FE03C
:102960000197F1F700C000000C94BF04CF92DF92F2
:10297000EF92FF9220E030E040E251E46091500598
:102980007091510580915205909153050E949520B8
:102990006B017C01609122057091230580E090E03D
:1029A0000E94E31F9B01AC01C701B6010E94461FB4
:1029B00087FF1FC0809132058F5F853618F48093A2
:1029C000320539C089E68093320581E08093310574
:1029D000109238051092370580919B0590919C05C7
:1029E000892B49F581E090E090939C0580939B05AD
:1029F00022C080913705909138050196853823E0F3
:102A0000920728F4909338058093370514C089E81D
:102A100093E090933805809337051092310510921A
:102A2000320580919B0590919C05019721F41092AD
:102A30009C0510929B05FF90EF90DF90CF9008953A
:102A4000CF93DF9390918805911173C080918A058F
:102A50008F5F8E3008F081E080938A0580918A052F
:102A60008A3069F40E94500780910D058093860595
:102A700080910E058093840580910F050EC08B30E8
:102A800079F40E94500780910B0580938605809110
:102A90000C058093840580910A058093830561C0AD
:102AA00031E024EF280F223008F030E091E02AEFE7
:102AB000280F233008F090E0932BC82FD0E011F4BA
:102AC0008430F0F4873019F48CE291E004C08D304A
:102AD00041F48CED90E00E94632190936105809316
:102AE00060052197CE01880F991FC80FD91FCE5DB1
:102AF000D94F888190E00E945B218093860531C088
:102B00002197CE01880F991FC80FD91FCE5DD94FCD
:102B1000888190E00E945B2180938605898190E006
:102B20000E945B21809384058A8190E00E945B2152
:102B3000B4CF9130B1F4809186058F5F8093860584
:102B400020918A052C3021F4833010F09093860573
:102B50008091600590916105019690936105809345
:102B60006005DF91CF910895CF93DF939091880511
:102B7000911172C080918A05815009F48DE0809393
:102B80008A0580918A058A3069F40E9450078091F5
:102B90000D058093860580910E05809384058091B4
:102BA0000F050EC08B3079F40E94500780910B0501
:102BB0008093860580910C058093840580910A0599
:102BC0008093830565C031E02AEF280F233008F099
:102BD00030E091E024EF280F223008F090E0932BB2
:102BE000C82FD0E011F48430F0F4873019F48CE26F
:102BF00091E004C08D3041F48CED90E00E9463219F
:102C000090936105809360052197CE01880F991FED
:102C1000C80FD91FCE5DD94F888190E00E945B21FB
:102C20008093860535C02197CE01880F991FC80F64
:102C3000D91FCE5DD94F888190E00E945B2180939F
:102C40008605898190E00E945B21809384058A81BA
:102C500090E00E945B21B4CF9130D1F48091860541
:102C600081508093860520918A052C3041F4811192
:102C700004C082E08093860502C09093860580910F
:102C800060059091610501979093610580936005BF
:102C9000DF91CF9108950F931F93CF93DF9353B399
:102CA00043B333B323B3852F817090E04270840F18
:102CB000911D3870830F911D20728C01020F111D20
:102CC00008321105B9F480E090E00E94720960E0DA
:102CD00088E990E00E9468210E94330180E80E9408
:102CE0009E006AE086E892E00E9435010E944A0157
:102CF0000E944A0180917C0590917D0501969093F8
:102D00007D0580937C05853F914088F01092890570
:102D100082E08093770510928A0586E292E0909394
:102D20007D0580937C05809165008D7F03C0809137
:102D3000650082608093650080917C0590917D059F
:102D40008D32914010F0109215050B32110509F4E7
:102D5000BDC183B38170C82FE0E0DE2F43B3427062
:102D600050E023B3287030E083B3807290E0BE015E
:102D7000640F751F620F731F680F791F6B32710527
:102D800009F4A4C1DB9AFFEFA0E7E2E0F150A04014
:102D9000E040E1F700C00000DB986A32710509F0FD
:102DA000D9C010927D0510927C0588E19FE0C1306A
:102DB000D10569F023B32170C22FF0E0DF2FA89571
:102DC0000FB6F894A89581BD0FBE91BDF0CF80914C
:102DD000890581110BC0D0937F05C0937E0581E0EA
:102DE000809389051092880580938A0580917705E4
:102DF000811128C080917E0590917F05019709F08F
:102E0000A5C08091760590918905811107C0923007
:102E100009F09CC081E08093760598C0813009F06C
:102E200095C0933009F092C090910401973839F021
:102E30001092890510927F0510927E0582E08093A2
:102E4000770584C0813009F041C180917E05909161
:102E50007F05019709F03AC1809189052091880585
:102E600091E0211190E0813071F4992309F46EC052
:102E700080918A05813009F069C08091220690E036
:102E80000E945B2144C0823069F4992309F45EC03A
:102E900081E08093880581E090E090937B058093AA
:102EA0007A0554C0833009F051C0213009F04EC07A
:102EB00090918A0584EF890F31E0823008F030E08C
:102EC00081E02AEF290F233008F080E0832B11F4F2
:102ED000943020F482E08093880538C080917A0590
:102EE00090917B0581309105A9F481E0809388055C
:102EF00082E08093890582E090E090937B05809347
:102F00007A058091860580934005809184058093A1
:102F100086051CC0029799F481E08093880582E0C1
:102F20008093890583E090E090937B0580937A05F8
:102F30008091860580933F0580918305E8CF82E0EC
:102F40008093880510927B0510927A0580918905FF
:102F50008F5F5EC069327105F9F410927D051092A1
:102F60007C0580918905833008F07EC098E12FE0D0
:102F70004230510559F043B3427050E0A8950FB666
:102F8000F894A89591BD0FBE21BDF2CF81116CC000
:102F900081E0809315059AC06332710509F03BC04A
:102FA00010927D0510927C05809189058330A8F4EC
:102FB00098E14FE02830310559F023B3287030E014
:102FC000A8950FB6F894A89591BD0FBE41BDF2CF5C
:102FD000811103C01092150579C080917705813069
:102FE00009F065C080917E0590917F05019709F0F9
:102FF0006DC080918A05893009F063C08091880591
:10300000813009F05EC0109288051092870581E03A
:10301000809389055BC06B30710509F057C0109231
:103020007D0510927C0528E13FE0809759F083B33D
:10303000807290E0A8950FB6F894A89521BD0FBEB8
:1030400031BDF3CF80918905882309F43FC082E028
:103050008093770580918805811103C010928905BE
:1030600035C0813099F5CFCF809177058130B9F4A3
:1030700080917E0590917F05019741F580918A05A9
:10308000893041F480918805813021F482E0809379
:1030900088051CC0DF91CF911F910F91D1CC8091F9
:1030A0007605813099F4809104018F5F07C080918B
:1030B0007605813059F48091040181508093040198
:1030C00005C0DF91CF911F910F914ECDDF91CF9130
:1030D0001F910F910895809188058823A9F0813070
:1030E00009F088C080917A0590917B058130910527
:1030F000E1F480918605803218F08FE18093860597
:1031000080918505853048F48091860590E00E9485
:10311000370261E084E992E003C063E082E992E073
:103120000E943501809184051AC08230910561F5B5
:10313000809186058D3018F08CE080938605909103
:103140008505809140059530C0F490E00E943702DB
:1031500061E084E992E00E9435018091860590E06B
:103160000E94370263E089E992E00E943501809174
:10317000830590E00E9437023DC090E00E94370234
:1031800066E086E992E0F1CF0397A1F5809186058C
:103190008C3318F08BE380938605909185058091A0
:1031A00040059530A8F490E00E94370261E084E980
:1031B00092E00E94350180913F0590E00E94370225
:1031C00063E089E992E00E94350180918605D1CFC4
:1031D00090E00E94370261E084E992E00E943501AC
:1031E00080913F0590E00E94370265E08DE992E012
:1031F0000E94350164E088E993E00C9435018091E8
:1032000088058823A9F0813009F088C080917A056B
:1032100090917B0581309105E1F48091860588319C
:1032200018F087E18093860580918505853048F404
:103230008091860590E00E94370261E086EA92E084
:1032400003C063E084EA92E00E9435018091840526
:103250001AC08230910561F5809186058C3318F093
:103260008BE380938605909185058091400595308C
:10327000C0F490E00E94370261E086EA92E00E948A
:1032800035018091860590E00E94370261E086EA70
:1032900092E00E9435018091830590E00E94370200
:1032A0003DC090E00E94370264E083EA92E0F1CFF3
:1032B0000397A1F5809186058C3318F08BE38093FA
:1032C000860590918505809140059530A8F490E0A1
:1032D0000E94370261E086EA92E00E943501809107
:1032E0003F0590E00E94370261E086EA92E00E948A
:1032F000350180918605D1CF90E00E94370261E0D0
:1033000086EA92E00E94350180913F0590E00E949C
:10331000370263E088EA92E00E94350166E086E9C0
:1033200093E00C943501CF93DF93EC0180E80E9489
:103330009E0064E18CEA92E00E94350180EC0E94DC
:103340009E00FE013197ED30F105C0F5EA5BFF4FBD
:103350006FC760E182EC92E02FC060E183ED92E004
:103360002BC06FE084EE92E027C06CE084EF92E027
:1033700023C06CE081E093E01FC064E18EE093E045
:103380001BC064E183E293E017C06EE088E393E042
:1033900013C064E187E493E00FC066E08CE593E03E
:1033A0000BC066E083E693E007C069E08AE693E03D
:1033B00003C064E184E793E00E94350190918805A1
:1033C000992339F0809185058F5F809385058B3037
:1033D00010F01092850580918A05893091F484E976
:1033E0000E949E0080918805811104C064E188E8F4
:1033F00093E036C1813009F035C164E18DE993E095
:103400002FC18B3011F467DE2DC18A3011F4F7DE45
:1034100029C18830C1F4992369F081E0809388053F
:1034200080918505853030F462E08AE993E00E945E
:10343000350105C08091860590E00E94370264E066
:1034400082EB93E00DC1863001F58CE90E949E006D
:1034500080918805882369F081E0809388058091B8
:103460008505853030F462E08AE993E00E943501F9
:1034700005C08091860590E00E9437028FED0E9482
:10348000BD0061E086E392E0EBC08230C9F499238D
:1034900059F081E08093880580918505853020F47E
:1034A00062E08AE993E045C08091860590E00E9441
:1034B00037028FED0E94BD0062E08CE292E0D0C046
:1034C000873011F08D30E9F48CE90E949E008091E4
:1034D0008805882379F0813049F48091850585300D
:1034E00048F464E087EB93E00E94350164E08CEBE4
:1034F00093E0B6C080916005909161050E945402EE
:10350000F5CF282F2D7F2130B9F49111C2CF8091B2
:1035100086054AE06FEA76E090E09AD6EFEAF6E0B8
:1035200001900020E9F73197BF016F5A76408FEA8A
:1035300096E00E943501BDCF8C30C1F491110BC0D3
:10354000809186056BE0823019F481EC93E088C0AD
:103550008DEC93E085C0913009F08DC08091850598
:10356000853070F76BE089ED93E07AC0845082304B
:1035700008F078C0911109C08091860590E00E9402
:10358000370261E086EA92E011C0913009F06AC02A
:1035900080917A0590917B058130910561F480914D
:1035A0008505853048F363E084EA92E00E943501A6
:1035B0008091840513C08230910511F590918505A5
:1035C00080914005953088F490E00E94370261E0D8
:1035D00086EA92E00E9435018091860590E00E9483
:1035E000370261E086EA92E006C090E00E9437026E
:1035F00064E083EA92E00E943501809183051CC05B
:10360000039781F590918505809140059530C0F430
:1036100090E00E94370261E086EA92E00E94350164
:1036200080913F0590E00E94370261E086EA92E0D7
:103630000E9435018091860590E00E94370212C0F9
:1036400090E00E94370261E086EA92E00E94350134
:1036500080913F0590E00E94370263E088EA92E0A3
:103660000E94350180918A059AEF980F923058F0A8
:103670008B7F893041F084E90E949E0064E188E8F4
:1036800093E00E94350184ED0E949E0064E188E889
:1036900093E0DF91CF910C943501CF93DF9380912C
:1036A0007E0590917F05019709F0CDC00E943301FE
:1036B00080E80E949E0064E185EE93E00E9435015F
:1036C00080918A05893041F464E18AEF93E00E9499
:1036D00035010E949A0BABC031E02AEF280F23304E
:1036E00008F030E091E024EF280F223008F090E05D
:1036F000932B11F48430F8F4873039F4609160052D
:10370000709161058CE291E008C08D3041F46091C8
:103710006005709161058CED90E0E7D55DC090E0AB
:103720000197FC01EE0FFF1F8E0F9F1FFC01EE5D46
:10373000F94F80814DC08A3071F44091860550E088
:1037400060913F0570E08091400590E00E94ED0798
:103750000E94E80741C08B3071F44091860550E02B
:1037600060913F0570E08091400590E00E941B0849
:103770000E94160831C090E00197FC01EE0FFF1F78
:103780008E0F9F1FFC01EE5DF94F80816091400517
:1037900090E09ED580918A0590E00197FC01EE0FA4
:1037A000FF1F8E0F9F1FFC01EE5DF94F818160911D
:1037B0003F0590E08DD580918A0590E00197FC014E
:1037C000EE0FFF1F8E0F9F1FFC01EE5DF94F8281F0
:1037D0006091860590E07CD5C0918A05C93010F0D3
:1037E000CC30C9F4D0E02197CE01880F991FC80FC3
:1037F000D91FCE5DD94F888190E05DD58093860535
:10380000898190E058D5809384058A8190E053D5D2
:10381000809383050CC080918605809383058091F9
:1038200040058093860580913F0580938405109222
:103830007B0510927A0582E08093890510924005FD
:1038400010923F0508C080E80E949E0063E18FE06F
:1038500094E00E943501DF91CF910C943301CF9316
:10386000DF930E94330181E080938A0510927705EF
:10387000C8E1DFE080917705811142C0A8950FB6BD
:10388000F894A895C1BD0FBED1BD05DA80E80E94AD
:103890009E008091760564E1811103C083E294E08B
:1038A00002C089E394E00E94350180EC0E949E00F2
:1038B0006AE08FE494E00E943501809176058130C2
:1038C00051F480918505853030F463E089E993E017
:1038D0000E94350105C08091040190E00E943702EA
:1038E00061E08AE594E00E943501809185058F5F53
:1038F000809385058B3008F4BDCF10928505BACF33
:10390000813069F4809389051092850580912206A3
:1039100090E0D1D480938605C8E1DFE013C0109217
:10392000890528C0A8950FB6F894A895C1BD0FBE0B
:10393000D1BDB1D980918805823048F480918A0543
:1039400090E0F1DC809189058111ECCF13C08230C9
:1039500021F4A3DE10928805F5CF833099F71092F9
:10396000890510928A051092880510927F051092A1
:103970007E05E8CF0E94330180E80E949E006EE041
:103980008CE594E00E9435010E944A01A8959FE0D1
:1039900088E10FB6F894A89581BD0FBE91BD109235
:1039A0008A0510928905109277051092760582E8B3
:1039B000809304010E943301DF91CF910C948C0F0E
:1039C000049B11C080912D058F5F80932D05853656
:1039D000C8F081E08093940510922C0588E78093CD
:1039E0002D05C29A089580912C058F5F80932C0538
:1039F000853640F01092940510922D0588E780934B
:103A00002C05C29808950E94500780E80E949E00ED
:103A100065E08BE694E00E94350180910B0590E013
:103A20000E94370261E084E992E00E9435018091B2
:103A30000C0590E00E94370263E089E992E00E9461
:103A4000350180910A0590E00E94370265E087E920
:103A500093E00E94350180EC0E949E0065E08BEFB0
:103A600092E00E94350180910D0590E00E9437029E
:103A700061E086EA92E00E94350180910E0590E0B7
:103A80000E94370261E086EA92E00E94350180914F
:103A90000F0590E00E94370267E085E993E00E94FD
:103AA000350184E90E949E006EE081E794E00E9467
:103AB00035018091140590E00E94370264E082EBAA
:103AC00093E00E94350184ED0E949E006BE080E847
:103AD00094E00E943501809112059091130585367E
:103AE000910520F061E086E591E003C062E085E5A4
:103AF00091E00E94350180911205909113050E947A
:103B0000370261E08BE993E00E94350188E990E09B
:103B1000D2D364E0813019F48CE894E002C088E9E3
:103B200093E00C94350180E80E949E0064E188E8EF
:103B300093E00E94350180EC0E949E0064E181E9DF
:103B400094E00E94350184E90E949E0064E186EAC7
:103B500094E00E94350184ED0E949E0064E188E8B3
:103B600093E00C94350180911E0590E020918D0525
:103B700030918E058217930790F4809191058F5FA5
:103B8000853618F480939105089588E78093910510
:103B90001092900581E080936C05C09A0895809101
:103BA00090058F5F853618F480939005089588E717
:103BB000809390051092910510926C05C09808951D
:103BC0000E94CE0E0E943B030E94760480E80E9471
:103BD0009E0064E18BEB94E00E9435010E943A0E56
:103BE000DB9A2FEF80E792E0215080409040E1F790
:103BF00000C00000DB98A8959FE088E10FB6F8941C
:103C0000A89581BD0FBE91BDC2E3D8E11FE0369AF1
:103C10000E949C018FE19EE40197F1F700C0000033
:103C2000369A0E9400028FE19EE40197F1F700C0EE
:103C300000000E947A030E9484030E94B5040E943F
:103C4000BF04A8950FB6F894A895D1BD0FBE11BDBD
:103C5000C150E9F69FEF26E181E19150204080407C
:103C6000E1F700C0000080915E0690E02CD3019740
:103C700021F10E94AA1080915E0661E070E090E060
:103C800034D342E350E06DE270E08DE090E00E94BA
:103C9000ED070E94E80744E150E063E070E08FE048
:103CA00090E00E941B080E94160880E090E00E94AD
:103CB000720980E090E00E947F090E948C0F0E94B0
:103CC000330180ED94E00E944C088FEE94E00E9456
:103CD0004C0883E090E090937105809370058BB35E
:103CE0008BBB84ED0E949E0080919B0590919C056A
:103CF0000E94370280919D0590919E050E94370297
:103D00008091930590E00E9437028091920590E0A7
:103D10000E943702C8E1DFE003E610E0A8950FB685
:103D2000F894A895C1BD0FBED1BD0E949D0A6091B7
:103D300028057091290580E090E045D127EF3EED00
:103D400043EA51E4F2D113D170935D0560935C05B1
:103D50000E94EE0F0E94861480918D0590918E0531
:103D6000059720F410938E0500938D0580918B05A7
:103D700090918C05059720F410928C0510928B057C
:103D80001FDE80919405811109C080911505811174
:103D900003C00E942D1405C036DE03C0C4DE0E949D
:103DA00025120E942C130E94B6140E944B16DBDED3
:103DB0000E94F81080918905882309F4AFCF4FDD68
:103DC000ADCF5058BB27AA270ED075C166D130F0B1
:103DD0006BD120F031F49F3F11F41EF45BC10EF45F
:103DE000E095E7FB51C1E92F77D180F3BA1762075D
:103DF00073078407950718F071F49EF58FC10EF4D0
:103E0000E0950B2EBA2FA02D0B01B90190010C01EA
:103E1000CA01A0011124FF27591B99F0593F50F402
:103E2000503E68F11A16F040A22F232F342F44275A
:103E3000585FF3CF469537952795A795F040539552
:103E4000C9F77EF41F16BA0B620B730B840BBAF022
:103E50009150A1F0FF0FBB1F661F771F881FC2F78D
:103E60000EC0BA0F621F731F841F48F487957795A1
:103E70006795B795F7959E3F08F0B3CF9395880F58
:103E800008F09927EE0F979587950895D9D008F4F3
:103E900081E008950CD00FC107D140F0FED030F082
:103EA00021F45F3F19F0F0C0511139C1F3C014D1B2
:103EB00098F39923C9F35523B1F3951B550BBB27F1
:103EC000AA2762177307840738F09F5F5F4F220F9E
:103ED000331F441FAA1FA9F333D00E2E3AF0E0E897
:103EE00030D091505040E695001CCAF729D0FE2FE3
:103EF00027D0660F771F881FBB1F26173707480775
:103F0000AB07B0E809F0BB0B802DBF01FF2793582A
:103F10005F4F2AF09E3F510568F0B6C000C15F3F79
:103F2000ECF3983EDCF3869577956795B795F79512
:103F30009F5FC9F7880F911D9695879597F908950A
:103F4000E1E0660F771F881FBB1F621773078407A6
:103F5000BA0720F0621B730B840BBA0BEE1F88F7B5
:103F6000E095089504D06894B111D9C00895BCD0EB
:103F700088F09F5790F0B92F9927B751A0F0D1F052
:103F8000660F771F881F991F1AF0BA95C9F712C0DC
:103F9000B13081F0C3D0B1E00895C0C0672F782F51
:103FA0008827B85F39F0B93FCCF386957795679548
:103FB000B395D9F73EF490958095709561957F4FB4
:103FC0008F4F9F4F0895E89409C097FB3EF490955A
:103FD0008095709561957F4F8F4F9F4F9923A9F0E2
:103FE000F92F96E9BB279395F69587957795679571
:103FF000B795F111F8CFFAF4BB0F11F460FF1BC0B5
:104000006F5F7F4F8F4F9F4F16C0882311F096E947
:1040100011C0772321F09EE8872F762F05C06623F5
:1040200071F096E8862F70E060E02AF09A95660FAE
:10403000771F881FDAF7880F9695879597F9089567
:10404000990F0008550FAA0BE0E8FEEF16161706A9
:10405000E807F907C0F012161306E407F50798F011
:10406000621B730B840B950B39F40A2661F0232B2A
:10407000242B252B21F408950A2609F4A140A695A6
:104080008FEF811D811D089597F99F6780E870E08B
:1040900060E008959FEF80EC089500240A941616BE
:1040A000170618060906089500240A941216130626
:1040B000140605060895092E0394000C11F48823B4
:1040C00052F0BB0F40F4BF2B11F460FF04C06F5FD0
:1040D0007F4F8F4F9F4F089557FD9058440F551FA6
:1040E00059F05F3F71F04795880F97FB991F61F07A
:1040F0009F3F79F087950895121613061406551FF1
:10410000F2CF4695F1DF08C0161617061806991F5C
:10411000F1CF86957105610508940895E894BB2751
:1041200066277727CB0197F908950BD0C4CFB5DF69
:1041300028F0BADF18F0952309F0A6CFABCF1124F1
:10414000EECFCADFA0F3959FD1F3950F50E0551F36
:10415000629FF001729FBB27F00DB11D639FAA27DC
:10416000F00DB11DAA1F649F6627B00DA11D661F2B
:10417000829F2227B00DA11D621F739FB00DA11D4C
:10418000621F839FA00D611D221F749F3327A00D06
:10419000611D231F849F600D211D822F762F6A2FA2
:1041A00011249F5750408AF0E1F088234AF0EE0F27
:1041B000FF1FBB1F661F771F881F91505040A9F734
:1041C0009E3F510570F060CFAACF5F3FECF3983E61
:1041D000DCF3869577956795B795F795E7959F5F9B
:1041E000C1F7FE2B880F911D9695879597F9089535
:1041F000991B79E004C0991F961708F0961B881F39
:104200007A95C9F780950895AA1BBB1B51E107C099
:10421000AA1FBB1FA617B70710F0A61BB70B881F56
:10422000991F5A95A9F780959095BC01CD010895E5
:10423000EE0FFF1F0024001C0BBE0790F691E02D2F
:104240000994FB01DC0101900D920020E1F7089533
:10425000BB274A3031F4992322F4BDE29095819531
:104260009F4F01C0BB27FB015527AA27880F991F25
:10427000AA1FA41710F0A41B83955051B9F7A05D95
:10428000AA3308F0A95DA193009779F7B111B19312
:104290001192CB0100C0DC01FC01672F71917723E3
:1042A000E1F7329704C07C916D9370836291AE17F1
:1042B000BF07C8F30895E199FECF9FBB8EBBE09A7C
:1042C00099278DB30895A8E1B0E042E050E012C014
:1042D000262FE199FECF9FBB8EBB2DBB0FB6F89466
:1042E000E29AE19A0FBE01960895F2DF272FF1CFEF
:1042F000DC01CB01FC01E199FECF06C0FFBBEEBBA8
:10430000E09A31960DB20D9241505040B8F70895A1
:04431000F894FFCF4F
:10431400E022020082010A0A1F1F0E060C180E1169
:1043240011111111111F0E111111111F1F1F0E1147
:10433400111F1F1F1F1F0E111F1F1F1F1F1F0E1FC7
:104344001F1F1F1F1F1F0A0A1F1F0E060C1845459B
:1043540050524F4D2046554C4C20202020202020E8
:1043640020002D3E003030003A2D00446174653D3C
:104374000054726F6F6D3D0020546F75743D0020C2
:1043840046414E4D4F44453D002046414E5F414C11
:1043940041524D3D002046696C7465725F4A616DFF
:1043A4003D00204241545F564F4C544147453D0027
:1043B40056002054696D653D004461746120536565
:1043C4006E64696E6720537461727473004E4F207B
:1043D400534156454420454550524F4D2044415485
:1043E40041004269736D696C6C61686972202020B8
:1043F400202020202020005261686D616E697220A7
:10440400526168696D2020202020200042616E677F
:104414006C616C696E6B204643555F56352E3037A0
:1044240000485320454E47494E454552494E472082
:104434004C54442E2000526F6D543A004320002007
:10444400546F75543A00430020566F6C742000205A
:104454004C6F7720766F6C742020002052504D3AB8
:104464000046414E203A0044656C61792020004F9B
:104474006666202020200052455354202020004FFF
:104484006E2020202020004641554C54202000530B
:104494006563202020004461746120457261736566
:1044A400640020202F002F20202F3230002F2020C6
:1044B4002020003A20203A003A2020004D656E75F5
:1044C400204974656D2053656C656374696F6E2053
:1044D400200046616E2053746172742054656D70BF
:1044E4003E3D004D61782053706565642054656DD0
:1044F400703E3D0046616E2053746F702054656DAC
:1045040070203C0046616E2052756E54696D653AA8
:104514000046616E5265737454696D653A0045785E
:104524007472656D652054656D7065726174757221
:10453400653E0046616E20446973636F6E6E656309
:104544007420766F6C743C004461746120496E740D
:10455400657276616C3D00446F776E6C6F616420A8
:1045640044617461202020202020200054696D655E
:104574003A2000446174653A200052504D204F6641
:10458400663A200046616E205265636F6E6E656305
:104594007420766F6C743C00202020202020202082
:1045A4002020202020202020202020200050726560
:1045B40073732055503D59657320446F776E3D4E9B
:1045C4006F004D696E200020202E2000566F6C7401
:1045D400005B4F46465D2E2E2E2E2020005B4F4E54
:1045E4005D2E2E2E2E2E2020005B2020205D2020EC
:1045F40020202020005570646174696E67204D6529
:104604006E752E2E2E2E2E2E2E0053686F7720447C
:10461400617461204F6E20504320202020200055DB
:1046240070646174696E67204D656E7520455252E1
:104634004F520050726F766964652074686520502B
:10464400617373776F726420005072657373204FC7
:104654006B20746F20456E746572202020200050FA
:10466400617373776F72643A5B005D002A2A2A4D86
:10467400656E7520454E442A2A2A00446174653AC1
:10468400005361766520496E74657276616C3A00F8
:10469400536176656420446174613A0046756C6CBC
:1046A40000212121212120434155544F4E20212115
:1046B4002121212020004669726520416C61726DC0
:1046C40020416C6C204F464620200053656E736F6A
:1046D4007220436865636B2E2E2E2020202020003C
:1046E4004269736D6E696C6C6168697220526168AD
:1046F4006D616E697220526168696D200D0A004611
:1047040043552042616E676C616C696E6B56312E45
:064714003031200D0A0007
:00000001FF
