S012000031354D617263685F48532E73726563C7
S113000051C000006EC000006CC000006AC0000057
S113001068C0000066C0000064C0000062C0000048
S11300200C945B0C5EC000005CC000005AC0000071
S113003058C0000056C0000054C0000052C0000068
S11300400C94790C4EC000004CC000004AC0000063
S113005048C0000046C0000044C0000042C0000088
S113006040C000003EC000003CC000003AC0000098
S113007038C0000036C0000034C0000032C00000A8
S113008030C000002EC000002CC0000049194D19DA
S11300905119551959195D196119651969196D199C
S11300A07119751911241FBECFEFD0E1DEBFCDBF8A
S11300B014E0A0E0B1E0EEE1F2E400E00BBF02C026
S11300C007900D92A23FB107D9F726E0A2EFB4E062
S11300D001C01D92A23AB207E1F70E946E1D0C9472
S11300E00D218ECFBF9A8FEF83BD85B5806285BD0C
S11300F085B5886485BD85B5826085BD089513BCCA
S1130100BF980895DA988BB38BBBD8988FEC97E09F
S11301100197F1F700C00000D29A8AB38ABBD09A43
S11301208FEC97E00197F1F700C000008FEC97E0A7
S11301300197F1F700C000000895EFE9FFE031975F
S1130140F1F700C00000DA989BB39BBBD89A9AB32E
S1130150906F9ABB9BB39F70282F207F922B9BBBE1
S1130160D898D89A2BB32F70F0E18F9FC001112437
S1130170822B8BBBD8980895EFECF7E03197F1F719
S113018000C00000000000000000000000000000AB
S1130190DA9A9BB39BBBD89A0000000000009AB384
S11301A0906F9ABB9BB39F70282F207F922B9BBB91
S11301B0000000000000D898000000000000D89A59
S11301C00000000000002BB32F70F0E18F9FC001EE
S11301D01124822B8BBB000000000000D898000083
S11301E00000000008958FEC97E00197F1F700C03C
S11301F0000088DF80E0A1DF8FEC97E00197F1F742
S113020000C0000088E299DF81E097DF9FEF20E7DC
S113021082E0915020408040E1F700C000008FEC64
S113022097E00197F1F700C0000086E086DF8FECCD
S113023097E00197F1F700C000008CE07EDF8FECBF
S113024097E00197F1F700C000008FEC97E0019769
S1130250F1F700C000008FEC97E00197F1F700C0C0
S11302600000089581E069CF0F931F93CF93DF932C
S1130270009751F0EC018C01060F111DC017D10736
S113028019F0899179DFFACFDF91CF911F910F9106
S11302900895A8959FE088E10FB6F894A89581BDCC
S11302A00FBE91BD2FEF89E698E121508040904028
S11302B0E1F700C00000A8959FE088E10FB6F8942C
S11302C0A89581BD0FBE91BD2FEF89E698E121501D
S11302D080409040E1F700C00000A8959FE088E1CD
S11302E00FB6F894A89581BD0FBE91BD2FEF89E696
S11302F098E1215080409040E1F700C00000A895AB
S11303009FE088E10FB6F894A89581BD0FBE91BD1A
S11303102FEF89E698E1215080409040E1F700C03A
S11303200000A0CF80E487B986B1876086B986B122
S1130330806A86B9089585E487B98FE19EE40197C0
S1130340F1F700C0000064B175B1072E000C880BF2
S1130350990B0E946A1F2BEF3AE340E75DE30E948A
S11303601A209B01AC016093410570934205809370
S113037043059093440580913705909138058A3060
S11303809105C0F4019690933805809337056091E8
S11303903D0570913E0580913F05909140050E9476
S11303A0671E60933D0570933E0580933F059093CF
S11303B0400508950A9711F51092380510923705F3
S11303C020E030E040E251E460913D0570913E054B
S11303D080913F05909140050E94CF1E609339059E
S11303E070933A0580933B0590933C0510923D052C
S11303F010923E0510923F0510924005089587E43F
S113040087B98FE19EE40197F1F700C0000024B1A1
S113041035B130933605209335054091330550911D
S1130420340580913105909132054A30510568F4C4
S11304304F5F5F4F5093340540933305280F391FA6
S113044030933205209331050895109234051092AB
S113045033056AE070E00E94892070933005609350
S11304602F0510923205109231050895CF93DF9332
S1130470EC010A9720F461E086E591E0F5DE4AE0BC
S113048066E976E0CE010E94AD20E6E9F6E001904F
S11304900020E9F73197BF016659764086E996E076
S11304A0DF91CF91E1CECF92DF92EF92FF920F9343
S11304B01F93CF93DF93CDB7DEB72A970FB6F89487
S11304C0DEBF0FBECDBF7C01892B21F461E086E540
S11304D091E0CADE4AE08E010F5F1F4FB801C701E9
S11304E00E94AD208AE0E816F10478F461E086E524
S11304F091E0BADEF80101900020E9F73197BF01DD
S1130500601B710BC801B0DE1EC0F8010190002011
S1130510E9F731977F01E01AF10ACC24C394D12C76
S1130520C7018C199D0997FD0EC0F80181918F01B7
S113053023DEF2E0CF16D10411F48EE21DDE8FEF3C
S1130540C81AD80AEDCF2A960FB6F894DEBF0FBEAC
S1130550CDBFDF91CF911F910F91FF90EF90DF906E
S1130560CF9008951C98149A8FEB93E00197F1F7BC
S113057000C000009FB7F8941498E0EBEA95F1F7F7
S113058081B19FBFEBE3F3E03197F1F700C00000C6
S11305900C9B02C08071089581E008959FB7F89480
S11305A0149A22E02A95F1F700C08111149825E2EB
S11305B02A95F1F700000C9B80E028E72A95F1F7D3
S11305C014989FBF0895CF93DF93C82FD8E08C2F42
S11305D08170E4DFC6958111C068D150C1F78C2FBA
S11305E0DF91CF9108958FEFEECFFF920F931F937A
S11305F0CF93DF93082FB6DF81111FC080EFE3DFB5
S1130600D0E0C0E488EFF82EFC0E81E0C7DF182F9D
S113061081E0C4DF882319F0112339F010C01111CF
S113062004C00C1711F0DC2F11E0812FB7DFC1508B
S1130630CF11EBCF39F78D2F03C08FEF01C08EEFB1
S1130640DF91CF911F910F91FF900895CF93C82F01
S113065089DF8CECB8DF8C2FCF91B5CFCF93DF93AC
S1130660EC018881C2DF888381508D3FD0F3DF9114
S1130670CF910895EF92FF921F93CF93DF93CDB75D
S1130680DEB729970FB6F894DEBF0FBECDBF8FEF4C
S113069089878EE6E82E86E0F82E10E08985882387
S11306A0D9F01530C9F0CE010996D8DF89858E5F5F
S11306B0823090F0FE01319680E090E02191D701E4
S11306C0A80FB91F2C93019688309105B9F71F5FC5
S11306D088E0E80EF11CE2CF812F29960FB6F8943A
S11306E0DEBF0FBECDBFDF91CF911F91FF90EF9082
S11306F0089538DF0C9B06C08CECA8DF84E4A6DFE9
S113070080E0089508951F93CF93DF93D0917405EB
S11307108CEC9CDF8EEB9ADF66DFC82F64DF182F2A
S113072021DF882351F080912E058F5F853108F0F9
S113073089E180932E0560E011C06C2F70E0712B6D
S113074080E090E00E94681F20E030E040E85DE334
S11307500E941A200E943C1F10922E0520915305DE
S113076080915B0590915C052A3050F4860F911DB1
S113077090935C0580935B052F5F209353050CC019
S1130780109253056AE070E00E948920609374051A
S113079010925C0510925B0580917405873910F006
S11307A0D093740580917405833010F4109274050D
S11307B080E0DF91CF911F9108951A98129A8FEBE0
S11307C093E00197F1F700C000009FB7F8941298E6
S11307D0E0EBEA95F1F781B19FBFEBE3F3E03197EA
S11307E0F1F700C000000A9B02C08470089581E004
S11307F008959FB7F894129A22E02A95F1F700C061
S11308008111129825E22A95F1F700000A9B80E0F5
S113081028E72A95F1F712989FBF0895CF93DF93A5
S1130820C82FD8E08C2F8170E4DFC6958111C06891
S1130830D150C1F78C2FDF91CF9108958FEFEECF78
S1130840FF920F931F93CF93DF93082FB6DF81118D
S11308501FC080EFE3DFD0E0C0E488EFF82EFC0E89
S113086081E0C7DF182F81E0C4DF882319F011234A
S113087039F010C0111104C00C1711F0DC2F11E075
S1130880812F8CDEC150CF11EBCF39F78D2F03C0F0
S11308908FEF01C08EEFDF91CF911F910F91FF90E9
S11308A00895CF93C82F89DF8CECB8DF8C2FCF91BC
S11308B0B5CFCF93DF93EC018881C2DF8883815069
S11308C08D3FD0F3DF91CF910895EF92FF921F9364
S11308D0CF93DF93CDB7DEB729970FB6F894DEBF79
S11308E00FBECDBF8FEF89878EE6E82E86E0F82E07
S11308F010E089858823D9F01530C9F0CE01099616
S1130900D8DF89858E5F823090F0FE01319680E0D9
S113091090E02191D701A80FB91F2C93019688303C
S11309209105B9F71F5F88E0E80EF11CE2CF812F33
S113093029960FB6F894DEBF0FBECDBFDF91CF91DD
S11309401F91FF90EF90089538DF0A9B06C08CEC4E
S1130950A8DF84E4A6DF80E0089508951F93CF9371
S1130960DF93D09175058CEC9CDF8EEB9ADF66DF0C
S1130970C82F64DF182F21DF882351F080912D05C3
S11309808F5F853108F089E180932D0560E011C007
S11309906C2F70E0712B80E090E00E94681F20E0D3
S11309A030E040E85DE30E941A200E943C1F109250
S11309B02D052091540580915D0590915E052A30A6
S11309C050F4860F911D90935E0580935D052F5F13
S11309D0209354050CC0109254056AE070E00E9404
S11309E089206093750510925E0510925D058091D3
S11309F07505873910F0D09375058091750583309E
S1130A0010F41092750580E0DF91CF911F91089545
S1130A10E4E7F0E0108282E18093700081E080934B
S1130A2071001092720084E48083A895089585E093
S1130A3080937000E1E7F0E080818C7F8083A8954B
S1130A40089534EA40EA54E8309374002091740025
S1130A5027FFFCCF20917100287F283011F080E01F
S1130A60089540937300509374002091740027FFFD
S1130A70FCCF20917100287F283131F790937300C7
S1130A8094E8909374009091740097FFFCCF909138
S1130A907100987F983219F78093730084E88093EB
S1130AA074008091740087FFFCCF80917100887F6F
S1130AB08832A9F66093730084E88093740080916F
S1130AC0740087FFFCCF80917100887F883239F6EB
S1130AD084E9809374008091740084FDFCCF8FEBD3
S1130AE09DE50197F1F700C0000081E0089534EA24
S1130AF040EA54E8309374002091740027FFFCCF3F
S1130B0020917100287F283011F080E008954093EF
S1130B107300509374002091740027FFFCCF209140
S1130B207100287F283131F79093730094E89093F3
S1130B3074009091740097FFFCCF90917100987F9E
S1130B40983219F78093730084E88093740080913D
S1130B50740087FFFCCF80917100887F8832A9F6EA
S1130B6084EA809374008091740087FFFCCF8091A5
S1130B707100887F803149F681EA8093730084E8AC
S1130B80809374008091740087FFFCCF8091710082
S1130B90887F803409F0B9CF84E880937400809111
S1130BA0740087FFFCCF80917100887F883509F03D
S1130BB0ACCF8091730094E9909374009091740089
S1130BC094FDFCCF089584EA8093740080917400AE
S1130BD087FFFCCF90917100987F81E0983009F4F1
S1130BE080E0089584EA809374008091740087FF04
S1130BF0FCCF90917100987F81E0903109F480E0FE
S1130C00089580FF02C020E401C028E180937300AE
S1130C1084E8809374008091740087FFFCCF9091E6
S1130C207100987F81E0921301C080E00895809361
S1130C30730084E8809374008091740087FFFCCF74
S1130C4090917100987F81E0983209F480E00895D2
S1130C5084EC809374008091740087FFFCCF8091B2
S1130C607100887F803519F48091730008958EE7B0
S1130C70089584E8809374008091740087FFFCCF0A
S1130C8080917100887F883519F4809173000895EC
S1130C908EE70895EEEAF5E0A4E5B6E016968C91A9
S1130CA01697877020E1829FC001112417969C91AA
S1130CB017979F70892B808313968C911397877055
S1130CC020E1829FC001112414969C9114979F7077
S1130CD0892B81838C91837020E1829FC001112430
S1130CE011969C919F70892B8283A2E6B6E01A9696
S1130CF08C911A9783838C91837020E1829FC00129
S1130D00112411969C9111979F70892B84831396BB
S1130D108C911397282F217030E084E0220F331F29
S1130D208A95E1F714968C9114978F70282B25835C
S1130D3018968C91189720E1829FC001112419966E
S1130D409C919F70892B868308950F931F93CF9353
S1130D503ADF813019F180ED54DF8130F9F080E021
S1130D6066DF8130D9F03EDF8130C1F081ED49DFAB
S1130D708130A1F00EEA15E0C0E06ADF8E3719F485
S1130D8080E8DBD90BC0F80181938F01CF5FC630B7
S1130D90A1F76FDF8E37A1F38093B40584E98093C4
S1130DA07400CF911F910F910895CFDFAEEAB5E0A3
S1130DB08C91E4E5F6E0982F9F7090639783807799
S1130DC082958F70806386832AE3258311968C91A4
S1130DD01197982F9F7090639483807782958F707A
S1130DE080638383228312968C91982F9F709063E3
S1130DF09183807382958F70806380830895A5DFCB
S1130E00E2E6F6E080E28387AEEAB5E016968C91DE
S1130E101697982F9F709063918782958F70806347
S1130E20808780E3878382E386832FE22583159678
S1130E308C911597982F9F709063948382958170FD
S1130E4080638383228314968C91982F9F70906380
S1130E509183807382958F70806380830895D8DD39
S1130E60A4DFE4E5F6E08681880F8056982F990F79
S1130E70990F890F97819053890F8093FB04838185
S1130E80880F8056982F990F990F890F948190534A
S1130E90890F8093FA048081880F8056982F990FC8
S1130EA0990F890F91819053890F8093F904A7DFDB
S1130EB0E2E6F6E08081880F8056982F990F990F0B
S1130EC0890F91819053890F8093F7048381880F50
S1130ED08056982F990F990F890F94819053890FF9
S1130EE08093F8048085880F8056982F990F990F66
S1130EF0890F91859053890F8093F6040895CF93B9
S1130F00DF9361DE8130B9F080ED7BDE813099F0D2
S1130F1080E08DDE813079F0CEEAD5E0899187DEFC
S1130F20813049F085E0C13BD807C1F784E980935B
S1130F30740080E004C084E98093740081E0DF9150
S1130F40CF910895CF93DF933EDE813071F080ED31
S1130F5058DE813051F083E06ADE813031F0C1EB3C
S1130F60D5E0899164DE813039F480E8E6D884E9FB
S1130F708093740081E008C085E0C53BD80789F7F9
S1130F8084E98093740080E0DF91CF91089582DE3C
S1130F90B6DF68D980E8D1C80F931F93CF93DF934E
S1130FA08B01EA01E4E5F6E02AE030E0B9010E94B1
S1130FB08920605D6083805D81834AE34283C80148
S1130FC0B9010E948920605D6383805D84834583C9
S1130FD0CE01B9010E948920605D6683805D8783AC
S1130FE0DF91CF911F910F91089554DEABDF3AD971
S1130FF080E8A3C80F931F93CF93DF938B01EA017B
S1131000E2E6F6E02AE030E0B9010E948920605D62
S11310106083805D81834FE24283C801B9010E94ED
S11310208920605D6383805D8483458382E3868356
S113103080E38783CE01B9010E948920605D6087C7
S1131040805D8187DF91CF911F910F9108955D9B02
S1131050FECF8CB908950F931F93CF93DF93FC01B8
S113106001900020E9F73197CE2FC81BD82F8C01AF
S1131070802F8D1B8C1728F4F80181918F01E7DFF5
S1131080F7CFDF91CF911F910F9108959093900026
S113109089B988E08AB986E080939500119A089509
S11310A04F925F926F927F928F929F92AF92BF9274
S11310B0CF92DF92EF92FF920F931F93CF93DF9320
S11310C0CDB7DEB72A970FB6F894DEBF0FBECDBFFB
S11310D05C0180E389838A838B838C838D838E83F5
S11310E0CE0101967C01A114B10429F480E3AFDFA1
S11310F000E010E025C03C01650100E010E08AE05A
S1131100882E912CC601B4010E9489202B01BC01B8
S113111080E090E00E94681F620120E030E040E43B
S113112052E40E94671E0E94371FF30161933F013E
S11311300F5F1F4F452831F7FAE0AF16B10460F492
S113114080E385DF0E0D1F1D0E151F0579F0F801D4
S113115082918F017CDFF8CF0E0D1F1D0E151F0528
S113116029F0F80182918F0172DFF8CF2A960FB629
S1131170F894DEBF0FBECDBFDF91CF911F910F91C9
S1131180FF90EF90DF90CF90BF90AF909F908F90A3
S11311907F906F905F904F9008958DE058DF8AE0C4
S11311A056CFCF92DF92EF92FF920F931F93CF937C
S11311B0DF93CDB7DEB72A970FB6F894DEBF0FBE24
S11311C0CDBF7C01892B19F486E591E040DF4AE02C
S11311D08E010F5F1F4FB801C7010E94AD208AE046
S11311E0E816F104B0F486E591E031DFF8010190EE
S11311F00020E9F7CF0101977C01F1E0EF1AF10833
S1131200C701801B910B97FD22C0F70180811FDF6E
S1131210F4CFF80101900020E9F731977F01E01A3B
S1131220F10ACC24C394D12CC7018C199D0997FDD4
S11312300EC0F80181918F010ADFF2E0CF16D104CC
S113124011F48EE204DF8FEFC81AD80AEDCF2A9684
S11312500FB6F894DEBF0FBECDBFDF91CF911F91C3
S11312600F91FF90EF90DF90CF900895E5E0F6E0C6
S11312706083718308951092F3041092F204FC01C8
S1131280618170E07093F3046093F204762F662713
S11312908081682B7093F3046093F20480E090E003
S11312A00895CF93C92F682F89EF91E00E94ED2014
S11312B06C2F8AEF91E0CF910C94ED20CF93C92F3E
S11312C0682F8BEF91E00E94ED206C2F8CEF91E062
S11312D0CF910C94ED200F931F93CF9389EF91E05E
S11312E00E94E020C82F8AEF91E00E94E0204C2F5A
S11312F050E060E070E08A019B01182BD901C8011D
S1131300CF911F910F9108950F931F93CF938BEF5C
S113131091E00E94E020C82F8CEF91E00E94E02031
S11313204C2F50E060E070E08A019B01182BD9013A
S1131330C801CF911F910F910895CF92DF92EF9240
S1131340FF92CF93DF93C7DFEC018CE08C9F6001A9
S11313508D9FD00C1124E12CF12C20E030E040E2F0
S113136051E46091390570913A0580913B05909163
S11313703C050E941A200E943C1F78DFB701A60199
S1131380445F5F4F6F4F7F4F809100019091010147
S1131390A0910201B091030184179507A607B7072E
S11313A0C8F40E94320184ED0E949D0064E18EE342
S11313B091E00E94340161E088E990E00E94ED2010
S11313C080E090E06EDFCE0179DFC12CD12C760174
S11313D0C0E0D0E08FE19EE40197F1F700C0000087
S11313E06091F704C6012DDB8FE19EE40197F1F7CC
S11313F000C00000C60101966091F80422DB8FE171
S11314009EE40197F1F700C00000C60102966091C6
S1131410F60417DB8FE19EE40197F1F700C00000AA
S1131420C60103966091F9040CDB8FE19EE40197F9
S1131430F1F700C00000C60104966091FA0401DBD4
S11314408FE19EE40197F1F700C00000C601059604
S113145060917505F6DA8FE19EE40197F1F700C01B
S11314600000C601069660917405EBDA8FE19EE4F4
S11314700197F1F700C00000C60107966091570577
S1131480E0DA8FE19EE40197F1F700C00000C601A5
S1131490089660914705D5DA8FE19EE40197F1F74C
S11314A000C00000C601099660911805CADA8FE1F0
S11314B09EE40197F1F700C00000C6010A9660910E
S11314C00506BFDA8FE19EE40197F1F700C0000042
S11314D0C6010B9660910606B4DA8FE19EE401978B
S11314E0F1F700C00000CE010196DF91CF91FF908B
S11314F0EF90DF90CF90D5CEB2DC8091FA0460916A
S113150000050E947D20911113C08091FB0481117C
S11315100FC080910501813059F489DA0EDF82E031
S11315208093050175DAD7DE9093FF048093FE045F
S11315308091FB04813011F48093050108957F921A
S11315408F929F92AF92BF92CF92DF92EF92FF92CF
S11315500F931F93CF93DF938B01D82FC92F8091C3
S1131560F4049091F50401969093F5048093F404A7
S113157082E591E070DD8091F4049091F504853664
S1131580910530F0883E934030F486E591E002C046
S113159085E591E060DD8091F4049091F50480DDAF
S11315A088E591E058DD8BE591E055DD40DA68018E
S11315B0ED2EFC2EC0E0D0E0460157018CE0880EF1
S11315C0911CA11CB11C08E18FE0782EC814D90429
S11315D0EA04FB0408F06BC02196C60188DA182FD0
S11315E0C630D1053CF490E05BDDC130D10509F093
S11315F03BC03DC0C630D10519F481E691E017C067
S1131600C730D10519F488E691E011C0C830D1057E
S113161019F48FE691E00BC0C930D10519F489E7BC
S113162091E005C0CA30D10539F485E891E013DDB5
S1131630812F90E035DD2EC0CB30D10529F4809385
S1131640050682E991E01AC0CC30D10591F480936B
S1131650060685E096E00FDE8091F2049091F30493
S1131660A0DD80EA91E00AC0C230D10511F48DE218
S113167010C0C330D10521F482EA91E0ECDC0AC049
S1131680C430D10511F48AE304C0C530D10511F486
S113169080E2DDDCA8950FB6F894A89501BD0FBED5
S11316A071BC9FEFC91AD90AE90AF90A8FCFB0D9D8
S11316B074DD2FEF80E792E0215080409040E1F705
S11316C000C00000A8959FE088E10FB6F894A895A3
S11316D081BD0FBE91BDDF91CF911F910F91FF90FE
S11316E0EF90DF90CF90BF90AF909F908F907F90BE
S11316F00895AF92BF92CF92DF92EF92FF920F9331
S11317001F93CF93DF93E7DDEC011D9846DD89EA53
S113171091E0A1DC1092F5041092F404209721F4D6
S11317208DEB91E098DC73C088E990E00E94E020A2
S1131730813009F04AC0E8DDEC012FDDCCDD8C01FD
S11317408CE0809F6001819FD00C1124E12CF12C4E
S113175048E1B42E5FE0A52E8CE0E81AF1080115EB
S1131760110581F0A8950FB6F894A895B1BC0FBEE9
S1131770A1BCB7016C0D7D1D80E090E0E0DE01505E
S11317801109EACFA8DD7C018CE08C9F60018D9F5C
S1131790D00C112400E010E028E1B22E3FE0A32E8B
S11317A00C501109CE15DF0509F431C0A8950FB608
S11317B0F894A895B1BC0FBEA1BCB601600F711F0F
S11317C080E090E0BCDE2197EBCFE7DC8CE08C9FDF
S11317D070018D9FF00C112400E010E088E1D82EF8
S11317E09FE0C92E8CE0E81AF108A8950FB6F8948A
S11317F0A895D1BC0FBEC1BCB701600F711F80E0BA
S113180090E09DDE21970C501109209771F71D9AE5
S1131810DF91CF911F910F91FF90EF90DF90CF90C8
S1131820BF90AF90089580912B058F5F80932B0517
S11318308C3380F080912A058F5F80932A05109263
S11318402B058C3338F080912C058F5F80932C0509
S113185010922A050895809126058F5F80932605AE
S11318608C3380F0809125058F5F8093250510923D
S113187026058C3338F0809127058F5F80932705E8
S1131880109225050895809123058F5F8093230589
S11318908C3380F0809122058F5F80932205109213
S11318A023058C3338F0809124058F5F80932405C1
S11318B01092220508951F920F920FB60F921124D1
S11318C08F939F93809114059091150501969093A1
S11318D01505809314059F918F910F900FBE0F9063
S11318E01F90189587B7816087BF83B7836083BFD4
S11318F008951F920F920FB60F9211240BB60F92F8
S11319002F933F934F935F936F937F938F939F9303
S1131910AF93BF93EF93FF938091FC049091FD04E8
S113192001969093FD048093FC04843F914020F43D
S113193080916200826003C0809162008D7F8093F9
S1131940620080918905813240F01092890561EF2F
S113195074E08CED95E00E94A6208091890588238F
S1131960C9F0809102059091030501968536910591
S113197028F490930305809302050CC0109203058C
S1131980109202051092890561EF74E08CED95E0E8
S11319900E94A62080918205909183050197D9F435
S11319A080918005909181050196893B2BE09207F7
S11319B028F4909381058093800504C010928105DA
S11319C010928005D99A8091800590918105853681
S11319D0910508F0D9988091FC049091FD04813D13
S11319E0934008F4A8C080911905813049F480918E
S11319F0510590915205019690935205809351059B
S1131A0080915705813021F080916B058130D9F4A4
S1131A1022DF80911405909115059093130580930E
S1131A2012051092150510921405809120058F5F00
S1131A308D3318F48093200506C08CE38093200531
S1131A4081E0809321059091690521E080915805FA
S1131A50813009F020E081E030916A05313009F0ED
S1131A6080E0822B11F49130D9F480911F058130EC
S1131A7051F48091100590911105019690931105F0
S1131A80809310050DC0911102C0FDDE09C0809144
S1131A9061059091620501969093620580936105BA
S1131AA0C2DE1092FD041092FC04809147059091CF
S1131AB04805019751F480911E058F5F853018F415
S1131AC080931E0502C010921E0580917E059091A0
S1131AD07F05019690937F0580937E058837910555
S1131AE031F40E94F30010927F0510927E058091DC
S1131AF08705813071F4809186058F5F8093860518
S1131B008B3530F09398109287051092860501C0AA
S1131B10939A8091FF059091000601968F3521E0FC
S1131B20920728F4909300068093FF0504C0109256
S1131B3000061092FF05FF91EF91BF91AF919F9125
S1131B408F917F916F915F914F913F912F910F9062
S1131B500BBE0F900FBE0F901F9018958091270514
S1131B6090E00E94360261E086EA92E00E9434012D
S1131B708091250590E00E94360261E086EA92E0B9
S1131B800E9434018091260590E00C943602179847
S1131B9083B193B18068892B83B98AB780688ABF7F
S1131BA089B7806889BF0895CF92DF92EF92FF9240
S1131BB00F931F93CF93DF93CDB7DEB7E8970FB69C
S1131BC0F894DEBF0FBECDBF88E3E6E0F1E0DE01AE
S1131BD0119601900D928A95E1F780E40E949D0090
S1131BE08E010F5F1F4F7E0189E3E80EF11C88E12F
S1131BF0D82E9FE0C92EF80181918F010E94BC006C
S1131C00A8950FB6F894A895D1BC0FBEC1BC0E150B
S1131C101F0589F7E8960FB6F894DEBF0FBECDBF57
S1131C20DF91CF911F910F91FF90EF90DF90CF90B4
S1131C30089553B343B333B323B3852F817090E036
S1131C404270840F911D3870830F911D2072820F92
S1131C50911D039709F080C0C69A2FEF34E34CE03E
S1131C60215030404040E1F700C00000C698A895DC
S1131C7088E19FE00FB6F894A89581BD0FBE91BD91
S1131C80C59A2FEF34E34CE0215030404040E1F757
S1131C9000C00000C598A8950FB6F894A89581BD1A
S1131CA00FBE91BDC29A2FEF34E34CE02150304077
S1131CB04040E1F700C00000C298A8950FB6F89420
S1131CC0A89581BD0FBE91BDC09A2FEF34E34CE0BF
S1131CD0215030404040E1F700C00000C098A89572
S1131CE00FB6F894A89581BD0FBE91BD1E9A2FEF33
S1131CF034E34CE0215030404040E1F700C00000A4
S1131D001E98A8950FB6F894A89581BD0FBE91BDF5
S1131D10C49A2FEF34E34CE0215030404040E1F7C7
S1131D2000C00000C498A8950FB6F894A89581BD8A
S1131D300FBE91BDDB9A2FEF30E742E021503040D7
S1131D404040E1F700C00000DB98A8950FB6F89476
S1131D50A89581BD0FBE91BD089582B182B9E1E617
S1131D60F0E0808180838081808383B1846183B942
S1131D708B9A8081808382B1806682B980818264FB
S1131D80808387B3856D87BB84B384BB85B38B6243
S1131D9085BB1D9AD39A8BB38BBBA4E6B0E08C9120
S1131DA082608C938B9A9398A5E6B0E08C918260C4
S1131DB08C93BF9AC598BD9AC598D19AD99A169A08
S1131DC01E98BE9AC698808184608083E2E6F0E023
S1131DD0808184608083BA9AC298B89AC098BC9A69
S1131DE0C4982FEF89E698E1215080409040E1F7B4
S1131DF000C000000E94F3000E9492010E94320180
S1131E0080E80E949D0064E182ED91E00E9434012B
S1131E1080EC0E949D0064E187EE91E00E94340111
S1131E2084E90E949D0064E18CEF91E00E943401FA
S1131E3084ED0E949D0064E181E192E00E943401FE
S1131E400E9449010E943201E9E0F6E081E08083CA
S1131E5082E0838383E0868385E0818786E08287CE
S1131E6087E0838788E0848789E085878AE086879E
S1131E7083E387878BE0828B8CE0858B8DE0808F7A
S1131E808EE0838F8FE0848F80E1858F81E1868F60
S1131E9082E1878F83E180A384E181A385E184A328
S1131EA086E187A387E182A788E185A789E180ABE2
S1131EB08AE183AB8BE186AB8CE180934B068DE1A9
S1131EC084AF10DD64DE83E390E0E0D878946CDEC8
S1131ED08BB38BBB0895CF93DF93C9E0D6E08881A1
S1131EE090E00E94E02080930B058B8190E00E949B
S1131EF0E020809376058E8190E00E94E02080931C
S1131F008805898590E00E94E020809309058A85F0
S1131F1090E00E94E020809308058B8590E00E9469
S1131F20E020809307058C8590E00E94E020809358
S1131F3006058D8590E00E94E020809305058E853E
S1131F4090E00E94E020809304058F8590E00E9439
S1131F50E02080930A058CE291E00E94E8209093AF
S1131F600D0580930C058D8990E00E94E0208093FC
S1131F70000589A190E00E94E02090E090937D0507
S1131F8080937C05DF91CF910895CF93609188056C
S1131F9080910B05861740F46E5F60930B0580916A
S1131FA0090690E00E94ED2080917605833348F085
S1131FB060910B056093760580910C0690E00E9479
S1131FC0ED2080910B05853648F08EE180930B055A
S1131FD0809109066EE190E00E94ED2080918805D1
S1131FE0853648F089E18093880580910C0669E183
S1131FF090E00E94ED2091E080910905853608F477
S113200090E081E020910805253608F480E0892BD2
S113201021F4809107058536D0F082E0809309058C
S113202080910F0662E090E00E94ED201092080576
S11320308091100660E090E00E94ED208FE0809394
S11320400705809111066FE090E00E94ED2091E079
S113205080910605853608F490E081E0209105051D
S1132060253608F480E0892B21F480910405853617
S1132070C8F0109206058091120660E090E00E947C
S1132080ED20CFE0C0930505809113066FE090E04A
S11320900E94ED20C0930405809114066FE090E047
S11320A00E94ED2080910A05853648F08AE28093EB
S11320B00A05809115066AE290E00E94ED20809165
S11320C00005883348F08FE08093000580911B065B
S11320D06FE090E00E94ED2080917C0590917D0559
S11320E003976CF081E090E090937D0580937C05EC
S11320F08091270661E090E0CF910C94ED20CF9180
S11321000895CF93DF93C9E0D6E088816EE190E033
S11321100E94ED208B8163E290E00E94ED208E818D
S11321206CE190E00E94ED20898562E090E00E94DD
S1132130ED208A8560E090E00E94ED208B8560E0D0
S113214090E00E94ED208C8560E090E00E94ED20FC
S11321508D856FE090E00E94ED208E8560E090E038
S11321600E94ED208F856AE290E00E94ED208D8927
S11321706FE090E00E94ED2089A161E090E00E9470
S1132180ED2060EE71E08CE291E0DF91CF910C9450
S1132190FA2091E080911805813009F090E081E007
S11321A020911B05213009F080E0892B91E02091DA
S11321B05505213009F090E0982B81E020917B05B2
S11321C0213009F080E0892B31F48091470590910A
S11321D04805019711F4C49A0895C4980895039B7F
S11321E011C080917A058F5F80937A058333C8F09C
S11321F081E0809318051092790588E780937A0529
S11322001E980895809179058F5F809379058531B3
S113221040F01092180510927A0588E780937905AA
S11322201E9A089580917C0590917D0581309105D9
S1132230D1F4209157052130D1F420916B0521115F
S113224016C020912105213091F42091450530914B
S113225046052436310530F4C59A90934805809399
S113226047050895C59810924805109247050895AA
S113227020912505822F65E00E947D20911116C0D2
S11322802223A1F080912605811110C080917C0544
S113229090917D05019751F48091450590914605F3
S11322A08436910518F481E0809387050895CF93CF
S11322B0DF9340910B0550E02091750530E0241B1D
S11322C0350B64E6629FC001639F900D11246091F9
S11322D0760570E0641B750B0E948920EB01CA56D9
S11322E0DF4FC634D10538F0CF3FD10531F028F0A7
S11322F0CFEFD0E002C0C6E9D0E0C3BD8091250590
S1132300823018F480912C0581118CDF8091250591
S1132310823020F480912C05882331F0C73ED1050A
S113232018F0DF91CF915BCFDF91CF910895909119
S1132330260580910705981780F0909125058091D6
S11323400805981750F081E090E03091270520911E
S11323500905321720F480E0089580E090E00895A4
S11323609091260580910405891780F490912505A4
S113237080910505981750F081E090E03091270591
S113238020910605321720F480E0089580E090E063
S113239008950E947200109225051092260510924D
S11323A0270581E08093570510922005C69A089569
S11323B0C798C698109225051092260510922705F5
S11323C081E080936B050E947F00C79810922105DD
S11323D0109213051092120510927A051092790545
S11323E010920F0510920E05089510925705109241
S11323F0210510920F0510920E05C798D9DF10928F
S11324006B0510927A0510927905109225051092A9
S11324102605109227051092190510925205109264
S11324205105089590917505809188058917A0F04C
S1132430BFDF1092250510922605109227051092F1
S11324406B051092690510922105109257051092A0
S113245048051092470508956ADF019709F4A8CF4B
S113246026CF9091750580917405981738F01092D5
S11324704E0510924D0510925605D4CF80914D050E
S113248090914E05019690934E0580934D058739A2
S11324909105E0F01092570510922105109258050D
S11324A010920F0510920E0510927A05109279057C
S11324B0C7987EDF10926B051092250510922605B1
S11324C01092270510924E0510924D0508958091A3
S11324D0750590910B05981708F07CC090917405D0
S11324E0981780F520911B0521112CC081E0809361
S11324F019051092690510926205109261051092F7
S11325002205109223051092240580915105909183
S11325105205409708F45EC01092500510924F0582
S11325201092190536DF80915105909152058B3F29
S1132530910508F44FC08EEC90E09093520580937F
S113254051050895891710F580914F059091500514
S113255001969093500580934F051092190585318B
S11325609105C0F110925205109251051092580530
S113257010925705109221058B3F910558F18EEC6E
S113258090E09093500580934F050895109219059B
S1132590109269051092620510926105109222054D
S11325A010922305109224051092520510925105A1
S11325B010924C0510924B05109248051092470555
S11325C0109211051092100510921F0510925505D6
S11325D01E98C598089580915705811106C077DF2C
S11325E010924E0510924D0508958130B9F58091F1
S11325F01B05813091F4F9DE1092570510926B059A
S11326001092210510925205109251051092250541
S11326101092260510922705089580916B0581116B
S113262002C026DE1ECF9CDE892BC1F01092570516
S113263010926B05109221051092520510925105CB
S113264010922505109226051092270510920F0569
S113265010920E0510927A0510927905089565E09E
S113266086E292E00E9434018091750590E00E9418
S113267036028FED0E94BC0062E08CE292E00E9480
S1132680340166E08FE292E00E9434018091740587
S113269090E00E9436028FED0E94BC0061E086E368
S11326A092E00C943401CF92DF92EF92FF92CF9399
S11326B0DF9320E030E040E251E46091390570910D
S11326C03A0580913B0590913C050E941A200E9496
S11326D03C1F6B017C01EB0180910C0590910D0571
S11326E0C816D90610F481E00FC09C012C5E3F4F40
S11326F0C216D30610F482E007C08896C816D9061D
S113270010F483E001C084E00E94BC0080910C05B9
S113271090910D05C817D90700F580911A058F5FB0
S1132720863018F480931A0502C010921A0580911D
S11327301A05833030F464E084E893E00E943401A5
S113274003C0C6010E94530266E088E392E00E943F
S113275034016BE08FE392E035C0C6010E9453025E
S113276066E088E392E00E94340180917C059091B8
S11327707D05019721F565E08BE492E00E94340128
S113278080914505909146058536910538F0893E3E
S1132790934048F461E086E591E003C062E085E59A
S11327A091E00E9434018091450590914605DF91A6
S11327B0CF91FF90EF90DF90CF900C94360269E0B8
S11327C08FE793E0DF91CF91FF90EF90DF90CF9070
S11327D00C94340180E80E949D0064E181E192E060
S11327E00E94340180EC0E949D0039DF84E90E943C
S11327F09D0065E081E592E00E94340180914705E7
S113280090914805892B09F580915705811110C0D5
S113281080911905813041F467E087E592E01CC09E
S113282080915705811104C067E08FE592E014C0E0
S11328308130A1F480916B0567E0813019F487E65B
S113284092E00AC08FE692E007C080911E058330B3
S113285038F767E087E792E00E9434018091190518
S1132860811102C07BD90BC0809151059091520512
S11328700E94360266E08FE792E00E94340184ED04
S11328800E949D0010CFA8959FE088E10FB6F894B0
S1132890A89581BD0FBE91BD369A8FED9EE201973A
S11328A0F1F700C000000E949B01369A369A8FED22
S11328B09EE20197F1F700C000000E94FF010E9410
S11328C079038FE99FE00197F1F700C000000E94AF
S11328D083030E94A4048FE99FE00197F1F700C0ED
S11328E000000C94AE04CF92DF92EF92FF9220E0AE
S11328F030E040E251E46091390570913A058091ED
S11329003B0590913C050E941A206B017C0160916B
S11329100C0570910D0580E090E00E94681F9B01FA
S1132920AC01C701B6010E94CB1E87FF1DC0809178
S11329301D058F5F853618F480931D052EC089E62A
S113294080931D0581E080931B0510921C058091E6
S1132950820590918305892B01F581E090E09093A5
S113296083058093820519C080911C058F5F85368D
S113297018F480931C0511C089E680931C051092FD
S11329801B0510921D058091820590918305019786
S113299021F41092830510928205FF90EF90DF904E
S11329A0CF900895CF93DF939091710591116CC0EE
S11329B0809173058F5F8D3008F081E080937305FB
S11329C0809173058A3069F40E942F078091F9047D
S11329D080936F058091FA0480936D058091FB04C8
S11329E00EC08B3079F40E942F078091F7048093F6
S11329F06F058091F80480936D058091F6048093AF
S1132A006C055AC021E0843008F020E091E08C305D
S1132A1009F090E0922BC82FD0E021F49AEF980FA0
S1132A209330C8F4873041F48CE291E00E94E820AE
S1132A3090934A05809349052197CE01880F991FE9
S1132A40C80FD91FC75FD94F888190E00E94E0204A
S1132A5080936F0531C02197CE01880F991FC80F4D
S1132A60D91FC75FD94F888190E00E94E0208093EE
S1132A706F05898190E00E94E02080936D058A8132
S1132A8090E00E94E020BBCF9130B1F480916F05BB
S1132A908F5F80936F05209173052C3021F4833070
S1132AA010F090936F058091490590914A05019625
S1132AB090934A0580934905DF91CF910895CF9370
S1132AC0DF939091710591116BC0809173058150D2
S1132AD009F48CE080937305809173058A3069F45E
S1132AE00E942F078091F90480936F058091FA0466
S1132AF080936D058091FB040EC08B3079F40E94A5
S1132B002F078091F70480936F058091F8048093D8
S1132B106D058091F60480936C055EC021E08430DD
S1132B2008F020E091E08C3009F090E0922BC82F5F
S1132B30D0E021F49AEF980F9330C8F4873041F431
S1132B408CE291E00E94E82090934A058093490525
S1132B502197CE01880F991FC80FD91FC75FD94F7E
S1132B60888190E00E94E02080936F0535C0219712
S1132B70CE01880F991FC80FD91FC75FD94F88810D
S1132B8090E00E94E02080936F05898190E00E948C
S1132B90E02080936D058A8190E00E94E020BBCF05
S1132BA09130D1F480916F05815080936F0520910D
S1132BB073052C3041F4811104C082E080936F05C9
S1132BC002C090936F058091490590914A05019741
S1132BD090934A0580934905DF91CF9108950F930F
S1132BE01F93CF93DF9353B343B333B323B3852FEF
S1132BF0817090E04270840F911D3870830F911D95
S1132C0020728C01020F111D08321105B9F480E005
S1132C1090E00E94510960E088E990E00E94ED2074
S1132C200E94320180E80E949D006AE086E892E0FA
S1132C300E9434010E9449010E9449018091650566
S1132C409091660501969093660580936505853F8E
S1132C50914088F01092720582E080936005109292
S1132C60730586E292E090936605809365058091F2
S1132C7065008D7F03C0809165008260809365004C
S1132C8080916505909166058D32914010F0109207
S1132C9001050B32110509F4B9C183B38170C82F42
S1132CA0E0E0DE2F43B3427050E023B3287030E0FD
S1132CB083B3807290E0BE01640F751F620F731FAF
S1132CC0680F791F6B32710509F4A0C1DB9AFFEF1D
S1132CD0A0E7E2E0F150A040E040E1F700C00000CE
S1132CE0DB986A32710509F0D5C01092660510921E
S1132CF0650588E19FE0C130D10569F023B32170F7
S1132D00C22FF0E0DF2FA8950FB6F894A89581BDE7
S1132D100FBE91BDF0CF8091720581110BC0D0938D
S1132D206805C093670581E0809372051092710570
S1132D308093730580916005811128C08091670597
S1132D4090916805019709F0A1C080915F05909169
S1132D507205811107C0923009F098C081E0809318
S1132D605F0594C0813009F091C0933009F08EC0A2
S1132D7090910401973839F0109272051092680509
S1132D801092670582E08093600580C0813009F06D
S1132D903DC18091670590916805019709F036C19E
S1132DA0809172052091710591E0211190E08130AC
S1132DB071F4992309F46AC080917305813009F094
S1132DC065C08091090690E00E94E02040C08230F6
S1132DD069F4992309F45AC081E08093710581E074
S1132DE090E0909364058093630550C0833009F0AC
S1132DF04DC0213009F04AC080917305843008F039
S1132E0020E091E08C3009F090E0922B19F4865088
S1132E10833020F482E08093710538C0809163058B
S1132E209091640581309105A9F481E08093710546
S1132E3082E08093720582E090E090936405809331
S1132E40630580916F058093290580916D058093BA
S1132E506F051CC0029799F481E08093710582E0AC
S1132E608093720583E090E09093640580936305FA
S1132E7080916F058093280580916C05E8CF82E0EE
S1132E808093710510926405109263058091720518
S1132E908F5F5EC069327105F9F410926605109275
S1132EA0650580917205833008F07EC098E12FE0BB
S1132EB04230510559F043B3427050E0A8950FB623
S1132EC0F894A89591BD0FBE21BDF2CF81116CC0BD
S1132ED081E0809301059AC06332710509F03BC01B
S1132EE01092660510926505809172058330A8F4EE
S1132EF098E14FE02830310559F023B3287030E0D1
S1132F00A8950FB6F894A89591BD0FBE41BDF2CF18
S1132F10811103C01092010579C080916005813050
S1132F2009F065C08091670590916805019709F0E3
S1132F306DC080917305893009F063C0809171057B
S1132F40813009F05EC0109271051092700581E025
S1132F50809372055BC06B30710509F057C0109205
S1132F6066051092650528E13FE0809759F083B328
S1132F70807290E0A8950FB6F894A89521BD0FBE75
S1132F8031BDF3CF80917205882309F43FC082E0FC
S1132F908093600580917105811103C010927205C0
S1132FA035C0813099F5CFCF809160058130B9F477
S1132FB08091670590916805019741F580917305AB
S1132FC0893041F480917105813021F482E080934D
S1132FD071051CC0DF91CF911F910F91E3CC8091BB
S1132FE05F05813099F4809104018F5F07C080915F
S1132FF05F05813059F4809104018150809304016C
S113300005C0DF91CF911F910F9159CDDF91CF91E1
S11330101F910F910895809171058823A9F0813043
S113302009F088C080916305909164058130910511
S1133030E1F480916F05803218F08FE180936F0581
S113304080916E05853048F480916F0590E00E9470
S1133050360261E084E992E003C063E082E992E031
S11330600E94340180916D051AC08230910561F58A
S113307080916F058D3018F08CE080936F059091EE
S11330806E05809129059530C0F490E00E943602C7
S113309061E084E992E00E94340180916F0590E040
S11330A00E94360263E089E992E00E943401809133
S11330B06C0590E00E9436023DC090E00E9436020A
S11330C066E086E992E0F1CF0397A1F580916F0560
S11330D08C3318F08BE380936F0590916E0580918B
S11330E029059530A8F490E00E94360261E084E955
S11330F092E00E9434018091280590E00E943602FB
S113310063E089E992E00E94340180916F05D1CF98
S113311090E00E94360261E084E992E00E9434016A
S11331208091280590E00E94360265E08DE992E0E6
S11331300E94340164E084E893E00C9434018091AB
S113314071058823A9F0813009F088C08091630556
S11331509091640581309105E1F480916F05883187
S113316018F087E180936F0580916E05853048F4EF
S113317080916F0590E00E94360261E086EA92E059
S113318003C063E084EA92E00E94340180916D05FB
S11331901AC08230910561F580916F058C3318F067
S11331A08BE380936F0590916E058091290595308E
S11331B0C0F490E00E94360261E086EA92E00E9448
S11331C0340180916F0590E00E94360261E086EA46
S11331D092E00E94340180916C0590E00E943602D6
S11331E03DC090E00E94360264E083EA92E0F1CFB1
S11331F00397A1F580916F058C3318F08BE38093CE
S11332006F0590916E05809129059530A8F490E0A2
S11332100E94360261E086EA92E00E9434018091C5
S1133220280590E00E94360261E086EA92E00E945E
S1133230340180916F05D1CF90E00E94360261E0A5
S113324086EA92E00E9434018091280590E00E9471
S1133250360263E088EA92E00E94340166E082E884
S113326093E00C943401CF93DF93EC0180E80E9447
S11332709D0064E18CEA92E00E94340180EC0E949B
S11332809D00FE013197EC30F105A0F5EA5BFF4F9C
S113329054C760E182EC92E02BC060E183ED92E0E0
S11332A027C06FE084EE92E023C06CE084EF92E0EC
S11332B01FC06CE081E093E01BC064E18EE093E00A
S11332C017C064E183E293E013C06EE088E393E007
S11332D00FC064E187E493E00BC066E08CE593E003
S11332E007C066E083E693E003C069E08AE693E002
S11332F00E94340190917105992339F080916E05F3
S11333008F5F80936E058B3010F010926E05809164
S11333107305893091F484E90E949D0080917105C0
S1133320811104C064E184E793E038C1813009F07D
S113333037C164E189E893E031C18B3011F46BDE6D
S11333402FC18A3011F4FBDE2BC18830C1F49923DC
S113335069F081E08093710580916E05853030F4C9
S113336062E086E893E00E94340105C080916F0515
S113337090E00E94360264E08EE993E00FC186304B
S113338001F58CE90E949D0080917105882369F004
S113339081E08093710580916E05853030F462E0A0
S11333A086E893E00E94340105C080916F0590E0A7
S11333B00E9436028FED0E94BC0061E086E392E039
S11333C0EDC08230C9F4992359F081E080937105EE
S11333D080916E05853020F462E086E893E044C075
S11333E080916F0590E00E9436028FED0E94BC0030
S11333F062E08CE292E0D2C08730F1F48CE90E9462
S11334009D0080917105882369F081E080937105A6
S113341080916E05853030F464E083EA93E00E9485
S1133420340106C08091490590914A050E945302D7
S113343064E088EA93E0B2C0282F2D7F2130D1F4D4
S1133440911115C080916F054AE066E976E090E03D
S113345084D6E6E9F6E001900020E9F73197BF0150
S11334606659764086E996E00E943401BECF2093E7
S11334707105AECF8C30C1F491110BC080916F05F2
S11334806BE0823019F48DEA93E088C089EB93E015
S113349085C0913009F08CC080916E05853070F73D
S11334A06BE085EC93E07AC08450823008F078C0F9
S11334B0911109C080916F0590E00E94360261E08D
S11334C086EA92E011C0913009F06AC080916305E8
S11334D0909164058130910561F480916E05853089
S11334E048F363E084EA92E00E94340180916D0520
S11334F013C08230910511F590916E0580912905D4
S1133500953088F490E00E94360261E086EA92E009
S11335100E94340180916F0590E00E94360261E0C0
S113352086EA92E006C090E00E94360264E083EAF4
S113353092E00E94340180916C051CC0039781F5D0
S113354090916E05809129059530C0F490E00E9419
S1133550360261E086EA92E00E94340180912805F7
S113356090E00E94360261E086EA92E00E94340113
S113357080916F0590E00E94360212C090E00E9494
S1133580360261E086EA92E00E94340180912805C7
S113359090E00E94360263E088EA92E00E943401DF
S11335A0809173059AEF980F923050F0893041F072
S11335B084E90E949D0064E184E793E00E94340161
S11335C084ED0E949D0064E184E793E0DF91CF9154
S11335D00C943401CF93DF93809167059091680533
S11335E0019709F0C2C00E94320180E80E949D0048
S11335F064E181ED93E00E94340180917305893088
S113360041F464E186EE93E00E9434010E94790B58
S1133610A0C021E0843008F020E091E08C3009F073
S113362090E0922B21F49AEF980F9330B0F4873006
S113363041F46091490570914A058CE291E0DAD534
S11336405DC090E00197FC01EE0FFF1F8E0F9F1FDE
S1133650FC01E75FF94F80814DC08A3071F44091DD
S11336606F0550E06091280570E08091290590E095
S11336700E94CC070E94C70741C08B3071F440916F
S11336806F0550E06091280570E08091290590E075
S11336900E94FA070E94F50731C090E00197FC01EF
S11336A0EE0FFF1F8E0F9F1FFC01E75FF94F808114
S11336B06091290590E091D58091730590E0019780
S11336C0FC01EE0FFF1F8E0F9F1FFC01E75FF94FF8
S11336D081816091280590E080D58091730590E008
S11336E00197FC01EE0FFF1F8E0F9F1FFC01E75F88
S11336F0F94F828160916F0590E06FD5C091730599
S1133700C93010F0CC30C9F4D0E02197CE01880F35
S1133710991FC80FD91FC75FD94F888190E050D532
S113372080936F05898190E04BD580936D058A81E4
S113373090E046D580936C050CC080916F05809312
S11337406C058091290580936F05809128058093ED
S11337506D05109264051092630582E080937205F2
S1133760109229051092280508C080E80E949D0047
S113377063E18BEF93E00E943401DF91CF910C94CD
S11337803201CF93DF930E94320181E0809373056D
S113379010926005C8E1DFE080916005811142C0AC
S11337A0A8950FB6F894A895C1BD0FBED1BD17DA80
S11337B080E80E949D0080915F0564E1811103C04F
S11337C08FE094E002C085E294E00E94340180EC32
S11337D00E949D006AE08BE394E00E943401809192
S11337E05F05813051F480916E05853030F463E0DB
S11337F085E893E00E94340105C08091040190E0C3
S11338000E94360261E086E494E00E9434018091D3
S11338106E058F5F80936E058B3008F4BDCF1092D8
S11338206E05BACF813069F48093720510926E05EB
S11338308091090690E0C4D480936F05C8E1DFE06D
S113384013C01092720528C0A8950FB6F894A895D5
S1133850C1BD0FBED1BDC3D980917105823048F47A
S11338608091730590E0FFDC809172058111ECCFAB
S113387013C0823021F4AEDE10927105F5CF83308F
S113388099F71092720510927305109271051092B7
S1133890680510926705E8CF0E94320180E80E9413
S11338A09D006EE088E494E00E9434010E94490186
S11338B0A8959FE088E10FB6F894A89581BD0FBE46
S11338C091BD1092730510927205109260051092CA
S11338D05F0582E8809304010E943201DF91CF9159
S11338E00C946B0F049B11C0809117058F5F80931C
S11338F017058536C8F081E080937B051092160584
S113390088E780931705C29A0895809116058F5F02
S113391080931605853640F010927B0510921705AA
S113392088E780931605C29808950E942F0780E8BF
S11339300E949D0065E087E594E00E943401809137
S1133940F70490E00E94360261E084E992E00E946C
S113395034018091F80490E00E94360263E089E922
S113396092E00E9434018091F60490E00E943602B5
S113397065E083E893E00E94340180EC0E949D009E
S113398065E08BEF92E00E9434018091F90490E0AD
S11339900E94360261E086EA92E00E94340180913E
S11339A0FA0490E00E94360261E086EA92E00E9406
S11339B034018091FB0490E00E94360267E081E8C4
S11339C093E00E94340184E90E949D006EE08DE53D
S11339D094E00E9434018091000590E00E94360238
S11339E064E08EE993E00E94340184ED0E949D001E
S11339F06BE08CE694E00E9434018091FE04909187
S1133A00FF048536910520F061E086E591E003C06E
S1133A1062E085E591E00E9434018091FE0490917A
S1133A20FF040E94360261E087E893E00E943401BB
S1133A3088E990E0C5D364E0813019F488E794E024
S1133A4002C084E893E00C94340180E80E949D0055
S1133A5064E184E793E00E94340180EC0E949D00BD
S1133A6064E18DE794E00E94340184E90E949D00A2
S1133A7064E182E994E00E94340184ED0E949D0097
S1133A8064E184E793E00C9434019091750580918E
S1133A900A05891790F4809178058F5F853618F4AC
S1133AA080937805089588E78093780510927705C8
S1133AB081E080935505C09A0895809177058F5FC2
S1133AC0853618F480937705089588E78093770501
S1133AD01092780510925505C09808950E94AD0E75
S1133AE00E943A030E94650480E80E949D0064E1FC
S1133AF087EA94E00E9434010E94190EDB9A2FEFAA
S1133B0080E792E0215080409040E1F700C000003F
S1133B10DB98A8959FE088E10FB6F894A89581BD3D
S1133B200FBE91BDC2E3D8E11FE0369A0E949B010B
S1133B308FE19EE40197F1F700C00000369A0E94DD
S1133B40FF018FE19EE40197F1F700C000000E949D
S1133B5079030E9483030E94A4040E94AE04A895E2
S1133B600FB6F894A895D1BD0FBE11BDC150E9F6AA
S1133B709FEF26E181E1915020408040E1F700C0B1
S1133B8000008091450690E023D3019721F10E9423
S1133B9081108091450661E070E090E02BD342E310
S1133BA050E06DE270E08DE090E00E94CC070E944E
S1133BB0C70744E150E063E070E08FE090E00E94CA
S1133BC0FA070E94F50780E090E00E94510980E026
S1133BD090E00E945E090E946B0F0E9432018CEB00
S1133BE094E00E942B088BED94E00E942B0883E064
S1133BF090E090935A05809359058BB38BBB84ED69
S1133C000E949D0080918205909183050E94360256
S1133C1080918405909185050E94360280917A05F1
S1133C2090E00E9436028091790590E00E9436026D
S1133C30C8E1DFE013E6A8950FB6F894A895C1BDD6
S1133C400FBED1BD0E947C0A6091120570911305CC
S1133C5080E090E03DD127EF3EED43EA51E4EAD124
S1133C600BD170934605609345050E94C50F0E94D1
S1133C70431480917505853010F410937505809177
S1133C807405853010F4109274052CDE80917B0548
S1133C90811109C080910105811103C00E94EA13BA
S1133CA005C043DE03C0D1DE0E94F5110E94EB1271
S1133CB00E9473140E94EF15E8DE0E94C9108091DF
S1133CC07205882309F4B7CF5CDDB5CF5058BB2704
S1133CD0AA270ED075C166D130F06BD120F031F433
S1133CE09F3F11F41EF45BC10EF4E095E7FB51C154
S1133CF0E92F77D180F3BA17620773078407950712
S1133D0018F071F49EF58FC10EF4E0950B2EBA2FC6
S1133D10A02D0B01B90190010C01CA01A0011124CD
S1133D20FF27591B99F0593F50F4503E68F11A1679
S1133D30F040A22F232F342F4427585FF3CF46950A
S1133D4037952795A795F0405395C9F77EF41F162C
S1133D50BA0B620B730B840BBAF09150A1F0FF0FF6
S1133D60BB1F661F771F881FC2F70EC0BA0F621FE2
S1133D70731F841F48F4879577956795B795F795D2
S1133D809E3F08F0B3CF9395880F08F09927EE0F64
S1133D90979587950895D9D008F481E008950CD0BB
S1133DA00FC107D140F0FED030F021F45F3F19F08D
S1133DB0F0C0511139C1F3C014D198F39923C9F358
S1133DC05523B1F3951B550BBB27AA27621773071D
S1133DD0840738F09F5F5F4F220F331F441FAA1FD1
S1133DE0A9F333D00E2E3AF0E0E830D09150504091
S1133DF0E695001CCAF729D0FE2F27D0660F771F3F
S1133E00881FBB1F261737074807AB07B0E809F020
S1133E10BB0B802DBF01FF2793585F4F2AF09E3FB5
S1133E20510568F0B6C000C15F3FECF3983EDCF387
S1133E30869577956795B795F7959F5FC9F7880F2E
S1133E40911D9695879597F90895E1E0660F771F80
S1133E50881FBB1F621773078407BA0720F0621B11
S1133E60730B840BBA0BEE1F88F7E095089504D00A
S1133E706894B111D9C00895BCD088F09F5790F0D0
S1133E80B92F9927B751A0F0D1F0660F771F881F7B
S1133E90991F1AF0BA95C9F712C0B13081F0C3D096
S1133EA0B1E00895C0C0672F782F8827B85F39F034
S1133EB0B93FCCF3869577956795B395D9F73EF4DA
S1133EC090958095709561957F4F8F4F9F4F089582
S1133ED0E89409C097FB3EF49095809570956195A0
S1133EE07F4F8F4F9F4F9923A9F0F92F96E9BB2756
S1133EF09395F695879577956795B795F111F8CFD2
S1133F00FAF4BB0F11F460FF1BC06F5F7F4F8F4F3C
S1133F109F4F16C0882311F096E911C0772321F032
S1133F209EE8872F762F05C0662371F096E8862FCA
S1133F3070E060E02AF09A95660F771F881FDAF721
S1133F40880F9695879597F90895990F0008550F4E
S1133F50AA0BE0E8FEEF16161706E807F907C0F00B
S1133F6012161306E407F50798F0621B730B840B13
S1133F70950B39F40A2661F0232B242B252B21F4ED
S1133F8008950A2609F4A140A6958FEF811D811D8D
S1133F90089597F99F6780E870E060E008959FEFC7
S1133FA080EC089500240A941616170618060906CC
S1133FB0089500240A94121613061406050608959B
S1133FC0092E0394000C11F4882352F0BB0F40F423
S1133FD0BF2B11F460FF04C06F5F7F4F8F4F9F4F63
S1133FE0089557FD9058440F551F59F05F3F71F0E5
S1133FF04795880F97FB991F61F09F3F79F087954C
S11340000895121613061406551FF2CF4695F1DFD4
S113401008C0161617061806991FF1CF8695710564
S1134020610508940895E894BB2766277727CB0198
S113403097F908950BD0C4CFB5DF28F0BADF18F094
S1134040952309F0A6CFABCF1124EECFCADFA0F39E
S1134050959FD1F3950F50E0551F629FF001729F19
S1134060BB27F00DB11D639FAA27F00DB11DAA1F38
S1134070649F6627B00DA11D661F829F2227B00D85
S1134080A11D621F739FB00DA11D621F839FA00D10
S1134090611D221F749F3327A00D611D231F849F60
S11340A0600D211D822F762F6A2F11249F575040B7
S11340B08AF0E1F088234AF0EE0FFF1FBB1F661F52
S11340C0771F881F91505040A9F79E3F510570F00B
S11340D060CFAACF5F3FECF3983EDCF386957795EB
S11340E06795B795F795E7959F5FC1F7FE2B880F06
S11340F0911D9695879597F90895991B79E004C0C9
S1134100991F961708F0961B881F7A95C9F7809512
S11341100895AA1BBB1B51E107C0AA1FBB1FA6170A
S1134120B70710F0A61BB70B881F991F5A95A9F75C
S113413080959095BC01CD010895EE0FFF1F0024DA
S1134140001C0BBE0790F691E02D0994FB01DC01E5
S113415001900D920020E1F70895BB274A3031F415
S1134160992322F4BDE2909581959F4F01C0BB270E
S1134170FB015527AA27880F991FAA1FA41710F01F
S1134180A41B83955051B9F7A05DAA3308F0A95D2B
S1134190A193009779F7B111B1931192CB0100C0AB
S11341A0DC01FC01672F71917723E1F7329704C09A
S11341B07C916D9370836291AE17BF07C8F3089525
S11341C0E199FECF9FBB8EBBE09A99278DB30895EA
S11341D0A8E1B0E042E050E012C0262FE199FECF02
S11341E09FBB8EBB2DBB0FB6F894E29AE19A0FBE2B
S11341F001960895F2DF272FF1CFDC01CB01FC01FA
S1134200E199FECF06C0FFBBEEBBE09A31960DB23A
S11142100D9241505040B8F70895F894FFCF36
S113421EE022020082010A0A1F1F0E060C180E115C
S113422E11111111111F0E111111111F1F1F0E113A
S113423E111F1F1F1F1F0E111F1F1F1F1F1F0E1FBA
S113424E1F1F1F1F1F1F0A0A1F1F0E060C1845458E
S113425E50524F4D2046554C4C20202020202020DB
S113426E20002D3E003030003A2D00446174653D2F
S113427E0054726F6F6D3D0020546F75743D0020B5
S113428E46414E4D4F44453D002046414E5F414C04
S113429E41524D3D002046696C7465725F4A616DF2
S11342AE3D00204241545F564F4C544147453D001A
S11342BE56002054696D653D004461746120536558
S11342CE6E64696E6720537461727473004E4F206E
S11342DE534156454420454550524F4D2044415478
S11342EE41004269736D696C6C61686972202020AB
S11342FE202020202020005261686D616E6972209A
S113430E526168696D2020202020200042616E6772
S113431E6C616C696E6B204643555F56352E303793
S113432E00485320454E47494E454552494E472075
S113433E4C54442E2000526F6D543A0043200020FA
S113434E546F75543A00430020566F6C742000204D
S113435E4C6F7720766F6C742020002052504D3AAB
S113436E0046414E203A0044656C61792020004F8E
S113437E6666202020200052455354202020004FF2
S113438E6E2020202020004641554C5420200053FE
S113439E6563202020004461746120457261736559
S11343AE640020202F002F20202F3230002F2020B9
S11343BE2020003A20203A003A2020004D656E75E8
S11343CE204974656D2053656C656374696F6E2046
S11343DE200046616E2053746172742054656D70B2
S11343EE3E3D004D61782053706565642054656DC3
S11343FE703E3D0046616E2053746F702054656D9F
S113440E70203C0046616E2052756E54696D653A9B
S113441E0046616E5265737454696D653A00457851
S113442E7472656D652054656D7065726174757214
S113443E653E0046616E20446973636F6E6E6563FC
S113444E7420766F6C743C004461746120496E7400
S113445E657276616C3D00446F776E6C6F6164209B
S113446E44617461202020202020200054696D6551
S113447E3A2000446174653A200052504D204F6634
S113448E663A2000202020202020202020202020DA
S113449E2020202020202020005072657373205588
S11344AE503D59657320446F776E3D4E6F004D69D4
S11344BE6E200020202E2000566F6C74005B4F4639
S11344CE465D2E2E2E2E2020005B4F4E5D2E2E2E60
S11344DE2E2E2020005B2020205D20202020202056
S11344EE005570646174696E67204D656E752E2E6D
S11344FE2E2E2E2E2E0053686F7720446174612069
S113450E4F6E20504320202020200055706461748B
S113451E696E67204D656E75204552524F5200509C
S113452E726F766964652074686520506173737761
S113453E6F726420005072657373204F6B20746F1A
S113454E20456E74657220202020005061737377AD
S113455E6F72643A5B005D002A2A2A4D656E7520DF
S113456E454E442A2A2A00446174653A0053617602
S113457E6520496E74657276616C3A005361766596
S113458E6420446174613A0046756C6C00212121EB
S113459E212120434155544F4E20212121212120F8
S11345AE20004669726520416C61726D20416C6C0D
S11345BE204F464620200053656E736F7220436869
S11345CE65636B2E2E2E2020202020004269736DF1
S11345DE6E696C6C61686972205261686D616E6996
S11345EE7220526168696D200D0A004643552042BF
S11345FE616E676C616C696E6B56312E3031200DB5
S105460E0A009C
S9030000FC
