S012000031354D617263685F48532E73726563C7
S113000051C000006EC000006CC000006AC0000057
S113001068C0000066C0000064C0000062C0000048
S11300200C94400E5EC000005CC000005AC000008A
S113003058C0000056C0000054C0000052C0000068
S11300400C945E0E4EC000004CC000004AC000007C
S113005048C0000046C0000044C0000042C0000088
S113006040C000003EC000003CC000003AC0000098
S113007038C0000036C0000034C0000032C00000A8
S113008030C000002EC000002CC00000A51CAB1C1A
S1130090B11CB71CBD1CC31CC91CCF1CD51CDB1C4C
S11300A0E11CE71C11241FBECFEFD0E1DEBFCDBFA2
S11300B014E0A0E0B1E0E8EBFAE400E00BBF02C01A
S11300C007900D92A23FB107D9F726E0A2EFB4E062
S11300D001C01D92A53AB207E1F70E94BE210C941B
S11300E05A258ECFBF9A8FEF83BD85B5806285BDBB
S11300F085B5886485BD85B5826085BD089513BCCA
S1130100BF980895DA988BB38BBBD8988FEC97E09F
S11301100197F1F700C00000D29A8AB38ABBD09A43
S11301208FEC97E00197F1F700C000008FEC97E0A7
S11301300197F1F700C000000895EFE9FFE031975F
S1130140F1F700C00000DA989BB39BBBD89A9AB32E
S1130150906F9ABB9BB39F70282F207F922B9BBBE1
S1130160D898D89A2BB32F70F0E18F9FC001112437
S1130170822B8BBBD8980895EFECF7E03197F1F719
S113018000C00000000000000000000000000000AB
S1130190DA9A9BB39BBBD89A0000000000009AB384
S11301A0906F9ABB9BB39F70282F207F922B9BBB91
S11301B0000000000000D898000000000000D89A59
S11301C00000000000002BB32F70F0E18F9FC001EE
S11301D01124822B8BBB000000000000D898000083
S11301E00000000008958FEC97E00197F1F700C03C
S11301F0000088DF80E0A1DF8FEC97E00197F1F742
S113020000C0000088E299DF81E097DF9FEF20E7DC
S113021082E0915020408040E1F700C000008FEC64
S113022097E00197F1F700C0000086E086DF8FECCD
S113023097E00197F1F700C000008CE07EDF8FECBF
S113024097E00197F1F700C000008FEC97E0019769
S1130250F1F700C000008FEC97E00197F1F700C0C0
S11302600000089581E069CF08950F931F93CF9301
S1130270DF93009779F0662369F0EC016150062F53
S113028010E00F5F1F4F080F191F899175DFC0170A
S1130290D107D9F7DF91CF911F910F910895A895B8
S11302A09FE088E10FB6F894A89581BD0FBE91BD7B
S11302B02FEF89E698E1215080409040E1F700C09B
S11302C00000A8959FE088E10FB6F894A89581BD39
S11302D00FBE91BD2FEF89E698E1215080409040F8
S11302E0E1F700C00000A8959FE088E10FB6F894FC
S11302F0A89581BD0FBE91BD2FEF89E698E12150ED
S113030080409040E1F700C00000A8959FE088E19C
S11303100FB6F894A89581BD0FBE91BD2FEF89E665
S113032098E1215080409040E1F700C000009ACF4E
S1130330089580E487B986B1876086B986B1806AFA
S113034086B9089585E487B98FE19EE40197F1F7B2
S113035000C0000064B175B1072E000C880B990B26
S11303600E94C3232BEF3AE340E75DE30E9473242A
S1130370609342057093430580934405909345052B
S113038020913805309139052A303105D8F42F5F92
S11303903F4F30933905209338059B01AC016091A0
S11303A03E0570913F0580914005909141050E9462
S11303B0C02260933E0570933F058093400590935F
S11303C0410508952A30310511F51092390510922E
S11303D0380520E030E040E251E460913E05709140
S11303E03F0580914005909141050E942823609328
S11303F03A0570933B0580933C0590933D0510921C
S11304003E0510923F051092400510924105089553
S113041087E487B98FE19EE40197F1F700C00000FB
S113042084B195B1909337058093360520913405B6
S1130430309135052A30310588F42F5F3F4F3093D2
S11304403505209334052091320530913305820F10
S1130450931F9093330580933205089510923505C8
S1130460109234052091320530913305ADECBCEC8B
S11304700E94EB24969587959695879596958795F2
S11304809093310580933005109233051092320514
S11304900895CF93DF93EC010A9720F461E086E599
S11304A091E0E3DE4AE069E976E0CE010E94FA24B5
S11304B0E9E9F6E001900020E9F73197BF016959B5
S11304C0764089E996E0D1DEDF91CF910895CF920D
S11304D0DF92EF92FF920F931F93CF93DF93CDB7E9
S11304E0DEB72A970FB6F894DEBF0FBECDBF8C01DE
S11304F0009769F461E086E591E0B7DE4AE0BE0169
S11305006F5F7F4F80E090E00E94FA2409C04AE0C8
S1130510BE016F5F7F4F0E94FA240A30110580F4F8
S113052061E086E591E0A1DECE010196FC01019037
S11305300020E9F73197BF01681B790B96DE28C0CC
S1130540FE013196DF010D900020E9F78D010E1BAD
S11305501F0B0250110992F41BC0F60181916F0127
S11305600BDEFFEFEF1AFF0A82E0E816F10411F444
S11305708EE202DE0150110982F70AC08981FCDD96
S11305806E01E2E0CE0ED11CEE24E394F12CF2CF06
S11305902A960FB6F894DEBF0FBECDBFDF91CF9180
S11305A01F910F91FF90EF90DF90CF9008951C98CA
S11305B0149A8FEB93E00197F1F700C000009FB706
S11305C0F8941498E0EBEA95F1F781B19FBFEBE35F
S11305D0F3E03197F1F700C000000C9B02C080717A
S11305E0089581E008959FB7F894149A22E02A951B
S11305F0F1F700C08111149825E22A95F1F7000063
S11306000C9B80E028E72A95F1F714989FBF089582
S1130610CF93DF93C82FD8E08C2F8170E4DFC69589
S11306208111C068D150C1F78C2FDF91CF9108950B
S11306308FEFEECF0895FF920F931F93CF93DF9325
S1130640F82EB5DF811120C080EFE2DF00E0C0E4C6
S113065018EF1C0F81E0C7DFD82F81E0C4DF8823A7
S113066019F0DD2339F012C0D11104C0CF1511F0F7
S11306700C2FD1E08D2FB7DFC150C113EBCFC12FA9
S11306801111E6CF802F03C08FEF01C08EEFDF91F1
S1130690CF911F910F91FF900895CF93C82F87DFBB
S11306A08CECB6DF8C2FB4DFCF910895CF93DF931A
S11306B0EC018881C0DF888381508D3FD0F3DF91C6
S11306C0CF910895CF92DF92FF920F931F93CF9310
S11306D0DF93CDB7DEB729970FB6F894DEBF0FBE10
S11306E0CDBF8FEF89870F2EF1E7CF2EF6E0DF2EF7
S11306F0F02DF12C8E01075F1F4FC801D7DF9985BC
S113070082E0890F823088F0FE013196D601819112
S11307108D93E017F107D9F7F394992331F088E02A
S1130720C80ED11C85E0F812E8CF8F2D29960FB69C
S1130730F894DEBF0FBECDBFDF91CF911F910F9113
S1130740FF90DF90CF90089532DF0C9B06C08CECB5
S1130750A4DF84E4A2DF80E0089508950F931F933B
S1130760CF93DF93C0917505D09176058CEC95DF1E
S11307708EEB93DF5DDF182F5BDF082F18DF8823F4
S113078071F080912F058F5F853120F480932F05C0
S113079060E016C089E180932F0560E011C0612FED
S11307A070E0702B80E090E00E94C12320E030E0F4
S11307B040E85DE30E9473240E94952310922F0564
S11307C0809154058A3070F420915C0530915D0568
S11307D0260F311D30935D0520935C058F5F809358
S11307E0540518C01092540520915C0530915D05A4
S11307F0ADECBCEC0E94EB24969587959695879575
S113080096958795909376058093750510925D056E
S113081010925C0580917505909176058739910554
S113082028F0DD27D0937605C09375058091750572
S113083090917605039720F4109276051092750531
S113084080E0DF91CF911F910F9108951A98129A29
S11308508FEB93E00197F1F700C000009FB7F89485
S11308601298E0EBEA95F1F781B19FBFEBE3F3E077
S11308703197F1F700C000000A9B02C0847008950C
S113088081E008959FB7F894129A22E02A95F1F72F
S113089000C08111129825E22A95F1F700000A9B05
S11308A080E028E72A95F1F712989FBF0895CF9327
S11308B0DF93C82FD8E08C2F8170E4DFC6958111B7
S11308C0C068D150C1F78C2FDF91CF9108958FEF7D
S11308D0EECF0895FF920F931F93CF93DF93F82EDB
S11308E0B5DF811120C080EFE2DF00E0C0E418EF43
S11308F01C0F81E0C7DFD82F81E0C4DF882319F003
S1130900DD2339F012C0D11104C0CF1511F00C2F22
S1130910D1E08D2F68DEC150C113EBCFC12F11116F
S1130920E6CF802F03C08FEF01C08EEFDF91CF9110
S11309301F910F91FF900895CF93C82F87DF8CEC00
S1130940B6DF8C2FB4DFCF910895CF93DF93EC0102
S11309508881C0DF888381508D3FD0F3DF91CF91B0
S11309600895CF92DF92FF920F931F93CF93DF935B
S1130970CDB7DEB729970FB6F894DEBF0FBECDBF53
S11309808FEF89870F2EF1E7CF2EF6E0DF2EF02DC3
S1130990F12C8E01075F1F4FC801D7DF998582E0D4
S11309A0890F823088F0FE013196D60181918D93B2
S11309B0E017F107D9F7F394992331F088E0C80ED2
S11309C0D11C85E0F812E8CF8F2D29960FB6F89444
S11309D0DEBF0FBECDBFDF91CF911F910F91FF906E
S11309E0DF90CF90089532DF0A9B06C08CECA4DF21
S11309F084E4A2DF80E0089508950F931F93CF93BA
S1130A00DF93C0917705D09178058CEC95DF8EEB60
S1130A1093DF5DDF182F5BDF082F18DF882371F069
S1130A2080912E058F5F853120F480932E0560E040
S1130A3016C089E180932E0560E011C0612F70E03B
S1130A40702B80E090E00E94C12320E030E040E879
S1130A505DE30E9473240E94952310922E058091D9
S1130A6055058A3070F420915E0530915F05260F9C
S1130A70311D30935F0520935E058F5F809355058C
S1130A8018C01092550520915E0530915F05ADECBC
S1130A90BCEC0E94EB249695879596958795969540
S1130AA08795909378058093770510925F0510924F
S1130AB05E0580917705909178058739910528F036
S1130AC0DD27D0937805C0937705809177059091C1
S1130AD07805039720F4109278051092770580E04A
S1130AE0DF91CF911F910F910895E4E7F0E0108218
S1130AF082E18093700081E0809371001092720013
S1130B0084E48083A895089585E080937000E1E7EC
S1130B10F0E080818C7F8083A8950895CF93DF9344
S1130B20E4E7F0E034EAA1E7B0E0C3E7D0E050EA5C
S1130B3044E8308320812223ECF72C91287F28304D
S1130B4009F046C05883408320812223ECF72C917E
S1130B50287F283171F79093730094E89093740080
S1130B60E4E7F0E090819923ECF790917100987F8D
S1130B70983281F58093730084E880937400E4E7ED
S1130B80F0E080818823ECF780917100887F8832BF
S1130B9019F56093730084E880937400E4E7F0E04F
S1130BA080818823ECF780917100887F8832B1F4CA
S1130BB084E980937400E4E7F0E0808184FDFDCF54
S1130BC08FEB9DE50197F1F700C0000081E007C0BD
S1130BD080E005C080E003C080E001C080E0DF91D8
S1130BE0CF910895CF93DF93E4E7F0E034EAA1E7EF
S1130BF0B0E0C3E7D0E050EA44E830832081222308
S1130C00ECF72C91287F283009F05DC0588340838D
S1130C1020812223ECF72C91287F283171F79093BF
S1130C20730094E890937400E4E7F0E090819923D2
S1130C30ECF790917100987F983209F046C0809348
S1130C40730084E880937400E4E7F0E080818823F3
S1130C50ECF780917100887F8832C9F584EA80932B
S1130C607400E4E7F0E080818823ECF78091710060
S1130C70887F803171F581EA8093730084E88093E2
S1130C807400E4E7F0E080818823ECF78091710040
S1130C90887F803401F584E880937400E4E7F0E011
S1130CA080818823ECF780917100887F8835A9F4CE
S1130CB08091730094E990937400E4E7F0E09081EC
S1130CC094FDFDCF0BC080E009C080E007C080E048
S1130CD005C080E003C080E001C080E0DF91CF91D7
S1130CE0089584EA80937400E4E7F0E08081882327
S1130CF0ECF790917100987F81E0983009F480E0DE
S1130D00089584EA80937400E4E7F0E08081882306
S1130D10ECF790917100987F81E0903109F480E0C4
S1130D20089580FF02C020E401C028E1809373008D
S1130D3084E880937400E4E7F0E080818823ECF792
S1130D4090917100987F81E0921301C080E0089532
S1130D508093730084E880937400E4E7F0E080817A
S1130D608823ECF790917100987F81E0983209F420
S1130D7080E0089584EC80937400E4E7F0E08081DF
S1130D808823ECF780917100887F803519F4809175
S1130D90730008958EE7089584E880937400E4E76F
S1130DA0F0E080818823ECF780917100887F88359A
S1130DB019F48091730008958EE70895E1EBF5E04E
S1130DC0A7E5B6E016968C911697877020E1829F6E
S1130DD0C001112417969C9117979F70892B8083CB
S1130DE013968C911397877020E1829FC001112480
S1130DF014969C9114979F70892B81838C91837096
S1130E0020E1829FC001112411969C919F70892B2F
S1130E108283A5E6B6E01A968C911A9783838C9107
S1130E20837020E1829FC001112411969C91119737
S1130E309F70892B848313968C911397282F21708C
S1130E4030E022953295307F3227207F3227149666
S1130E508C9114978F70282B258318968C91189752
S1130E6020E1829FC001112419969C919F70892BC7
S1130E70868308950F931F93CF9333DF813021F43A
S1130E8084E9809374003BC080ED4BDF813021F412
S1130E9084E98093740033C080E05ADF813021F408
S1130EA084E9809374002BC02CDF813021F484E921
S1130EB08093740024C081ED34DF813041F484E9EF
S1130EC0809374001CC068DF8E37A1F406C001EB68
S1130ED015E0C0E04FDF8E3731F480E82ED984E985
S1130EE0809374000CC0F80181938F01CF5FC630EA
S1130EF089F7E9CF8093B70584E980937400CF9193
S1130F001F910F910895B6DFA1EBB5E08C91E7E551
S1130F10F6E0982F9F7090639783807782958F7007
S1130F20806386832AE3258311968C911197982FE9
S1130F309F7090639483807782958F70806383839E
S1130F40228312968C91982F9F7090639183807363
S1130F5082958F708063808308958CDFE5E6F6E0E8
S1130F6080E28387A1EBB5E016968C911697982FB3
S1130F709F709063918782958F708063808780E3F0
S1130F80878382E386832FE2258315968C911597B8
S1130F90982F9F709063948382958170806383837C
S1130FA0228314968C91982F9F7090639183807301
S1130FB082958F7080638083089597DDA4DFE7E5D1
S1130FC0F6E08681880F8056982F990F990F890F24
S1130FD097819053890F8093FB048381880F8056F7
S1130FE0982F990F990F890F94819053890F8093AB
S1130FF0FA048081880F8056982F990F990F890FD2
S113100091819053890F8093F904A7DFE5E6F6E018
S11310108081880F8056982F990F990F890F91819D
S11310209053890F8093F7048381880F8056982FFB
S1131030990F990F890F94819053890F8093F80425
S11310408085880F8056982F990F990F890F918565
S11310509053890F8093F60408950F931F93CF93B1
S1131060DF933FDE813029F484E98093740081E0CA
S113107026C080ED56DE813029F484E98093740023
S113108081E01DC080E064DE813029F484E980932E
S1131090740081E014C0C1EBD5E004EB15E0899144
S11310A057DE813029F484E98093740081E007C01D
S11310B0C017D107A1F784E98093740080E0DF9121
S11310C0CF911F910F9108950F931F93CF93DF93A7
S11310D008DE813039F480E830D884E980937400E4
S11310E081E02CC080ED1DDE813039F480E825D804
S11310F084E98093740081E021C083E029DE81309B
S113110039F480E81AD884E98093740081E016C029
S1131110C4EBD5E008EB15E089911ADE813039F48F
S113112080E80BD884E98093740081E007C0C0177D
S1131130D10791F784E98093740080E0DF91CF9127
S11311401F910F9108953ADE88DF811105C08AD876
S113115080E80C949D00089585D880E80C949D0047
S113116008950F931F93CF93DF938C01EB01E7E571
S1131170F6E09C01ADECBCEC0E94EB2496958795BF
S1131180969587959695879520E3280F20839C0153
S1131190220F331F880F991F880F991F880F991FDB
S11311A0820F931F081B190B005D01831AE312833E
S11311B09E010E94EB249695879596958795969522
S11311C0879520E3280F23839C01220F331F880F68
S11311D0991F880F991F880F991F820F931FC81B8F
S11311E0D90BC05DC48315839A010E94EB249695A4
S11311F08795969587959695879520E3280F26835E
S11312009C01220F331F880F991F880F991F880F85
S1131210991F820F931F481B590B405D4783DF9131
S1131220CF911F910F910895C9DD4EDF811105C043
S113123019D880E80C949D00089514D880E80C9483
S11312409D0008950F931F93CF93DF938C01EB01BF
S1131250E5E6F6E09C01ADECBCEC0E94EB2496952F
S11312608795969587959695879520E3280F2083F3
S11312709C01220F331F880F991F880F991F880F15
S1131280991F820F931F081B190B005D01831FE236
S113129012839E010E94EB249695879596958795D7
S11312A09695879520E3280F23839C01220F331FF3
S11312B0880F991F880F991F880F991F820F931FFA
S11312C0C81BD90BC05DC483158382E3868380E386
S11312D087839A010E94EB24969587959695879526
S11312E09695879520E3280F20879C01220F331FB2
S11312F0880F991F880F991F880F991F820F931FBA
S1131300481B590B405D4187DF91CF911F910F918D
S113131008955D9BFECF8CB908950F931F93CF93CF
S1131320DF93FC0101900020E9F73197DE2FD81BF1
S113133049F08C01C0E0F80181918F01EADFCF5FB1
S1131340DC13F9CFDF91CF911F910F910895909302
S1131350900089B988E08AB986E080939500119A53
S113136008954F925F926F927F928F929F92AF9265
S1131370BF92CF92DF92EF92FF920F931F93CF937E
S1131380DF93CDB7DEB72A970FB6F894DEBF0FBE52
S1131390CDBF5C0180E389838A838B838C838D83B7
S11313A08E83A114B10421F4B4DF812C912C4CC0A0
S11313B0CE0101966C018501E12CF12C01C0740170
S11313C09801ADECBCEC0E94EB249695879596951C
S11313D08795969587959C01220F331F880F991F37
S11313E0880F991F880F991F820F931FB801681BDC
S11313F0790B80E090E00E94C1232B013C0198010D
S1131400ADECBCEC0E94EB248C0116950795169567
S113141007951695079520E030E040E452E4C301B7
S1131420B2010E94C0220E949023F60161936F01D1
S11314304701FFEF8F1A9F0A0115110509F0BFCF6D
S11314408AE0A816B104A0F480E363DF84010150AC
S11314501109F2F0E1E0F0E0EC0FFD1F8E0E9F1E8B
S1131460F40182914F0155DF01501109CAF710C0F0
S11314706701FF206CF08E010E0D1F1D0E5F1F4FC4
S1131480F80182918F0145DFF1E0CF1AD108C2F74C
S11314902A960FB6F894DEBF0FBECDBFDF91CF9171
S11314A01F910F91FF90EF90DF90CF90BF90AF907E
S11314B09F908F907F906F905F904F9008958DE0F4
S11314C028DF8AE026CF0895CF92DF92EF92FF9231
S11314D00F931F93CF93DF93CDB7DEB72A970FB641
S11314E0F894DEBF0FBECDBF8C01009761F486E592
S11314F091E00FDF4AE0BE016F5F7F4F80E090E034
S11315000E94FA2409C04AE0BE016F5F7F4F0E9427
S1131510FA240A301105F8F486E591E0FADEDE01DA
S11315201196FD0101900020E9F731977F01EA1A35
S1131530FB0A870101501109B2F1A1E0B0E0AC0F40
S1131540BD1FEA0EFB1EF70182917F01E2DE01500E
S11315501109CAF728C0FE013196DF010D90002061
S1131560E9F78D010E1B1F0B0250110992F41BC0E9
S1131570F60181916F01CDDEFFEFEF1AFF0A82E0E1
S1131580E816F10411F48EE2C4DE0150110982F769
S11315900AC08981BEDE6E0192E0C90ED11CEE2420
S11315A0E394F12CF2CF2A960FB6F894DEBF0FBE67
S11315B0CDBFDF91CF911F910F91FF90EF90DF90FE
S11315C0CF900895E8E0F6E0608371830895109267
S11315D0F3041092F204FC01618170E07093F3044F
S11315E06093F204762F66278081682B7093F3044E
S11315F06093F20480E090E00895CF93C92F682FA0
S113160089EF91E00E943A256C2F8AEF91E00E94C5
S11316103A25CF910895CF93C92F682F8BEF91E08E
S11316200E943A256C2F8CEF91E00E943A25CF91CD
S113163008950F931F93CF9389EF91E00E942D2576
S1131640C82F8AEF91E00E942D254C2F50E060E0D6
S113165070E08A019B01182BD901C801CF911F9119
S11316600F9108950F931F93CF938BEF91E00E94F6
S11316702D25C82F8CEF91E00E942D254C2F50E092
S113168060E070E08A019B01182BD901C801CF9159
S11316901F910F910895CF92DF92EF92FF920F93D3
S11316A01F93CF93DF93C5DFEC016C01CC0CDD1CE1
S11316B0C80ED91ECC0CDD1CCC0CDD1CE12CF12C8D
S11316C020E030E040E251E460913A0570913B053E
S11316D080913C0590913D050E9473240E949523BE
S11316E071DFB701A601445F5F4F6F4F7F4F809159
S11316F0000190910101A0910201B09103018417AE
S11317009507A607B707C8F40E94320184ED0E942A
S11317109D0064E18EE391E00E94350161E088E977
S113172090E00E943A2580E090E067DFCE0173DF0D
S1131730C12CD12C7601C0E0D0E08FE19EE401976A
S1131740F1F700C000006091F704C601E7D9EFE1AA
S1131750FEE43197F1F700C00000C60101966091E4
S1131760F804DCD98FE19EE40197F1F700C0000092
S1131770C60102966091F604D1D9EFE1FEE43197F7
S1131780F1F700C00000C60103966091F904C6D9C0
S11317908FE19EE40197F1F700C00000C6010496B2
S11317A06091FA04BBD9EFE1FEE43197F1F700C090
S11317B00000C601059660917705B0D98FE19EE4DB
S11317C00197F1F700C00000C60106966091750507
S11317D0A5D9EFE1FEE43197F1F700C00000C6019E
S11317E00796609158059AD98FE19EE40197F1F725
S11317F000C00000C6010896609148058FD9EFE14A
S1131800FEE43197F1F700C00000C601099660912B
S1131810180584D98FE19EE40197F1F700C0000018
S113182008E016E0C6010A96F801608177D98FE1D5
S11318309EE40197F1F700C00000C6010B96F80181
S113184061816CD98FE19EE40197F1F700C000003B
S1131850CE010196D2DEDF91CF911F910F91FF90BF
S1131860EF90DF90CF900895A8DB8091FA04609107
S113187000050E94D62491111AC081E09091FB04C6
S1131880911180E0882399F081E0909105019130D5
S113189009F080E0882359F037D9FDDE82E0809397
S11318A0050123D9C6DE9093FF048093FE04809142
S11318B0FB04813011F48093050108958F929F9267
S11318C0AF92BF92DF92EF92FF920F931F93CF9349
S11318D0DF934B015C018091F4049091F50401962F
S11318E09093F5048093F40482E591E016DD8091F1
S11318F0F4049091F5048B30910570F085369105D0
S113190038F0883E934058F486E591E006DD07C040
S113191085E591E002DD03C085E591E0FEDC809180
S1131920F4049091F5041DDD88E591E0F6DC8BE587
S113193091E0F3DCE9D8D501C4010C96A11DB11DD9
S113194088169906AA06BB0608F08EC0C0E0D0E04F
S11319500F2EF8E0EF2EF6E0FF2EF02D0F2EF8E11B
S1131960DF2EF02D0FE02196CE010197880D991DF1
S113197039D9182FC630D1051CF490E0F2DC4BC0E5
S1131980C630D10539F481E691E0C7DC812F90E0BF
S1131990E8DC5FC0C730D10539F488E691E0BDDCEE
S11319A0812F90E0DEDC55C0C830D10539F48FE6D4
S11319B091E0B3DC812F90E0D4DC4BC0C930D10579
S11319C039F489E791E0A9DC812F90E0CADC41C0B9
S11319D0CA30D10539F485E891E09FDC812F90E08D
S11319E0C0DC37C0CB30D10531F4F701808382E904
S11319F091E093DC2EC0CC30D10569F4F7018183EA
S1131A00C701E5DD8091F2049091F3045DDD80EA85
S1131A1091E083DC1EC0C130D10519F48DE279DC7C
S1131A2018C0C230D10519F48DE273DC12C0C33082
S1131A30D10521F482EA91E070DC0BC0C430D105F9
S1131A4019F48AE366DC05C0C530D10511F480E2DF
S1131A5060DCA8950FB6F894A895D1BC0FBE01BD63
S1131A60CC30D10509F07FCF40D829DDFFEF20E746
S1131A7082E0F15020408040E1F700C00000A895CA
S1131A809FE088E10FB6F894A89581BD0FBE91BD83
S1131A90DF91CF911F910F91FF90EF90DF90BF9056
S1131AA0AF909F908F900895CF92DF92EF92FF9224
S1131AB00F931F93CF93DF93BCDD8C011D98FFDC44
S1131AC089EA91E02ADC1092F5041092F4040115DD
S1131AD0110521F48DEB91E020DC80C088E990E0D1
S1131AE00E942D25813009F055C0BCDD8C01E7DC56
S1131AF0A0DD7C01009721F1EC01CC0FDD1FC80FA4
S1131B00D91FCC0FDD1FCC0FDD1F2C970F2EF8E152
S1131B10CF2EF02D0F2EFFE0DF2EF02DA8950FB65F
S1131B20F894A895C1BC0FBED1BCBE0180E090E082
S1131B30C5DE81E0E81AF1082C97E114F10471F78D
S1131B4078DD7C010817190709F448C0E801CC0FB7
S1131B50DD1FC00FD11FCC0FDD1FCC0FDD1F2C9755
S1131B600F2EF8E1CF2EF02D0F2EFFE0DF2EF02DFB
S1131B70A8950FB6F894A895C1BC0FBED1BCBE0100
S1131B8080E090E09BDE015011092C97E016F106ED
S1131B9079F724C094DCE801CC0FDD1FC00FD11FFE
S1131BA0CC0FDD1FCC0FDD1F2C970F2EF8E1EF2E8D
S1131BB0F02D0F2EFFE0FF2EF02DA8950FB6F89410
S1131BC0A895E1BC0FBEF1BCBE0180E090E076DEDA
S1131BD0015011092C970115110579F71D9ADF9110
S1131BE0CF911F910F91FF90EF90DF90CF900895C8
S1131BF080912C058F5F80932C058C3380F080912D
S1131C002B058F5F80932B0510922C058C3338F0B5
S1131C1080912D058F5F80932D0510922B050895DB
S1131C20809127058F5F809327058C3380F0809106
S1131C3026058F5F80932605109227058C3338F094
S1131C40809128058F5F80932805109226050895BA
S1131C50809124058F5F809324058C3380F08091DC
S1131C6023058F5F80932305109224058C3338F06D
S1131C70809125058F5F8093250510922305089593
S1131C801F920F920FB60F9211248F939F938091FE
S1131C9014059091150501969093150580931405EC
S1131CA09F918F910F900FBE0F901F90189587B73B
S1131CB0816087BF83B7836083BF08951F920F92AB
S1131CC00FB60F9211240BB60F922F933F934F939D
S1131CD05F936F937F938F939F93AF93BF93EF9390
S1131CE0FF938091FC049091FD0401969093FD0470
S1131CF08093FC04843F914030F4E2E6F0E080817C
S1131D008260808305C0E2E6F0E080818D7F80837D
S1131D1080918C05813228F010928C051092DF0599
S1131D2017C08823A9F080910205909103050196BC
S1131D308536910528F4909303058093020508C025
S1131D40109203051092020510928C051092DF0583
S1131D5080918505909186050197D9F4809183053A
S1131D60909184050196893B2BE0920728F4909387
S1131D7084058093830504C0109284051092830522
S1131D80D99A80918305909184058536910508F050
S1131D90D9988091FC049091FD04813D934008F40E
S1131DA0B4C080911905813049F480915205909115
S1131DB053050196909353058093520581E09091C9
S1131DC05805913009F080E0811108C081E09091BC
S1131DD06C05913009F080E08823D9F021DF8091EF
S1131DE01405909115059093130580931205109294
S1131DF015051092140580911F058F5F8D3318F41B
S1131E0080931F0506C08CE380931F0581E08093B7
S1131E10200520916A0591E080915905813009F0EF
S1131E2090E081E030916B05313009F080E0892B3E
S1131E3031F481E0213009F080E08823D9F08091E9
S1131E401E05813051F48091100590911105019681
S1131E5090931105809310050DC0211102C0F8DE86
S1131E6009C0809162059091630501969093630582
S1131E7080936205BDDE1092FD041092FC048091F3
S1131E80480590914905019751F480911D058F5F94
S1131E90853018F480931D0502C010921D058091B1
S1131EA08105909182050196909382058093810526
S1131EB08837910531F40E94F30010928205109244
S1131EC0810580918A05813071F4809189058F5F45
S1131ED0809389058B3530F0939810928A0510927F
S1131EE0890501C0939A8091020690910306019698
S1131EF08F3521E0920728F490930306809302061D
S1131F0004C01092030610920206FF91EF91BF9154
S1131F10AF919F918F917F916F915F914F913F917D
S1131F202F910F900BBE0F900FBE0F901F9018951E
S1131F308091280590E00E94490261E086EA92E0DF
S1131F400E9435018091260590E00E94490261E0DB
S1131F5086EA92E00E9435018091270590E00C9476
S1131F6049020895179883B193B18068892B83B986
S1131F708AB780688ABF89B7806889BF0895CF927D
S1131F80DF92EF92FF920F931F93CF93DF93CDB71E
S1131F90DEB7E8970FB6F894DEBF0FBECDBF88E377
S1131FA0E6E0F1E0DE01119601900D928A95E1F7E9
S1131FB080E40E949D008E010F5F1F4F6E0189E334
S1131FC0C80ED11C0F2EF8E1EF2EF02D0F2EFFE0DE
S1131FD0FF2EF02DF80181918F010E94BC00A8957D
S1131FE00FB6F894A895E1BC0FBEF1BC0C151D0505
S1131FF089F7E8960FB6F894DEBF0FBECDBFDF9128
S1132000CF911F910F91FF90EF90DF90CF900895A3
S113201053B343B333B323B3852F817090E042703D
S1132020840F911D3870830F911D2072820F911DB2
S1132030039709F08CC0C69A2FEF84E39CE02150EB
S113204080409040E1F700C00000C698A8959FE04A
S113205088E10FB6F894A89581BD0FBE91BDC59ACD
S11320602FEF84E39CE0215080409040E1F700C0D2
S11320700000C598A8959FE088E10FB6F894A8954C
S113208081BD0FBE91BDC29A2FEF84E39CE0215025
S113209080409040E1F700C00000C298A8959FE0FE
S11320A088E10FB6F894A89581BD0FBE91BDC09A82
S11320B02FEF84E39CE0215080409040E1F700C082
S11320C00000C098A8959FE088E10FB6F894A89501
S11320D081BD0FBE91BD1E9A2FEF84E39CE0215079
S11320E080409040E1F700C000001E98A8959FE052
S11320F088E10FB6F894A89581BD0FBE91BDC49A2E
S11321002FEF84E39CE0215080409040E1F700C031
S11321100000C498A8959FE088E10FB6F894A895AC
S113212081BD0FBE91BDDB9A2FEF80E792E0215075
S113213080409040E1F700C00000DB98A8959FE044
S113214088E10FB6F894A89581BD0FBE91BD08959E
S113215082B182B9E1E6F0E080818083808180836E
S113216083B1846183B98B9A8081808382B18066D4
S113217082B980818264808387B3856D87BB84B391
S113218084BB85B38B6285BB1D9AD39A8BB38BBBFF
S1132190A4E6B0E08C9182608C938B9A9398A5E628
S11321A0B0E08C9182608C93BF9AC598BD9AC59813
S11321B0D19AD99A169A1E98BE9AC698808184603C
S11321C08083E2E6F0E0808184608083BA9AC298DA
S11321D0B89AC098BC9AC4982FEF89E698E1215028
S11321E080409040E1F700C000000E94F3000E948C
S11321F099010E94320180E80E949D0064E182ED11
S113220091E00E94350180EC0E949D0064E187EE1C
S113221091E00E94350184E90E949D0064E18CEF05
S113222091E00E94350184ED0E949D0064E181E10A
S113223092E00E9435010E944F010E943201ECE0BD
S1132240F6E081E0808382E0838383E0868385E017
S1132250818786E0828787E0838788E0848789E0B6
S113226085878AE0868783E387878BE0828B8CE08F
S1132270858B8DE0808F8EE0838F8FE0848F80E16B
S1132280858F81E1868F82E1878F83E180A384E15A
S113229081A385E184A386E187A387E182A788E1FE
S11322A085A789E180AB8AE183AB8BE186AB8CE1C6
S11322B080934E068DE184AFFADC54DE83E390E034
S11322C046D878945CDE8BB38BBB0895CF93DF93B1
S11322D0CCE0D6E0888190E00E942D2580930B0508
S11322E08B8190E00E942D25809379058E8190E06A
S11322F00E942D2580938B05898590E00E942D25D1
S1132300809309058A8590E00E942D258093080515
S11323108B8590E00E942D25809307058C8590E0A5
S11323200E942D25809306058D8590E00E942D2521
S1132330809305058E8590E00E942D2580930405E9
S11323408F8590E00E942D2580930A058CE291E010
S11323500E94352590930D0580930C058D8990E09E
S11323600E942D258093000589A190E00E942D25CF
S113237090E09093800580937F05DF91CF9108953D
S11323801F93CF93DF9360918B0580910B05861784
S113239040F46E5F60930B0580910C0690E00E9400
S11323A03A2580917905833348F060910B05609359
S11323B0790580910F0690E00E943A2580910B05E3
S11323C0853648F08EE180930B0580910C066EE112
S11323D090E00E943A2580918B05853648F089E18A
S11323E080938B0580910F0669E190E00E943A2565
S11323F091E080910905853608F490E081E0209110
S11324000805253608F480E0892B41F481E0909199
S11324100705953608F480E08823C9F082E08093AC
S11324200905CCE0D6E08E8162E090E00E943A2576
S1132430109208058F8160E090E00E943A258FE0B9
S11324408093070588856FE090E00E943A2591E02B
S113245080910605853608F490E081E02091050519
S1132460253608F480E0892B41F481E0909104053D
S1132470953608F480E08823C1F010920605CCE07C
S1132480D6E0898560E090E00E943A251FE0109331
S113249005058A856FE090E00E943A2510930405B3
S11324A08B856FE090E00E943A2580910A0585367D
S11324B048F08AE280930A05809118066AE290E067
S11324C00E943A2580910005883348F08FE080937C
S11324D0000580911E066FE090E00E943A258091ED
S11324E07F0590918005039764F081E090E09093DC
S11324F0800580937F0580912A0661E090E00E9428
S11325003A25DF91CF911F910895CF93DF93CCE0CB
S1132510D6E088816EE190E00E943A258B8163E2E7
S113252090E00E943A258E816CE190E00E943A2569
S1132530898562E090E00E943A258A8560E090E017
S11325400E943A258B8560E090E00E943A258C85B4
S113255060E090E00E943A258D856FE090E00E9453
S11325603A258E8560E090E00E943A258F856AE2E4
S113257090E00E943A258D896FE090E00E943A2510
S113258089A161E090E00E943A2560EE71E08CE25E
S113259091E00E944725DF91CF91089591E08091C9
S11325A01805813009F090E081E020911B0521306D
S11325B009F080E0892B91E020915605213009F043
S11325C090E0982B81E020917E05213009F080E095
S11325D0892B59F481E02091480530914905213037
S11325E0310509F080E0882311F0C49A0895C49855
S11325F00895039B11C080917D058F5F80937D05B5
S11326008333C8F081E08093180510927C0588E735
S113261080937D051E98089580917C058F5F80933B
S11326207C05853140F01092180510927D0588E7ED
S113263080937C051E9A089580917F059091800572
S1132640019709F580915805813009F580916C0551
S113265081111DC0809120058130C9F48091460507
S1132660909147058436910540F4C59A81E090E045
S113267090934905809348050895C598109249059B
S1132680109248050895109249051092480508953E
S1132690909126058DEC989F812D11248695869521
S11326A0282F220F220F820F981316C09923A1F00E
S11326B080912705811110C080917F05909180053C
S11326C0019751F480914605909147058436910510
S11326D018F481E080938A050895CF93DF93809165
S11326E07705909178059C01220F331F880F991F5D
S11326F0880F991F880F991F280F391FADECBCEC68
S11327000E94EB249695879596958795EC01CA5679
S1132710DF4FC634D10510F4C6E9D0E0CF3FD10570
S113272019F010F0CFEFD0E0C3BD81E09091260501
S1132730923008F480E0811108C081E090912D0569
S1132740911101C080E08823A9F076DF81E09091A7
S11327502605923008F480E0811108C081E0909150
S11327602D05911101C080E0882321F0C73ED105D9
S113277008F03FDFDF91CF91089590912705809174
S11327800705981780F09091260580910805981701
S113279068F081E090E03091280520910905321716
S11327A038F480E0089580E090E0089580E090E0BF
S11327B008959091270580910405891780F49091DC
S11327C0260580910505981768F081E090E0309126
S11327D0280520910605321738F480E0089580E03A
S11327E090E0089580E090E008950E9472001092B5
S11327F02605109227051092280581E0809358053C
S113280010921F05C69A0895C798C6981092260577
S1132810109227051092280581E080936C050E9490
S11328207F00C7981092200510921305109212058C
S113283010927D0510927C0510920F0510920E05E2
S11328400895109258051092200510920F051092C9
S11328500E05C798D9DF10926C0510927D05109271
S11328607C051092260510922705109228051092D7
S113287019051092530510925205089580918B0505
S113288090E0209177053091780582179307A0F0A6
S1132890BBDF10922605109227051092280510928E
S11328A06C0510926A05109220051092580510923A
S11328B0490510924805089560DF019711F4A4CFEB
S11328C008950BCF08952091770530917805809174
S11328D07505909176052817390740F010924F0539
S11328E010924E0510925705C9CF089580914E0558
S11328F090914F05019690934F0580934E0587392B
S11329009105E0F010925805109220051092590597
S113291010920F0510920E0510927D0510927C0501
S1132920C79872DF10926C05109226051092270545
S11329301092280510924F0510924E05089520918B
S113294077053091780580910B0590E08217930705
S113295008F080C0809175059091760582179307E1
S113296080F540911B0541112CC081E0809319052D
S113297010926A0510926305109262051092230565
S113298010922405109225058091520590915305CB
S1132990409708F45FC010925105109250051092B0
S11329A0190523DF80915205909153058B3F9105C2
S11329B008F450C08EEC90E0909353058093520538
S11329C008952817390710F5809150059091510505
S11329D00196909351058093500510921905853105
S11329E09105C0F1109253051092520510925905A9
S11329F010925805109220058B3F910558F18EECEA
S1132A0090E0909351058093500508951092190514
S1132A1010926A05109263051092620510922305C4
S1132A201092240510922505109253051092520518
S1132A3010924D0510924C051092490510924805CC
S1132A40109211051092100510921E051092560551
S1132A501E98C598089580915805811106C06FDFAE
S1132A6010924F0510924E0508958130C1F5809162
S1132A701B05813091F4E5DE1092580510926C0527
S1132A8010922005109253051092520510922605BB
S1132A901092270510922805089580916C058111E4
S1132AA003C0F6DD10CF089584DE892BC1F01092A7
S1132AB0580510926C05109220051092530510923F
S1132AC0520510922605109227051092280510929F
S1132AD00F0510920E0510927D0510927C05089545
S1132AE065E086E292E00E9435018091770590913D
S1132AF078050E9449028FED0E94BC0062E08CE2DE
S1132B0092E00E94350166E08FE292E00E94350176
S1132B1080917505909176050E9449028FED0E947F
S1132B20BC0061E086E392E00C9435010895CF92F5
S1132B30DF92EF92FF92CF93DF9320E030E040E208
S1132B4051E460913A0570913B0580913C05909168
S1132B503D050E9473240E9495236B017C01EB01C7
S1132B6080910C0590910D05C816D90620F481E0DA
S1132B700E94BC0015C09C012C5E3F4FC216D306B8
S1132B8020F482E00E94BC000BC08896C816D906C7
S1132B9020F483E00E94BC0003C084E00E94BC00D7
S1132BA080910C0590910D05C817D90728F58091DF
S1132BB01A058F5F80931A05863018F010921A0553
S1132BC002C0833058F464E084E893E00E94350145
S1132BD066E088E392E00E94350108C0C6010E94C5
S1132BE0670266E088E392E00E9435016BE08FE3C0
S1132BF092E00E9435013DC0C6010E94670266E072
S1132C0088E392E00E94350180917F0590918005D0
S1132C10019751F565E08BE492E00E9435018091C3
S1132C204605909147058B30910590F085369105C6
S1132C3048F0893E934088F461E086E591E00E9483
S1132C4035010BC062E085E591E00E94350105C0C5
S1132C5062E085E591E00E943501809146059091FE
S1132C6047050E94490205C069E08FE793E00E948E
S1132C703501DF91CF91FF90EF90DF90CF900895D1
S1132C8080E80E949D0064E181E192E00E943501A8
S1132C9080EC0E949D0024DF84E90E949D0065E091
S1132CA081E592E00E9435018091480590914905A3
S1132CB0892B31F580915805811110C08091190537
S1132CC0813031F467E087E592E00E9435013DC030
S1132CD067E08FE592E00E94350137C08130A9F5A5
S1132CE080916C05813031F467E087E692E00E94C0
S1132CF035012BC067E08FE692E00E94350125C0C4
S1132D0080911D05833030F467E087E792E00E94EC
S1132D1035011BC080915805811106C067E08FE51D
S1132D2092E00E94350111C0813079F480916C05E4
S1132D30813031F467E087E692E00E94350105C0F6
S1132D4067E08FE692E00E943501809119058111B8
S1132D5002C0EED80BC080915205909153050E9499
S1132D60490266E08FE792E00E94350184ED0E94FB
S1132D709D00DDCE0895A8959FE088E10FB6F894F4
S1132D80A89581BD0FBE91BD369A8FED9EE2019745
S1132D90F1F700C000000E94A201369A369A8FED26
S1132DA09EE20197F1F700C000000E9408020E9411
S1132DB0A4038FE99FE00197F1F700C000000E948F
S1132DC0AE030E94F3048FE99FE00197F1F700C07E
S1132DD000000C94FD040895CF92DF92EF92FF92CD
S1132DE020E030E040E251E460913A0570913B0507
S1132DF080913C0590913D050E9473246B017C01F8
S1132E0060910C0570910D0580E090E00E94C12353
S1132E109B01AC01C701B6010E9424238823FCF462
S1132E2080911C058F5F853618F480931C0539C08A
S1132E3089E680931C0581E080931B05109222058E
S1132E40109221058091850590918605892B49F57D
S1132E5081E090E0909386058093850522C080915F
S1132E602105909122050196853823E0920728F4E4
S1132E70909322058093210514C089E893E09093F0
S1132E8022058093210510921B0510921C05809148
S1132E90850590918605019721F41092860510927C
S1132EA08505FF90EF90DF90CF900895CF93DF9347
S1132EB080917205811179C080917405C1E0C80FB9
S1132EC0C0937405CD3028F081E080937405C1E08F
S1132ED03DC0CA3079F40E94DD078091F9048093E3
S1132EE070058091FA0480936E058091FB048093B1
S1132EF06D0574C0CB3079F40E94DD078091F7042E
S1132F00809370058091F80480936E058091F60497
S1132F1080936D0563C021E0C43008F020E091E0A7
S1132F20CC3009F090E0922B39F4855091E0833055
S1132F3008F090E09923E1F0C73041F48CE291E08D
S1132F400E94352590934B0580934A058C2F90E081
S1132F500197FC01EE0FFF1F8E0F9F1FFC01E45F22
S1132F60F94F808190E00E942D258093700536C032
S1132F708C2F90E00197EC01CC0FDD1FC80FD91FF7
S1132F80C45FD94F888190E00E942D2580937005FD
S1132F90898190E00E942D2580936E058A8190E0BE
S1132FA00E942D2580936D0519C08130B9F480915C
S1132FB070058F5F80937005909174059C3029F49F
S1132FC0833018F081E08093700580914A059091D8
S1132FD04B05019690934B0580934A05DF91CF9161
S1132FE00895CF93DF9380917205811179C0809108
S1132FF07405CFEFC80FC0937405C11105C08CE0F0
S113300080937405CCE03DC0CA3079F40E94DD079A
S11330108091F904809370058091FA0480936E0581
S11330208091FB0480936D0578C0CB3079F40E94C5
S1133030DD078091F704809370058091F8048093F4
S11330406E058091F60480936D0567C021E0C4305D
S113305008F020E091E0CC3009F090E0922B39F4B4
S1133060875091E0833008F090E09923E1F0C73075
S113307041F48CE291E00E94352590934B058093B6
S11330804A058C2F90E00197FC01EE0FFF1F8E0F75
S11330909F1FFC01E45FF94F808190E00E942D2581
S11330A0809370053AC08C2F90E00197EC01CC0F0F
S11330B0DD1FC80FD91FC45FD94F888190E00E94DB
S11330C02D2580937005898190E00E942D258093A1
S11330D06E058A8190E00E942D2580936D051DC0A8
S11330E08130D9F48091700581508093700590915E
S11330F074059C3049F4811104C082E0809370050A
S113310003C081E08093700580914A0590914B053E
S1133110019790934B0580934A05DF91CF910895D1
S11331200F931F93CF93DF9333B323B393B383B33B
S11331303170C32F30E0D32F2270C20FD11D98708D
S1133140C90FD11D8072C80FD11DC832D105B9F481
S113315080E090E00E94FD0A60E088E990E00E942F
S11331603A250E94320180E80E949D006AE086E8C8
S113317092E00E9435010E944F010E944F0180910C
S1133180660590916705019690936705809366059F
S1133190853F914098F01092730582E08093610519
S11331A01092740586E292E0909367058093660519
S11331B0E5E6F0E080818D7F808305C0E5E6F0E000
S11331C080818260808380916605909167058D324D
S11331D0914010F010920105AB9708F0E3C183B35E
S11331E0082F017010E043B3427050E063B368707D
S11331F070E023B3207230E0C801840F951F860F5E
S1133200971F820F931F8B32910508F0CBC1DB9A75
S1133210FFEFA0E7E2E0F150A040E040E1F700C09A
S11332200000DB988A32910509F0F8C01092670516
S1133230109266050130110561F028E19FE083B327
S1133240A8950FB6F894A89521BD0FBE91BD80FF37
S1133250F6CF80917305811111C081E090E09093C5
S113326069058093680580937305109272058093B5
S1133270740580916105811192C10AC08091610534
S113328081112FC08091680590916905019719F506
S113329080916005811108C0809173058230D9F452
S11332A081E08093600517C08130A9F48091730593
S11332B0833089F480910401873821F481E080937C
S11332C0610509C010927305109269051092680592
S11332D082E080936105809173058F5F809373050D
S11332E061C1813009F05EC18091680590916905E2
S11332F0019709F057C1809173053091720521E05F
S1133300311120E091E0813009F090E0992379F0C7
S1133310222369F080917405813009F079C080918D
S11333200C0690E00E942D258093700571C091E0F9
S1133330823009F090E0992361F0222351F081E07A
S11333408093720581E090E0909365058093640515
S11333505FC091E0833009F090E0992309F458C0EC
S113336081E0313009F080E0882309F451C0809174
S1133370740521E0843008F020E091E08C3009F0FD
S113338090E0922B39F4865091E0833008F090E07D
S1133390992321F082E0809372053AC080916405FC
S11333A09091650581309105A9F481E080937205BF
S11333B082E08093730582E090E0909365058093AA
S11333C064058091700580932A0580916E05809331
S11333D070051EC00297A9F481E08093720582E013
S11333E08093730583E090E0909365058093640572
S11333F0809170058093290580916D0580937005F7
S113340007C082E0809372051092650510926405EE
S1133410809173058F5F80937305C4C089329105D1
S113342009F03FC01092670510926605309173054C
S1133430333078F44230510561F028E19FE083B3E2
S1133440A8950FB6F894A89521BD0FBE91BD81FF34
S1133450F6CF311198C081E080930105A3C080911B
S1133460680590916905019709F09CC080917405E5
S1133470893051F480917205813021F482E0809387
S1133480720590C013DD8EC011DD8CC08091600583
S1133490813009F087C0809104018F5F809304011B
S11334A081C08332910509F041C0109267051092E2
S11334B0660530917305333078F46830710561F036
S11334C028E19FE083B3A8950FB6F894A89521BD91
S11334D00FBE91BD83FFF6CF31115BC01092010581
S11334E061C08091680590916905019709F05AC0FF
S11334F080917405893069F480917205813039F4C2
S11335001092720510927105809373054BC069DDAA
S113351049C067DD47C080916005813009F042C031
S1133520809104018150809304013CC00B9709F001
S113353039C010926705109266052032310561F09A
S113354028E19FE083B3A8950FB6F894A89521BD10
S11335500FBE91BD85FFF6CF80917305882311F1CD
S113356082E08093610580917205811103C01092FD
S1133570730518C08130B1F4109272051092710570
S1133580809373050FC080916105813009F07ECF6F
S113359066CF80916105813009F0BDCFA2CF813023
S11335A009F4A9CEDF91CF911F910F9108958091D5
S11335B0720581111AC08091700590E00E94490241
S11335C061E084E992E00E94350180916E0590E00B
S11335D00E94490263E089E992E00E9435018091EA
S11335E06D0590E00E944902B7C0813009F0B4C073
S11335F0809164059091650581309105D1F58091A4
S11336007005803218F08FE18093700580916F050A
S11336108530D0F48091700590E00E94490261E009
S113362084E992E00E94350180916E0590E00E9449
S1133630490263E089E992E00E94350180916D05B9
S113364090E00E94490288C063E082E992E00E940F
S1133650350180916E0590E00E94490263E089E99A
S113366092E00E94350180916D0590E00E9449022C
S113367073C082309105A9F5809170058D3018F0E2
S11336808CE08093700580916F058530D0F4809133
S11336902A0590E00E94490261E084E992E00E94D8
S11336A035018091700590E00E94490263E089E948
S11336B092E00E94350180916D0590E00E944902DC
S11336C04BC080912A0590E00E94490266E086E999
S11336D092E00E94350180916D0590E00E944902BC
S11336E03BC00397C9F5809170058C3318F08BE3C8
S11336F08093700580916F058530D0F480912A0500
S113370090E00E94490261E084E992E00E94350160
S11337108091290590E00E94490263E089E992E0E2
S11337200E9435018091700590E00E94490214C006
S113373080912A0590E00E94490261E084E992E0C8
S11337400E9435018091290590E00E94490265E0BC
S11337508DE992E00E94350164E084E893E00C94E2
S1133760350108958091720581111AC08091700508
S113377090E00E94490261E086EA92E00E943501ED
S113378080916E0590E00E94490261E086EA92E031
S11337900E94350180916D0590E00E944902B7C0F6
S11337A0813009F0B4C08091640590916505813041
S11337B09105D1F580917005883118F087E18093E7
S11337C0700580916F058530D0F48091700590E08C
S11337D00E94490261E086EA92E00E9435018091EC
S11337E06E0590E00E94490261E086EA92E00E9440
S11337F0350180916D0590E00E94490288C063E024
S113380084EA92E00E94350180916E0590E00E9466
S1133810490261E086EA92E00E94350180916D05DB
S113382090E00E94490273C082309105A9F580910D
S113383070058C3318F08BE38093700580916F05CD
S11338408530D0F480912A0590E00E94490261E01D
S113385086EA92E00E9435018091700590E00E9412
S1133860490261E086EA92E00E94350180916D058B
S113387090E00E9449024BC080912A0590E00E948A
S1133880490264E083EA92E00E94350180916D056B
S113389090E00E9449023BC00397C9F580917005EE
S11338A08C3318F08BE38093700580916F0585301D
S11338B0D0F480912A0590E00E94490261E086EAF2
S11338C092E00E9435018091290590E00E9449020E
S11338D061E086EA92E00E9435018091700590E0F3
S11338E00E94490214C080912A0590E00E94490276
S11338F061E086EA92E00E9435018091290590E01A
S11339000E94490263E088EA92E00E94350166E081
S113391082E893E00C9435010895CF93DF93EC0192
S113392080E80E949D0064E18CEA92E00E943501E7
S113393080EC0E949D00FE013197EC30F10508F007
S11339404BC0EA5BFF4F0C94E22460E182EC92E00E
S11339500E94350141C060E183ED92E00E9435018F
S11339603BC06FE084EE92E00E94350135C06CE00C
S113397084EF92E00E9435012FC06CE081E093E077
S11339800E94350129C064E18EE093E00E94350174
S113399023C064E183E293E00E9435011DC06EE020
S11339A088E393E00E94350117C064E187E493E063
S11339B00E94350111C066E08CE593E00E94350158
S11339C00BC066E083E693E00E94350105C069E020
S11339D08AE693E00E94350190917205992359F08B
S11339E080916F058F5F8B3018F480936F0505C04D
S11339F010926F0502C010926F0580917405893092
S1133A00B1F484E90E949D0080917205811106C081
S1133A1064E184E793E00E943501D4C1813009F068
S1133A20D1C164E189E893E00E943501CBC18B30B8
S1133A3011F4BDDDC7C18A3011F494DEC3C18830EE
S1133A4001F5911106C08091700590E00E94490231
S1133A5012C081E08093720580916F05853030F447
S1133A6062E086E893E00E94350105C0809170050C
S1133A7090E00E94490264E08EE993E00E943501DF
S1133A80A1C1863041F58CE90E949D0080917205A8
S1133A90811106C08091700590E00E94490212C015
S1133AA081E08093720580916F05853030F462E087
S1133AB086E893E00E94350105C08091700590E08E
S1133AC00E9449028FED0E94BC0061E086E392E00F
S1133AD00E94350177C1823019F5911106C0809199
S1133AE0700590E00E94490212C081E08093720543
S1133AF080916F05853030F462E086E893E00E949F
S1133B00350105C08091700590E00E9449028FED57
S1133B100E94BC0062E08CE292E00E94350152C136
S1133B20873039F58CE90E949D00809172058111DE
S1133B3007C080914A0590914B050E94670213C00B
S1133B4081E08093720580916F05853030F464E0E4
S1133B5083EA93E00E94350106C080914A05909162
S1133B604B050E94670264E088EA93E00E943501F5
S1133B7029C1282F2D7F213091F5911115C08091F5
S1133B8070054AE069E976E090E034D7E9E9F6E0C7
S1133B9001900020E9F73197BF016959764089E91E
S1133BA096E00E94350112C081E0809372058091F5
S1133BB06F05853030F462E086E893E00E943501B9
S1133BC005C08091700590E00E9449028FED0E942B
S1133BD0BC0062E08CE292E00E943501F3C08C30BC
S1133BE079F5911110C080917005823031F46BE049
S1133BF08DEA93E00E943501E5C06BE089EB93E028
S1133C000E943501DFC0913009F0ECC080916F054E
S1133C10853030F46BE085EC93E00E943501D2C02E
S1133C2080917005823031F46BE08DEA93E00E945C
S1133C303501C8C06BE089EB93E00E943501C2C036
S1133C408450823008F0BEC091111AC08091700572
S1133C5090E00E94490261E086EA92E00E94350108
S1133C6080916E0590E00E94490261E086EA92E04C
S1133C700E94350180916D0590E00E944902A2C026
S1133C80913009F09FC08091640590916505813061
S1133C90910599F580916F058530D0F48091700578
S1133CA090E00E94490261E086EA92E00E943501B8
S1133CB080916E0590E00E94490261E086EA92E0FC
S1133CC00E94350180916D0590E00E9449027AC0FE
S1133CD063E084EA92E00E94350180916E0590E0F1
S1133CE00E94490261E086EA92E00E9435018091D7
S1133CF06D0590E00E94490265C08230910571F51E
S1133D0080916F058530D0F480912A0590E00E945F
S1133D10490261E086EA92E00E94350180917005D3
S1133D2090E00E94490261E086EA92E00E94350137
S1133D3080916D0590E00E94490244C080912A055B
S1133D4090E00E94490264E083EA92E00E94350117
S1133D5080916D0590E00E94490234C0039791F56B
S1133D6080916F058530D0F480912A0590E00E94FF
S1133D70490261E086EA92E00E94350180912905BA
S1133D8090E00E94490261E086EA92E00E943501D7
S1133D908091700590E00E94490214C080912A0528
S1133DA090E00E94490261E086EA92E00E943501B7
S1133DB08091290590E00E94490263E088EA92E03C
S1133DC00E943501809174052AEF280F91E022307A
S1133DD008F090E091110EC091E0893009F090E074
S1133DE0911108C084E90E949D0064E184E793E096
S1133DF00E94350184ED0E949D0064E184E793E014
S1133E000E943501DF91CF910895CF93DF93809184
S1133E10680590916905019709F0D2C00E943201AA
S1133E2080E80E949D0064E181ED93E00E943501E9
S1133E3080917405893041F464E186EE93E00E9438
S1133E4035010E94540DB0C021E0843008F020E018
S1133E5091E08C3009F090E0922B41F421E09AEF4C
S1133E60980F933008F020E02223D1F0873041F4FA
S1133E7060914A0570914B058CE291E008D661C0CF
S1133E8090E00197FC01EE0FFF1F8E0F9F1FFC01B6
S1133E90E45FF94F80816091700590E0EBD551C0EB
S1133EA08A3071F44091700550E06091290570E00A
S1133EB080912A0590E00E94B1080E94A30841C0A5
S1133EC08B3071F44091700550E06091290570E0E9
S1133ED080912A0590E00E9422090E94140931C0B1
S1133EE090E00197FC01EE0FFF1F8E0F9F1FFC0156
S1133EF0E45FF94F808160912A0590E0BBD5809101
S1133F00740590E00197FC01EE0FFF1F8E0F9F1FB9
S1133F10FC01E45FF94F81816091290590E0AAD505
S1133F208091740590E00197FC01EE0FFF1F8E0F46
S1133F309F1FFC01E45FF94F82816091700590E05E
S1133F4099D5C091740581E0C93008F080E08111F1
S1133F5006C081E0CC3009F080E08823C9F0D0E0CD
S1133F602197CE01880F991FC80FD91FC45FD94F5D
S1133F70888190E072D580937005898190E06DD539
S1133F8080936E058A8190E068D580936D050CC09E
S1133F908091700580936D0580912A05809370054A
S1133FA08091290580936E05109265051092640531
S1133FB082E08093730510922A051092290508C0A7
S1133FC080E80E949D0063E18BEF93E00E9435013D
S1133FD00E943201DF91CF910895CF93DF930E9425
S1133FE0320181E08093740510926105D8E1CFE03D
S1133FF049C0A8950FB6F894A895D1BD0FBEC1BD10
S11340008FD880E80E949D0080916005811106C0D0
S113401064E18FE094E00E94350105C064E185E22B
S113402094E00E94350180EC0E949D006AE08BE3DD
S113403094E00E94350180916005813081F4809183
S11340406F05853030F463E085E893E00E94350124
S11340500BC08091040190E00E94490205C0809148
S1134060040190E00E94490261E086E494E00E9429
S1134070350180916F058F5F80936F058B3010F051
S113408010926F0580916105882309F4B2CF8130C5
S113409069F48093730510926F0580910C0690E08B
S11340A0DCD480937005D8E1CFE02DC01092730565
S11340B02EC0A8950FB6F894A895D1BD0FBEC1BD6A
S11340C02FD880917205811105C08091740590E00C
S11340D024DC19C0813029F48091740590E01DDC42
S11340E012C0823021F491DE109272050CC083302C
S11340F051F4109273051092740510927205109287
S1134100690510926805809173058111D2CF0E94D0
S1134110320180E80E949D006EE088E494E00E94F1
S113412035010E944F01A8959FE088E10FB6F894ED
S1134130A89581BD0FBE91BD1092740510927305B0
S1134140109261051092600582E8809304010E9438
S113415032010E946611DF91CF910895049B11C032
S1134160809117058F5F809317058536C8F081E02D
S113417080937E051092160588E780931705C29AEE
S11341800895809116058F5F80931605853640F05B
S113419010927E051092170588E780931605C29841
S11341A008950E94DD0780E80E949D0065E087E590
S11341B094E00E9435018091F70490E00E94490246
S11341C061E084E992E00E9435018091F80490E076
S11341D00E94490263E089E992E00E9435018091DE
S11341E0F60490E00E94490265E083E893E00E94AF
S11341F0350180EC0E949D0065E08BEF92E00E9407
S113420035018091F90490E00E94490261E086EA58
S113421092E00E9435018091FA0490E00E944902E4
S113422061E086EA92E00E9435018091FB0490E00F
S11342300E94490267E081E893E00E94350184E925
S11342400E949D006EE08DE594E00E94350180910E
S1134250000590E00E94490264E08EE993E00E9428
S1134260350184ED0E949D006BE08CE694E00E9491
S113427035018091FE049091FF048B30910578F014
S11342808536910530F061E086E591E00E943501C4
S11342900BC062E085E591E00E94350105C062E053
S11342A085E591E00E9435018091FE049091FF0420
S11342B00E94490261E087E893E00E94350188E9A1
S11342C090E0CBD3813031F464E088E794E00C943F
S11342D03501089564E084E893E00C943501089571
S11342E080E80E949D0064E184E793E00E94350128
S11342F080EC0E949D0064E18DE794E00E9435010A
S113430084E90E949D0064E182E994E00E94350101
S113431084ED0E949D0064E184E793E00C943501F0
S1134320089580910A0590E02091770530917805F1
S11343308217930790F480917B058F5F853618F47C
S113434080937B05089588E780937B0510927A0516
S113435081E080935605C09A089580917A058F5F15
S1134360853618F480937A05089588E780937A0552
S113437010927B0510925605C09808950E94A810CB
S11343800E9462030E94B10480E80E949D0064E1DF
S113439087EA94E00E9435010E940810DB9A2FEF0F
S11343A080E792E0215080409040E1F700C0000097
S11343B0DB98A8959FE088E10FB6F894A89581BD95
S11343C00FBE91BDC2E318E1DFE0369A0E94A2015C
S11343D08FE19EE40197F1F700C00000369A0E9435
S11343E008028FE19EE40197F1F700C000000E94EB
S11343F0A4030E94AE030E94F3040E94FD04A89546
S11344000FB6F894A89511BD0FBED1BDC150E9F601
S11344109FEF26E181E1915020408040E1F700C008
S113442000008091480690E020D3019721F10E947A
S113443085128091480661E070E090E028D342E361
S113444050E06DE270E08DE090E00E94B1080E94BF
S1134450A30844E150E063E070E08FE090E00E9444
S113446022090E94140980E090E00E94FD0A80E085
S113447090E00E940B0B0E9466110E9432018CEBAB
S113448094E00E948D098BED94E00E948D0983E0F5
S113449090E090935B0580935A058BB38BBB84EDBE
S11344A00E949D0080918505909186050E94490295
S11344B080918705909188050E94490280917D052D
S11344C090E00E94490280917C0590E00E9449029C
S11344D008E11FE0C3E6D0E0A8950FB6F894A895CC
S11344E001BD0FBE11BD0E94340C60911205709184
S11344F0130580E090E045D127EF3EED43EA51E417
S1134500F2D113D170934705609346050E94C01100
S11345100E94BB168091770590917805059720F449
S1134520D0937805C09377058091750590917605B1
S1134530059720F410927605109275050FDE809190
S11345407E05811109C080910105811103C00E947B
S1134550401605C026DE03C0C3DE0E9421140E945B
S11345602B150E94EC160E949018DBDE0E94CE12DE
S113457080917305882309F4AFCF2FDDADCF505858
S1134580BB27AA270ED075C166D130F06BD120F0BD
S113459031F49F3F11F41EF45BC10EF4E095E7FB88
S11345A051C1E92F77D180F3BA17620773078407E3
S11345B0950718F071F49EF58FC10EF4E0950B2E5B
S11345C0BA2FA02D0B01B90190010C01CA01A00161
S11345D01124FF27591B99F0593F50F4503E68F1BC
S11345E01A16F040A22F232F342F4427585FF3CFFD
S11345F0469537952795A795F0405395C9F77EF4CE
S11346001F16BA0B620B730B840BBAF09150A1F016
S1134610FF0FBB1F661F771F881FC2F70EC0BA0F9C
S1134620621F731F841F48F4879577956795B79524
S1134630F7959E3F08F0B3CF9395880F08F099271C
S1134640EE0F979587950895D9D008F481E00895E1
S11346500CD00FC107D140F0FED030F021F45F3F01
S113466019F0F0C0511139C1F3C014D198F3992352
S1134670C9F35523B1F3951B550BBB27AA27621722
S11346807307840738F09F5F5F4F220F331F441F67
S1134690AA1FA9F333D00E2E3AF0E0E830D091509F
S11346A05040E695001CCAF729D0FE2F27D0660F8C
S11346B0771F881FBB1F261737074807AB07B0E8CB
S11346C009F0BB0B802DBF01FF2793585F4F2AF0E1
S11346D09E3F510568F0B6C000C15F3FECF3983EC1
S11346E0DCF3869577956795B795F7959F5FC9F73E
S11346F0880F911D9695879597F90895E1E0660FC7
S1134700771F881FBB1F621773078407BA0720F03F
S1134710621B730B840BBA0BEE1F88F7E0950895A8
S113472004D06894B111D9C00895BCD088F09F57C3
S113473090F0B92F9927B751A0F0D1F0660F771FE9
S1134740881F991F1AF0BA95C9F712C0B13081F0C9
S1134750C3D0B1E00895C0C0672F782F8827B85F11
S113476039F0B93FCCF3869577956795B395D9F72A
S11347703EF490958095709561957F4F8F4F9F4F34
S11347800895E89409C097FB3EF490958095709540
S113479061957F4F8F4F9F4F9923A9F0F92F96E989
S11347A0BB279395F695879577956795B795F111FE
S11347B0F8CFFAF4BB0F11F460FF1BC06F5F7F4F9B
S11347C08F4F9F4F16C0882311F096E911C07723AD
S11347D021F09EE8872F762F05C0662371F096E8B6
S11347E0862F70E060E02AF09A95660F771F881F85
S11347F0DAF7880F9695879597F90895990F000829
S1134800550FAA0BE0E8FEEF16161706E807F9079E
S1134810C0F012161306E407F50798F0621B730B39
S1134820840B950B39F40A2661F0232B242B252BBA
S113483021F408950A2609F4A140A6958FEF811D5D
S1134840811D089597F99F6780E870E060E00895FE
S11348509FEF80EC089500240A9416161706180694
S11348600906089500240A94121613061406050670
S11348700895092E0394000C11F4882352F0BB0F01
S113488040F4BF2B11F460FF04C06F5F7F4F8F4F64
S11348909F4F089557FD9058440F551F59F05F3F9F
S11348A071F04795880F97FB991F61F09F3F79F04E
S11348B087950895121613061406551FF2CF4695D0
S11348C0F1DF08C0161617061806991FF1CF869552
S11348D07105610508940895E894BB276627772736
S11348E0CB0197F908950BD0C4CFB5DF28F0BADF18
S11348F018F0952309F0A6CFABCF1124EECFCADF71
S1134900A0F3959FD1F3950F50E0551F629FF001DE
S1134910729FBB27F00DB11D639FAA27F00DB11D37
S1134920AA1F649F6627B00DA11D661F829F2227C0
S1134930B00DA11D621F739FB00DA11D621F839F47
S1134940A00D611D221F749F3327A00D611D231F1D
S1134950849F600D211D822F762F6A2F11249F576B
S113496050408AF0E1F088234AF0EE0FFF1FBB1F8E
S1134970661F771F881F91505040A9F79E3F51052D
S113498070F060CFAACF5F3FECF3983EDCF38695DE
S113499077956795B795F795E7959F5FC1F7FE2BD8
S11349A0880F911D9695879597F90895991B79E03D
S11349B004C0991F961708F0961B881F7A95C9F7AB
S11349C080950895EE0FFF1F0024001C0BBE079076
S11349D0F691E02D0994A29FB001B39FC001A39F5B
S11349E0700D811D1124911DB29F700D811D112424
S11349F0911D0895BB274A3031F4992322F4BDE276
S1134A00909581959F4F01C0BB27FB015527AA278D
S1134A10880F991FAA1FA41710F0A41B8395505147
S1134A20B9F7A05DAA3308F0A95DA193009779F7BF
S1134A30B111B1931192CB0100C0DC01FC01672FCD
S1134A4071917723E1F7329704C07C916D93708361
S1134A506291AE17BF07C8F30895E199FECF9FBBDB
S1134A608EBBE09A99278DB30895A8E1B0E042E0A7
S1134A7050E012C0262FE199FECF9FBB8EBB2DBB09
S1134A800FB6F894E29AE19A0FBE01960895F2DF08
S1134A90272FF1CFDC01CB01FC01E199FECF06C049
S1134AA0FFBBEEBBE09A31960DB20D9241505040DF
S10B4AB0B8F70895F894FFCF54
S1134AB8E022020082010A0A1F1F0E060C180E11BA
S1134AC811111111111F0E111111111F1F1F0E1198
S1134AD8111F1F1F1F1F0E111F1F1F1F1F1F0E1F18
S1134AE81F1F1F1F1F1F0A0A1F1F0E060C184545EC
S1134AF850524F4D2046554C4C2020202020202039
S1134B0820002D3E003030003A2D00446174653D8C
S1134B180054726F6F6D3D0020546F75743D002012
S1134B2846414E4D4F44453D002046414E5F414C61
S1134B3841524D3D002046696C7465725F4A616D4F
S1134B483D00204241545F564F4C544147453D0077
S1134B5856002054696D653D0044617461205365B5
S1134B686E64696E6720537461727473004E4F20CB
S1134B78534156454420454550524F4D20444154D5
S1134B8841004269736D696C6C6168697220202008
S1134B98202020202020005261686D616E697220F7
S1134BA8526168696D2020202020200042616E67D0
S1134BB86C616C696E6B204643555F56352E3037F1
S1134BC800485320454E47494E454552494E4720D3
S1134BD84C54442E2000526F6D543A004320002058
S1134BE8546F75543A00430020566F6C74200020AB
S1134BF84C6F7720766F6C742020002052504D3A09
S1134C080046414E203A0044656C61792020004FEB
S1134C186666202020200052455354202020004F4F
S1134C286E2020202020004641554C54202000535B
S1134C3865632020200044617461204572617365B6
S1134C48640020202F002F20202F3230002F202016
S1134C582020003A20203A003A2020004D656E7545
S1134C68204974656D2053656C656374696F6E20A3
S1134C78200046616E2053746172742054656D700F
S1134C883E3D004D61782053706565642054656D20
S1134C98703E3D0046616E2053746F702054656DFC
S1134CA870203C0046616E2052756E54696D653AF9
S1134CB80046616E5265737454696D653A004578AF
S1134CC87472656D652054656D7065726174757272
S1134CD8653E0046616E20446973636F6E6E65635A
S1134CE87420766F6C743C004461746120496E745E
S1134CF8657276616C3D00446F776E6C6F616420F9
S1134D0844617461202020202020200054696D65AE
S1134D183A2000446174653A200052504D204F6691
S1134D28663A200020202020202020202020202037
S1134D3820202020202020200050726573732055E5
S1134D48503D59657320446F776E3D4E6F004D6931
S1134D586E200020202E2000566F6C74005B4F4696
S1134D68465D2E2E2E2E2020005B4F4E5D2E2E2EBD
S1134D782E2E2020005B2020205D202020202020B3
S1134D88005570646174696E67204D656E752E2ECA
S1134D982E2E2E2E2E0053686F77204461746120C6
S1134DA84F6E2050432020202020005570646174E9
S1134DB8696E67204D656E75204552524F520050FA
S1134DC8726F7669646520746865205061737377BF
S1134DD86F726420005072657373204F6B20746F78
S1134DE820456E746572202020200050617373770B
S1134DF86F72643A5B005D002A2A2A4D656E75203D
S1134E08454E442A2A2A00446174653A005361765F
S1134E186520496E74657276616C3A0053617665F3
S1134E286420446174613A0046756C6C0021212148
S1134E38212120434155544F4E2021212121212055
S1134E4820004669726520416C61726D20416C6C6A
S1134E58204F464620200053656E736F72204368C6
S1134E6865636B2E2E2E2020202020004269736D4E
S1134E786E696C6C61686972205261686D616E69F3
S1134E887220526168696D200D0A0046435520421C
S1134E98616E676C616C696E6B56312E3031200D12
S1054EA80A00FA
S9030000FC
