:1000000052C000006FC000006DC000006BC0000057
:1000100069C0000067C0000065C0000063C0000048
:100020000C94410E5FC000005DC000005BC000008A
:1000300059C0000057C0000055C0000053C0000068
:100040000C945F0E4FC000004DC000004BC000007C
:1000500049C0000047C0000045C0000043C0000088
:1000600041C000003FC000003DC000003BC0000098
:1000700039C0000037C0000035C0000033C00000A8
:1000800031C000002FC000002DC00000CE1CD41CC9
:10009000DA1CE01CE61CEC1CF21CF81CFE1C041D07
:1000A0000A1D101D161D11241FBECFEFD0E1DEBFAB
:1000B000CDBF15E0A0E0B1E0EEE7FBE400E00BBF50
:1000C00002C007900D92A630B107D9F726E0A6E04E
:1000D000B5E001C01D92AB3BB207E1F70E942122BF
:1000E0000C94BD258DCFBF9A8FEF83BD85B58062FF
:1000F00085BD85B5886485BD85B5826085BD08955B
:1001000013BCBF980895DA988BB38BBBD8988FEC4B
:1001100097E00197F1F700C00000D29A8AB38ABB3A
:10012000D09A8FEC97E00197F1F700C000008FECB8
:1001300097E00197F1F700C000000895EFE9FFE0B4
:100140003197F1F700C00000DA989BB39BBBD89AB7
:100150009AB3906F9ABB9BB39F70282F207F922BEE
:100160009BBBD898D89A2BB32F70F0E18F9FC0011A
:100170001124822B8BBBD8980895EFECF7E03197D0
:10018000F1F700C0000000000000000000000000C7
:100190000000DA9A9BB39BBBD89A000000000000D5
:1001A0009AB3906F9ABB9BB39F70282F207F922B9E
:1001B0009BBB000000000000D89800000000000079
:1001C000D89A0000000000002BB32F70F0E18F9F41
:1001D000C0011124822B8BBB000000000000D898C6
:1001E00000000000000008958FEC97E00197F1F700
:1001F00000C0000088DF80E0A1DF8FEC97E001976E
:10020000F1F700C0000088E299DF81E097DF9FEFFF
:1002100020E782E0915020408040E1F700C00000DC
:100220008FEC97E00197F1F700C0000086E086DFD1
:100230008FEC97E00197F1F700C000008CE07EDFC3
:100240008FEC97E00197F1F700C000008FEC97E08A
:100250000197F1F700C000008FEC97E00197F1F7EC
:1002600000C00000089581E069CF08950F931F93A7
:10027000CF93DF93009779F0662369F0EC0161502A
:10028000062F10E00F5F1F4F080F191F899175DFB0
:10029000C017D107D9F7DF91CF911F910F91089522
:1002A000A8959FE088E10FB6F894A89581BD0FBE90
:1002B00091BD2FEF89E698E1215080409040E1F711
:1002C00000C00000A8959FE088E10FB6F894A895BB
:1002D00081BD0FBE91BD2FEF89E698E1215080408E
:1002E0009040E1F700C00000A8959FE088E10FB6BC
:1002F000F894A89581BD0FBE91BD2FEF89E698E1D6
:10030000215080409040E1F700C00000A8959FE098
:1003100088E10FB6F894A89581BD0FBE91BD2FEF6F
:1003200089E698E1215080409040E1F700C000004C
:100330009ACF089580E487B986B1876086B986B17F
:10034000806A86B9089585E487B98FE19EE40197B4
:10035000F1F700C0000064B175B1072E000C880BE6
:10036000990B0E9426242BEF3AE340E75DE30E94BD
:10037000D624609358057093590580935A0590933D
:100380005B0520914E0530914F052A303105D8F498
:100390002F5F3F4F30934F0520934E059B01AC01DB
:1003A00060915405709155058091560590915705BF
:1003B0000E9423236093540570935505809356053E
:1003C0009093570508952A30310511F510924F0585
:1003D00010924E0520E030E040E251E46091540577
:1003E0007091550580915605909157050E948B2379
:1003F0006093500570935105809352059093530577
:1004000010925405109255051092560510925705FA
:10041000089587E487B98FE19EE40197F1F700C062
:10042000000084B195B190934D0580934C052091C7
:100430004A0530914B052A30310588F42F5F3F4F34
:1004400030934B0520934A0520914805309149058A
:10045000820F931F90934905809348050895109249
:100460004B0510924A052091480530914905ADECA5
:10047000BCEC0E944E259695879596958795969506
:1004800087959093470580934605109249051092F1
:1004900048050895CF93DF93EC010A9720F461E0BB
:1004A00086E591E0E3DE4AE06FEA76E0CE010E9465
:1004B0005D25EFEAF6E001900020E9F73197BF01F2
:1004C0006F5A76408FEA96E0D1DEDF91CF910895A2
:1004D000CF92DF92EF92FF920F931F93CF93DF9310
:1004E000CDB7DEB72A970FB6F894DEBF0FBECDBFEB
:1004F0008C01009769F461E086E591E0B7DE4AE09F
:10050000BE016F5F7F4F80E090E00E945D2509C0D3
:100510004AE0BE016F5F7F4F0E945D250A301105E2
:1005200080F461E086E591E0A1DECE010196FC0158
:1005300001900020E9F73197BF01681B790B96DE27
:1005400028C0FE013196DF010D900020E9F78D01F2
:100550000E1B1F0B0250110992F41BC0F601819172
:100560006F010BDEFFEFEF1AFF0A82E0E816F104DD
:1005700011F48EE202DE0150110982F70AC089816E
:10058000FCDD6E01E2E0CE0ED11CEE24E394F12CF2
:10059000F2CF2A960FB6F894DEBF0FBECDBFDF9123
:1005A000CF911F910F91FF90EF90DF90CF90089522
:1005B0001C98149A8FEB93E00197F1F700C00000AC
:1005C0009FB7F8941498E0EBEA95F1F781B19FBFDB
:1005D000EBE3F3E03197F1F700C000000C9B02C0A1
:1005E0008071089581E008959FB7F894149A22E0ED
:1005F0002A95F1F700C08111149825E22A95F1F7A8
:1006000000000C9B80E028E72A95F1F714989FBF23
:100610000895CF93DF93C82FD8E08C2F8170E4DF4B
:10062000C6958111C068D150C1F78C2FDF91CF9151
:1006300008958FEFEECF0895FF920F931F93CF93FE
:10064000DF93F82EB5DF811120C080EFE2DF00E0FC
:10065000C0E418EF1C0F81E0C7DFD82F81E0C4DFB2
:10066000882319F0DD2339F012C0D11104C0CF1551
:1006700011F00C2FD1E08D2FB7DFC150C113EBCF9C
:10068000C12F1111E6CF802F03C08FEF01C08EEF75
:10069000DF91CF911F910F91FF900895CF93C82FB5
:1006A00087DF8CECB6DF8C2FB4DFCF910895CF932A
:1006B000DF93EC018881C0DF888381508D3FD0F3C8
:1006C000DF91CF910895CF92DF92FF920F931F9306
:1006D000CF93DF93CDB7DEB729970FB6F894DEBF7F
:1006E0000FBECDBF8FEF89870F2EF7E8CF2EF6E034
:1006F000DF2EF02DF12C8E01075F1F4FC801D7DFD1
:10070000998582E0890F823088F0FE013196D6010A
:1007100081918D93E017F107D9F7F394992331F084
:1007200088E0C80ED11C85E0F812E8CF8F2D2996FD
:100730000FB6F894DEBF0FBECDBFDF91CF911F91F2
:100740000F91FF90DF90CF90089532DF0C9B06C091
:100750008CECA4DF84E4A2DF80E0089508950F9379
:100760001F93CF93DF93C0918B05D0918C058CECB8
:1007700095DF8EEB93DF5DDF182F5BDF082F18DF2F
:10078000882371F0809145058F5F853120F4809337
:10079000450560E016C089E18093450560E011C021
:1007A000612F70E0702B80E090E00E94242420E014
:1007B00030E040E85DE30E94D6240E94F8231092C6
:1007C000450580916A058A3070F420917205309158
:1007D0007305260F311D30937305209372058F5FCB
:1007E00080936A0518C010926A05209172053091B5
:1007F0007305ADECBCEC0E944E25969587959695B9
:1008000087959695879590938C0580938B0510928C
:1008100073051092720580918B0590918C05873934
:10082000910528F0DD27D0938C05C0938B0580912E
:100830008B0590918C05039720F410928C051092F3
:100840008B0580E0DF91CF911F910F9108951A9849
:10085000129A8FEB93E00197F1F700C000009FB769
:10086000F8941298E0EBEA95F1F781B19FBFEBE3C2
:10087000F3E03197F1F700C000000A9B02C08470DA
:10088000089581E008959FB7F894129A22E02A957E
:10089000F1F700C08111129825E22A95F1F70000C6
:1008A0000A9B80E028E72A95F1F712989FBF0895E8
:1008B000CF93DF93C82FD8E08C2F8170E4DFC695EB
:1008C0008111C068D150C1F78C2FDF91CF9108956D
:1008D0008FEFEECF0895FF920F931F93CF93DF9387
:1008E000F82EB5DF811120C080EFE2DF00E0C0E428
:1008F00018EF1C0F81E0C7DFD82F81E0C4DF882309
:1009000019F0DD2339F012C0D11104C0CF1511F058
:100910000C2FD1E08D2F68DEC150C113EBCFC12F5A
:100920001111E6CF802F03C08FEF01C08EEFDF9152
:10093000CF911F910F91FF900895CF93C82F87DF1C
:100940008CECB6DF8C2FB4DFCF910895CF93DF937B
:10095000EC018881C0DF888381508D3FD0F3DF9127
:10096000CF910895CF92DF92FF920F931F93CF9371
:10097000DF93CDB7DEB729970FB6F894DEBF0FBE71
:10098000CDBF8FEF89870F2EF7E8CF2EF6E0DF2E51
:10099000F02DF12C8E01075F1F4FC801D7DF99851D
:1009A00082E0890F823088F0FE013196D601819174
:1009B0008D93E017F107D9F7F394992331F088E08C
:1009C000C80ED11C85E0F812E8CF8F2D29960FB6FE
:1009D000F894DEBF0FBECDBFDF91CF911F910F9175
:1009E000FF90DF90CF90089532DF0A9B06C08CEC19
:1009F000A4DF84E4A2DF80E0089508950F931F939D
:100A0000CF93DF93C0918D05D0918E058CEC95DF4F
:100A10008EEB93DF5DDF182F5BDF082F18DF882355
:100A200071F0809144058F5F853120F480934405F7
:100A300060E016C089E18093440560E011C0612F39
:100A400070E0702B80E090E00E94242420E030E0F1
:100A500040E85DE30E94D6240E94F82310924405EA
:100A600080916B058A3070F4209174053091750582
:100A7000260F311D30937505209374058F5F809389
:100A80006B0518C010926B052091740530917505A7
:100A9000ADECBCEC0E944E25969587959695879572
:100AA0009695879590938E0580938D051092750588
:100AB0001092740580918D0590918E05873991056E
:100AC00028F0DD27D0938E05C0938D0580918D058C
:100AD00090918E05039720F410928E0510928D054B
:100AE00080E0DF91CF911F910F910895E4E7F0E04E
:100AF000108282E18093700081E0809371001092F7
:100B0000720084E48083A895089585E08093700046
:100B1000E1E7F0E080818C7F8083A8950895CF93F2
:100B2000DF93E4E7F0E034EAA1E7B0E0C3E7D0E028
:100B300050EA44E8308320812223ECF72C91287F6F
:100B4000283009F046C05883408320812223ECF7E7
:100B50002C91287F283171F79093730094E890933B
:100B60007400E4E7F0E090819923ECF79091710034
:100B7000987F983281F58093730084E880937400A5
:100B8000E4E7F0E080818823ECF780917100887FB2
:100B9000883219F56093730084E880937400E4E769
:100BA000F0E080818823ECF780917100887F8832A3
:100BB000B1F484E980937400E4E7F0E0808184FD7F
:100BC000FDCF8FEB9DE50197F1F700C0000081E0BC
:100BD00007C080E005C080E003C080E001C080E085
:100BE000DF91CF910895CF93DF93E4E7F0E034EA0B
:100BF000A1E7B0E0C3E7D0E050EA44E830832081C9
:100C00002223ECF72C91287F283009F05DC058830F
:100C1000408320812223ECF72C91287F283171F723
:100C20009093730094E890937400E4E7F0E090816F
:100C30009923ECF790917100987F983209F046C0A3
:100C40008093730084E880937400E4E7F0E080818F
:100C50008823ECF780917100887F8832C9F584EA97
:100C600080937400E4E7F0E080818823ECF78091C2
:100C70007100887F803171F581EA8093730084E888
:100C800080937400E4E7F0E080818823ECF78091A2
:100C90007100887F803401F584E880937400E4E774
:100CA000F0E080818823ECF780917100887F88359F
:100CB000A9F48091730094E990937400E4E7F0E064
:100CC000908194FDFDCF0BC080E009C080E007C09B
:100CD00080E005C080E003C080E001C080E0DF91DB
:100CE000CF91089584EA80937400E4E7F0E0808176
:100CF0008823ECF790917100987F81E0983009F497
:100D000080E0089584EA80937400E4E7F0E0808155
:100D10008823ECF790917100987F81E0903109F47D
:100D200080E0089580FF02C020E401C028E18093A4
:100D3000730084E880937400E4E7F0E08081882306
:100D4000ECF790917100987F81E0921301C080E0F0
:100D500008958093730084E880937400E4E7F0E0E2
:100D600080818823ECF790917100987F81E0983220
:100D700009F480E0089584EC80937400E4E7F0E0E7
:100D800080818823ECF780917100887F803519F489
:100D90008091730008958EE7089584E8809374002D
:100DA000E4E7F0E080818823ECF780917100887F90
:100DB000883519F48091730008958EE70895E7EC63
:100DC000F5E0ADE6B6E016968C911697877020E1B7
:100DD000829FC001112417969C9117979F70892BB1
:100DE000808313968C911397877020E1829FC001B6
:100DF000112414969C9114979F70892B81838C9158
:100E0000837020E1829FC001112411969C919F70F4
:100E1000892B8283ABE7B6E01A968C911A9783836D
:100E20008C91837020E1829FC001112411969C91C6
:100E300011979F70892B848313968C911397282F79
:100E4000217030E022953295307F3227207F322783
:100E500014968C9114978F70282B258318968C915B
:100E6000189720E1829FC001112419969C919F70D0
:100E7000892B868308950F931F93CF9333DF81309F
:100E800021F484E9809374003BC080ED4BDF813016
:100E900021F484E98093740033C080E05ADF81300C
:100EA00021F484E9809374002BC02CDF813021F47D
:100EB00084E98093740024C081ED34DF813041F4F3
:100EC00084E9809374001CC068DF8E37A1F406C0EB
:100ED00007EC15E0C0E04FDF8E3731F480E82ED903
:100EE00084E9809374000CC0F80181938F01CF5F77
:100EF000C63089F7E9CF8093CD0584E980937400EB
:100F0000CF911F910F910895B6DFA7ECB5E08C91BA
:100F1000EDE6F6E0982F9F70906397838077829537
:100F20008F70806386832AE3258311968C911197B5
:100F3000982F9F7090639483807782958F708063E1
:100F40008383228312968C91982F9F709063918354
:100F5000807382958F708063808308958CDFEBE7C8
:100F6000F6E080E28387A7ECB5E016968C911697A1
:100F7000982F9F709063918782958F708063808790
:100F800080E3878382E386832FE2258315968C9105
:100F90001597982F9F7090639483829581708063DA
:100FA0008383228314968C91982F9F7090639183F2
:100FB000807382958F7080638083089597DDA4DFAE
:100FC000EDE6F6E08681880F8056982F990F990FED
:100FD000890F97819053890F80930F058381880F24
:100FE0008056982F990F990F890F94819053890FEC
:100FF00080930E058081880F8056982F990F990F46
:10100000890F91819053890F80930D05A7DFEBE73E
:10101000F6E08081880F8056982F990F990F890FDD
:1010200091819053890F80930B058381880F80569F
:10103000982F990F990F890F94819053890F80935E
:101040000C058085880F8056982F990F990F890F6E
:1010500091859053890F80930A0508950F931F93EC
:10106000CF93DF933FDE813029F484E980937400CD
:1010700081E026C080ED56DE813029F484E980933A
:10108000740081E01DC080E064DE813029F484E9D1
:101090008093740081E014C0C7ECD5E00AEC15E041
:1010A000899157DE813029F484E98093740081E0CE
:1010B00007C0C017D107A1F784E98093740080E0CE
:1010C000DF91CF911F910F9108950F931F93CF93AD
:1010D000DF9308DE813039F480E830D884E98093EA
:1010E000740081E02CC080ED1DDE813039F480E891
:1010F00025D884E98093740081E021C083E029DE53
:10110000813039F480E81AD884E98093740081E052
:1011100016C0CAECD5E00EEC15E089911ADE8130DC
:1011200039F480E80BD884E98093740081E007C02B
:10113000C017D10791F784E98093740080E0DF91B4
:10114000CF911F910F9108953ADE88DF811105C07C
:101150008AD880E80C949E00089585D880E80C9485
:101160009E0008950F931F93CF93DF938C01EB01A3
:10117000EDE6F6E09C01ADECBCEC0E944E259695A8
:101180008795969587959695879520E3280F2083D8
:101190009C01220F331F880F991F880F991F880FFA
:1011A000991F820F931F081B190B005D01831AE31F
:1011B00012839E010E944E25969587959695879558
:1011C0009695879520E3280F23839C01220F331FD8
:1011D000880F991F880F991F880F991F820F931FDF
:1011E000C81BD90BC05DC48315839A010E944E258C
:1011F00096958795969587959695879520E3280FE0
:1012000026839C01220F331F880F991F880F991F77
:10121000880F991F820F931F481B590B405D47830E
:10122000DF91CF911F910F910895C9DD4EDF81119C
:1012300005C019D880E80C949E00089514D880E861
:101240000C949E0008950F931F93CF93DF938C010E
:10125000EB01EBE7F6E09C01ADECBCEC0E944E2507
:1012600096958795969587959695879520E3280F6F
:1012700020839C01220F331F880F991F880F991F0D
:10128000880F991F820F931F081B190B005D0183A4
:101290001FE212839E010E944E2596958795969592
:1012A00087959695879520E3280F23839C01220F2D
:1012B000331F880F991F880F991F880F991F820F5E
:1012C000931FC81BD90BC05DC483158382E386833B
:1012D00080E387839A010E944E259695879596957F
:1012E00087959695879520E3280F20879C01220FEC
:1012F000331F880F991F880F991F880F991F820F1E
:10130000931F481B590B405D4187DF91CF911F917F
:101310000F9108955D9BFECF8CB908950F931F9395
:10132000CF93DF93FC0101900020E9F73197DE2F86
:10133000D81B49F08C01C0E0F80181918F01EADFF0
:10134000CF5FDC13F9CFDF91CF911F910F910895FB
:101350009093900089B988E08AB986E080939500DF
:10136000119A08954F925F926F927F928F929F92FF
:10137000AF92BF92CF92DF92EF92FF920F931F93A3
:10138000CF93DF93CDB7DEB72A970FB6F894DEBFC1
:101390000FBECDBF5C0180E389838A838B838C83FE
:1013A0008D838E83A114B10421F4B4DF812C912CA0
:1013B0004CC0CE0101966C018501E12CF12C01C0DD
:1013C00074019801ADECBCEC0E944E259695879572
:1013D00096958795969587959C01220F331F880FC8
:1013E000991F880F991F880F991F820F931FB801AB
:1013F000681B790B80E090E00E9424242B013C01C3
:101400009801ADECBCEC0E944E258C011695079519
:10141000169507951695079520E030E040E452E4D4
:10142000C301B2010E9423230E94F323F6016193BA
:101430006F014701FFEF8F1A9F0A0115110509F08F
:10144000BFCF8AE0A816B104A0F480E363DF840173
:1014500001501109F2F0E1E0F0E0EC0FFD1F8E0EFB
:101460009F1EF40182914F0155DF01501109CAF707
:1014700010C06701FF206CF08E010E0D1F1D0E5F66
:101480001F4FF80182918F0145DFF1E0CF1AD1089B
:10149000C2F72A960FB6F894DEBF0FBECDBFDF911C
:1014A000CF911F910F91FF90EF90DF90CF90BF9061
:1014B000AF909F908F907F906F905F904F90089526
:1014C0008DE028DF8AE026CF0895CF92DF92EF9259
:1014D000FF920F931F93CF93DF93CDB7DEB72A9779
:1014E0000FB6F894DEBF0FBECDBF8C01009761F43C
:1014F00086E591E00FDF4AE0BE016F5F7F4F80E03D
:1015000090E00E945D2509C04AE0BE016F5F7F4FF9
:101510000E945D250A301105F8F486E591E0FADEB7
:10152000DE011196FD0101900020E9F731977F015E
:10153000EA1AFB0A870101501109B2F1A1E0B0E0FB
:10154000AC0FBD1FEA0EFB1EF70182917F01E2DEA8
:1015500001501109CAF728C0FE013196DF010D9034
:101560000020E9F78D010E1B1F0B0250110992F4A8
:101570001BC0F60181916F01CDDEFFEFEF1AFF0A6C
:1015800082E0E816F10411F48EE2C4DE0150110984
:1015900082F70AC08981BEDE6E0192E0C90ED11CBD
:1015A000EE24E394F12CF2CF2A960FB6F894DEBF26
:1015B0000FBECDBFDF91CF911F910F91FF90EF90A4
:1015C000DF90CF900895EEE1F6E060837183089597
:1015D0001092070510920605FC01618170E070937E
:1015E000070560930605762F66278081682B709328
:1015F00007056093060580E090E00895CF93C92F1A
:10160000682F89EF91E00E949D256C2F8AEF91E071
:101610000E949D25CF910895CF93C92F682F8BEFFE
:1016200091E00E949D256C2F8CEF91E00E949D25FA
:10163000CF9108950F931F93CF9389EF91E00E946C
:101640009025C82F8AEF91E00E9490254C2F50E002
:1016500060E070E08A019B01182BD901C801CF918D
:101660001F910F9108950F931F93CF938BEF91E0EC
:101670000E949025C82F8CEF91E00E9490254C2F5E
:1016800050E060E070E08A019B01182BD901C8018D
:10169000CF911F910F910895CF92DF92EF92FF9219
:1016A0000F931F93CF93DF93C5DFEC016C01CC0C3C
:1016B000DD1CC80ED91ECC0CDD1CCC0CDD1CE12CB5
:1016C000F12C20E030E040E251E46091500570914F
:1016D000510580915205909153050E94D6240E9495
:1016E000F82371DFB701A601445F5F4F6F4F7F4F53
:1016F0008091000190910101A0910201B09103013C
:1017000084179507A607B707C8F40E94330184ED34
:101710000E949E0064E18EE391E00E94360161E048
:1017200088E990E00E949D2580E090E067DFCE018F
:1017300073DFC12CD12C7601C0E0D0E08FE19EE4B4
:101740000197F1F700C0000060910B05C601E7D9D1
:10175000EFE1FEE43197F1F700C00000C601019609
:1017600060910C05DCD98FE19EE40197F1F700C090
:101770000000C601029660910A05D1D9EFE1FEE4AE
:101780003197F1F700C00000C601039660910D0586
:10179000C6D98FE19EE40197F1F700C00000C601B1
:1017A000049660910E05BBD9EFE1FEE43197F1F7A5
:1017B00000C00000C601059660918D05B0D98FE18B
:1017C0009EE40197F1F700C00000C6010696609103
:1017D0008B05A5D9EFE1FEE43197F1F700C00000D9
:1017E000C601079660916E059AD98FE19EE4019734
:1017F000F1F700C00000C601089660915E058FD920
:10180000EFE1FEE43197F1F700C00000C601099650
:1018100060912E0584D98FE19EE40197F1F700C015
:1018200000000EE116E0C6010A96F801608177D942
:101830008FE19EE40197F1F700C00000C6010B960E
:10184000F80161816CD98FE19EE40197F1F700C046
:101850000000CE010196D2DEDF91CF911F910F9152
:10186000FF90EF90DF90CF900895A8DB80910E0558
:10187000609114050E94392591111AC081E0909160
:101880000F05911180E0882399F081E09091050186
:10189000913009F080E0882359F037D9FDDE82E0ED
:1018A0008093050123D9C6DE90931305809312051A
:1018B00080910F05813011F48093050108958F9276
:1018C0009F92AF92BF92DF92EF92FF920F931F937E
:1018D000CF93DF934B015C0180910805909109053E
:1018E0000196909309058093080582E591E016DD45
:1018F00080910805909109058B30910570F085362F
:10190000910538F0883E934058F486E591E006DD75
:1019100007C085E591E002DD03C085E591E0FEDCCE
:1019200080910805909109051DDD88E591E0F6DCC0
:101930008BE591E0F3DCE9D8D501C4010C96A11D3B
:10194000B11D88169906AA06BB0608F08EC0C0E035
:10195000D0E00F2EFEE1EF2EF6E0FF2EF02D0F2E41
:10196000F8E1DF2EF02D0FE02196CE010197880DD2
:10197000991D39D9182FC630D1051CF490E0F2DC3E
:101980004BC0C630D10539F481E691E0C7DC812F28
:1019900090E0E8DC5FC0C730D10539F488E691E01B
:1019A000BDDC812F90E0DEDC55C0C830D10539F4B4
:1019B0008FE691E0B3DC812F90E0D4DC4BC0C930DE
:1019C000D10539F489E791E0A9DC812F90E0CADCE8
:1019D00041C0CA30D10539F485E891E09FDC812F00
:1019E00090E0C0DC37C0CB30D10531F4F701808303
:1019F00082E991E093DC2EC0CC30D10569F4F70187
:101A00008183C701E5DD80910605909107055DDDC5
:101A100080EA91E083DC1EC0C130D10519F48DE26B
:101A200079DC18C0C230D10519F48DE273DC12C024
:101A3000C330D10521F482EA91E070DC0BC0C430E0
:101A4000D10519F48AE366DC05C0C530D10511F46F
:101A500080E260DCA8950FB6F894A895D1BC0FBEC3
:101A600001BDCC30D10509F07FCF40D829DDFFEF93
:101A700020E782E0F15020408040E1F700C0000004
:101A8000A8959FE088E10FB6F894A89581BD0FBE98
:101A900091BDDF91CF911F910F91FF90EF90DF905B
:101AA000BF90AF909F908F900895CF92DF92EF926A
:101AB000FF920F931F93CF93DF93BCDD8C011D9892
:101AC000FFDC89EA91E02ADC1092090510920805F2
:101AD0000115110521F48DEB91E020DC80C088E92F
:101AE00090E00E949025813009F055C0BCDD8C014A
:101AF000E7DCA0DD7C01009721F1EC01CC0FDD1FBC
:101B0000C80FD91FCC0FDD1FCC0FDD1F2C970F2E58
:101B1000F8E1CF2EF02D0F2EFFE0DF2EF02DA8954F
:101B20000FB6F894A895C1BC0FBED1BCBE0180E031
:101B300090E0C5DE81E0E81AF1082C97E114F10489
:101B400071F778DD7C010817190709F448C0E8012E
:101B5000CC0FDD1FC00FD11FCC0FDD1FCC0FDD1F41
:101B60002C970F2EF8E1CF2EF02D0F2EFFE0DF2E59
:101B7000F02DA8950FB6F894A895C1BC0FBED1BCA6
:101B8000BE0180E090E09BDE015011092C97E01629
:101B9000F10679F724C094DCE801CC0FDD1FC00FFB
:101BA000D11FCC0FDD1FCC0FDD1F2C970F2EF8E1BE
:101BB000EF2EF02D0F2EFFE0FF2EF02DA8950FB683
:101BC000F894A895E1BC0FBEF1BCBE0180E090E0A6
:101BD00076DE015011092C970115110579F71D9A30
:101BE000DF91CF911F910F91FF90EF90DF90CF90F9
:101BF0000895809142058F5F809342058C3380F079
:101C0000809141058F5F80934105109242058C338E
:101C100038F0809143058F5F809343051092410512
:101C2000089580913D058F5F80933D058C3380F052
:101C300080913C058F5F80933C0510923D058C336D
:101C400038F080913E058F5F80933E0510923C05F1
:101C5000089580913A058F5F80933A058C3380F028
:101C6000809139058F5F8093390510923A058C3346
:101C700038F080913B058F5F80933B0510923905CA
:101C800008951F920F920FB60F9211248F939F9376
:101C900080912A0590912B05019690932B058093B6
:101CA0002A059F918F910F900FBE0F901F9018954E
:101CB00087B7816087BF83B7836083BF08951F9212
:101CC0000F920FB60F9211240BB60F922F933F93E2
:101CD0004F935F936F937F938F939F93AF93BF9334
:101CE000EF93FF93809110059091110501969093C9
:101CF000110580931005843F914030F4E2E6F0E056
:101D000080818260808305C0E2E6F0E080818D7F83
:101D100080838091A205813228F01092A205109252
:101D2000F50517C08823A9F0809116059091170535
:101D300001968536910528F4909317058093160532
:101D400008C010921705109216051092A205109265
:101D5000F50580919B0590919C050197D9F48091A0
:101D6000990590919A050196893B2BE0920728F4FA
:101D700090939A058093990504C010929A05109249
:101D80009905D99A8091990590919A058536910582
:101D900008F0D9988091100590911105813D9340EC
:101DA00008F4B4C080912F05813049F48091680512
:101DB000909169050196909369058093680581E08B
:101DC00090916E05913009F080E0811108C081E0AA
:101DD00090918205913009F080E08823D9F021DFCD
:101DE00080912A0590912B059093290580932805D1
:101DF00010922B0510922A05809135058F5F8D3347
:101E000018F48093350506C08CE38093350581E096
:101E1000809336052091800591E080916F05813097
:101E200009F090E081E030918105313009F080E0E7
:101E3000892B31F481E0213009F080E08823D9F04A
:101E400080913405813051F48091260590912705C9
:101E5000019690932705809326050DC0211102C09D
:101E6000F8DE09C0809178059091790501969093EC
:101E7000790580937805BDDE10921105109210054A
:101E800080915E0590915F05019751F48091330533
:101E90008F5F853018F48093330502C010923305AC
:101EA000809197059091980501969093980580935D
:101EB00097058837910531F40E94F4001092980537
:101EC000109297058091A005813071F480919F0553
:101ED0008F5F80939F058B3530F093981092A0050B
:101EE00010929F0501C0939A80911806909119064F
:101EF00001968F3521E0920728F49093190680937C
:101F0000180604C01092190610921806FF91EF915E
:101F1000BF91AF919F918F917F916F915F914F9101
:101F20003F912F910F900BBE0F900FBE0F901F90FF
:101F3000189580913E0590E00E944A0261E086EA91
:101F400092E00E94360180913C0590E00E944A0296
:101F500061E086EA92E00E94360180913D0590E0C2
:101F60000C944A020895179883B193B18068892B25
:101F700083B98AB780688ABF89B7806889BF0895A6
:101F8000CF92DF92EF92FF920F931F93CF93DF9345
:101F9000CDB7DEB7E8970FB6F894DEBF0FBECDBF62
:101FA00088E3E6E0F1E0DE01119601900D928A955A
:101FB000E1F780E40E949E008E010F5F1F4F6E01CB
:101FC00089E3C80ED11C0F2EF8E1EF2EF02D0F2E55
:101FD000FFE0FF2EF02DF80181918F010E94BD00DE
:101FE000A8950FB6F894A895E1BC0FBEF1BC0C15EE
:101FF0001D0589F7E8960FB6F894DEBF0FBECDBF7A
:10200000DF91CF911F910F91FF90EF90DF90CF90D4
:10201000089553B343B333B323B3852F817090E056
:102020004270840F911D3870830F911D2072820FB2
:10203000911D039709F08CC0C69A2FEF84E39CE0B2
:10204000215080409040E1F700C00000C698A8955C
:102050009FE088E10FB6F894A89581BD0FBE91BDB1
:10206000C59A2FEF84E39CE0215080409040E1F737
:1020700000C00000C598A8959FE088E10FB6F894CD
:10208000A89581BD0FBE91BDC29A2FEF84E39CE05D
:10209000215080409040E1F700C00000C298A89510
:1020A0009FE088E10FB6F894A89581BD0FBE91BD61
:1020B000C09A2FEF84E39CE0215080409040E1F7EC
:1020C00000C00000C098A8959FE088E10FB6F89482
:1020D000A89581BD0FBE91BD1E9A2FEF84E39CE0B1
:1020E000215080409040E1F700C000001E98A89564
:1020F0009FE088E10FB6F894A89581BD0FBE91BD11
:10210000C49A2FEF84E39CE0215080409040E1F797
:1021100000C00000C498A8959FE088E10FB6F8942D
:10212000A89581BD0FBE91BDDB9A2FEF80E792E0AD
:10213000215080409040E1F700C00000DB98A89556
:102140009FE088E10FB6F894A89581BD0FBE91BDC0
:10215000089582B182B9E1E6F0E0808180838081D8
:10216000808383B1846183B98B9A8081808382B1BB
:10217000806682B980818264808387B3856D87BBE6
:1021800084B384BB85B38B6285BB1D9AD39A8BB312
:102190008BBBA4E6B0E08C9182608C938B9A939871
:1021A000A5E6B0E08C9182608C93BF9AC598BD9AE9
:1021B000C598D19AD99A169A1E98BE9AC6988081C7
:1021C00084608083E2E6F0E0808184608083BA9A54
:1021D000C298B89AC098BC9AC4982FEF89E698E143
:1021E000215080409040E1F700C000000E94F400C0
:1021F0000E949A010E94330180E80E949E0064E1DF
:1022000082ED91E00E94360180EC0E949E0064E124
:1022100087EE91E00E94360184E90E949E0064E10D
:102220008CEF91E00E94360184ED0E949E0064E1F3
:1022300081E192E00E9436010E9450010E94330128
:10224000E2E2F6E081E0808382E0838383E08683BC
:1022500085E0818786E0828787E0838788E08487BE
:1022600089E085878AE0868783E387878BE0828B96
:102270008CE0858B8DE0808F8EE0838F8FE0848F64
:1022800080E1858F81E1868F82E1878F83E180A362
:1022900084E181A385E184A386E187A387E182A706
:1022A00088E185A789E180AB8AE183AB8BE186ABCE
:1022B0008CE1809364068DE184AFFADC54DE83E325
:1022C00090E046D878945CDE8BB38BBB0895CF93B7
:1022D000DF93C2E2D6E0888190E00E94902580934F
:1022E0001F058B8190E00E94902580938F058E8141
:1022F00090E00E9490258093A105898590E00E943E
:10230000902580931D058A8590E00E9490258093FA
:102310001C058B8590E00E94902580931B058C8581
:1023200090E00E94902580931A058D8590E00E9490
:102330009025809319058E8590E00E9490258093CA
:1023400018058F8590E00E94902580931E058CE2F1
:1023500091E00E94982590932305809322058CEDAF
:1023600090E00E94982590932105809320058D8907
:1023700090E00E9490258093140589A190E00E942E
:10238000902590E09093960580939505DF91CF91ED
:1023900008951F93CF93DF936091A10580911F054E
:1023A000861740F46E5F60931F058091220690E0CF
:1023B0000E949D2580918F05833348F060911F0511
:1023C00060938F058091250690E00E949D25809165
:1023D0001F05853648F08EE180931F058091220607
:1023E0006EE190E00E949D258091A105853648F020
:1023F00089E18093A1058091250669E190E00E9422
:102400009D2591E080911D05853608F490E081E0DE
:1024100020911C05253608F480E0892B41F481E0E9
:1024200090911B05953608F480E08823C9F082E07E
:1024300080931D05C2E2D6E08E8162E090E00E94AA
:102440009D2510921C058F8160E090E00E949D25E3
:102450008FE080931B0588856FE090E00E949D25AA
:1024600091E080911A05853608F490E081E0209192
:102470001905253608F480E0892B41F481E090911C
:102480001805953608F480E08823C1F010921A05EB
:10249000C2E2D6E0898560E090E00E949D251FE0C1
:1024A000109319058A856FE090E00E949D25109396
:1024B00018058B856FE090E00E949D2580911E0598
:1024C000853648F08AE280931E0580912E066AE2E6
:1024D00090E00E949D2580911405883348F08FE09C
:1024E00080931405809134066FE090E00E949D2552
:1024F0008091950590919605039764F081E090E0B6
:1025000090939605809395058091400661E090E058
:102510000E949D25DF91CF911F910895CF93DF9366
:10252000C2E2D6E088816EE190E00E949D258B8119
:1025300063E290E00E949D258E816CE190E00E9414
:102540009D25898562E090E00E949D258A8560E056
:1025500090E00E949D258B8560E090E00E949D2583
:102560008C8560E090E00E949D258D856FE090E075
:102570000E949D258E8560E090E00E949D258F85BC
:102580006AE290E00E949D258D896FE090E00E94B4
:102590009D2589A161E090E00E949D2560EE71E09B
:1025A0008CE291E00E94AA256AEE71E08CED90E049
:1025B0000E94AA25DF91CF91089591E080912E0588
:1025C000813009F090E081E020913105213009F05F
:1025D00080E0892B91E020916C05213009F090E09A
:1025E000982B81E020919405213009F080E0892B1F
:1025F00059F481E020915E0530915F05213031056D
:1026000009F080E0882311F0C49A0895C4980895D1
:10261000039B11C0809193058F5F80939305833353
:10262000C8F081E080932E051092920588E7809390
:1026300093051E980895809192058F5F809392056F
:10264000853140F010922E051092930588E7809313
:1026500092051E9A0895809195059091960501978F
:1026600009F580916E05813009F58091820581110F
:102670001DC0809136058130C9F480915C05909130
:102680005D058436910540F4C59A81E090E0909311
:102690005F0580935E050895C59810925F051092BE
:1026A0005E05089510925F0510925E050895909161
:1026B0003C058DEC989F812D112486958695282FB9
:1026C000220F220F820F981316C09923A1F0809138
:1026D0003D05811110C08091950590919605019757
:1026E00051F480915C0590915D058436910518F454
:1026F00081E08093A0050895CF93DF9380918D05AD
:1027000090918E059C01220F331F880F991F880F0F
:10271000991F880F991F280F391FADECBCEC0E9440
:102720004E259695879596958795EC01CA56DF4F6D
:10273000C634D10510F4C6E9D0E0CF3FD10519F079
:1027400010F0CFEFD0E0C3BD81E090913C05923016
:1027500008F480E0811108C081E090914305911157
:1027600001C080E08823A9F076DF81E090913C05EC
:10277000923008F480E0811108C081E09091430517
:10278000911101C080E0882321F0C73ED10508F0F7
:102790003FDFDF91CF91089590913D0580911B051A
:1027A000981780F090913C0580911C05981768F06F
:1027B00081E090E030913E0520911D05321738F4FC
:1027C00080E0089580E090E0089580E090E0089532
:1027D00090913D0580911805891780F490913C05F2
:1027E00080911905981768F081E090E030913E05DE
:1027F00020911A05321738F480E0089580E090E0C7
:10280000089580E090E008950E94730010923C05C6
:1028100010923D0510923E0581E080936E05109266
:102820003505C69A0895C798C69810923C0510922F
:102830003D0510923E0581E0809382050E94800054
:10284000C79810923605109229051092280510920B
:102850009305109292051092250510922405089573
:1028600010926E05109236051092250510922405DF
:10287000C798D9DF109282051092930510929205A5
:1028800010923C0510923D0510923E0510922F05C6
:10289000109269051092680508958091A10590E055
:1028A00020918D0530918E0582179307A0F0BBDF34
:1028B00010923C0510923D0510923E051092820543
:1028C000109280051092360510926E0510925F05E9
:1028D00010925E05089560DF019711F4A4CF08956A
:1028E0000BCF089520918D0530918E0580918B0539
:1028F00090918C052817390740F0109265051092C9
:10290000640510926D05C9CF08958091640590917A
:102910006505019690936505809364058739910557
:10292000E0F010926E051092360510926F0510922D
:102930002505109224051092930510929205C798D0
:1029400072DF1092820510923C0510923D051092A4
:102950003E051092650510926405089520918D053D
:1029600030918E0580911F0590E08217930708F043
:1029700080C080918B0590918C058217930780F51C
:102980004091310541112CC081E080932F051092B8
:1029900080051092790510927805109239051092F1
:1029A0003A0510923B058091680590916905409722
:1029B00008F45FC0109267051092660510922F050B
:1029C00023DF80916805909169058B3F910508F49C
:1029D00050C08EEC90E0909369058093680508954F
:1029E0002817390710F580916605909167050196C3
:1029F000909367058093660510922F0585319105A8
:102A0000C0F1109269051092680510926F0510923E
:102A10006E05109236058B3F910558F18EEC90E0D3
:102A20009093670580936605089510922F05109284
:102A30008005109279051092780510923905109250
:102A40003A0510923B0510926905109268051092A4
:102A500063051092620510925F0510925E05109258
:102A60002705109226051092340510926C051E98C9
:102A7000C598089580916E05811106C06FDF109290
:102A800065051092640508958130C1F58091310586
:102A9000813091F4E5DE10926E051092820510925D
:102AA0003605109269051092680510923C05109247
:102AB0003D0510923E05089580918205811103C065
:102AC000F6DD10CF089584DE892BC1F010926E05DB
:102AD00010928205109236051092690510926805D1
:102AE00010923C0510923D0510923E05109225056E
:102AF000109224051092930510929205089565E0B6
:102B000086E292E00E94360180918D0590918E05BB
:102B10000E944A028FED0E94BD0062E08CE292E0CA
:102B20000E94360166E08FE292E00E9436018091B9
:102B30008B0590918C050E944A028FED0E94BD008A
:102B400061E086E392E00C9436010895CF92DF9223
:102B5000EF92FF92CF93DF9320E030E040E251E428
:102B600060915005709151058091520590915305E7
:102B70000E94D6240E94F8236B017C01EB01809116
:102B8000220590912305C816D90620F481E00E9401
:102B9000BD0015C09C012C5E3F4FC216D30620F429
:102BA00082E00E94BD000BC08896C816D90620F4AA
:102BB00083E00E94BD0003C084E00E94BD008091BC
:102BC000220590912305C817D90728F58091300573
:102BD0008F5F80933005863018F01092300502C068
:102BE000833058F464E088E993E00E94360166E09F
:102BF00088E392E00E94360108C0C6010E94680284
:102C000066E088E392E00E9436016BE08FE392E099
:102C10000E9436013DC0C6010E94680266E088E35A
:102C200092E00E943601809195059091960501975A
:102C300051F565E08BE492E00E94360180915C05DD
:102C400090915D058B30910590F08536910548F0A7
:102C5000893E934088F461E086E591E00E94360168
:102C60000BC062E085E591E00E94360105C062E09C
:102C700085E591E00E94360180915C0590915D05AB
:102C80000E944A0205C069E083E993E00E94360190
:102C9000DF91CF91FF90EF90DF90CF90089580E883
:102CA0000E949E0064E181E192E00E94360180EC86
:102CB0000E949E0024DF84E90E949E0065E081E579
:102CC00092E00E94360180915E0590915F05892B0C
:102CD00031F580916E05811110C080912F058130F2
:102CE00031F467E087E592E00E9436013DC067E07D
:102CF0008FE592E00E94360137C08130A9F58091BE
:102D00008205813031F467E087E692E00E94360167
:102D10002BC067E08FE692E00E94360125C08091CB
:102D20003305833030F467E087E792E00E94360194
:102D30001BC080916E05811106C067E08FE592E0AF
:102D40000E94360111C0813079F480918205813072
:102D500031F467E087E692E00E94360105C067E043
:102D60008FE692E00E94360180912F05811102C00A
:102D7000E0D80BC080916805909169050E944A02D5
:102D800066E08FE792E00E94360184ED0E949E008B
:102D9000DDCE0895A8959FE088E10FB6F894A89538
:102DA00081BD0FBE91BD369A8FED9EE20197F1F77E
:102DB00000C000000E94A301369A369A8FED9EE271
:102DC0000197F1F700C000000E9409020E94A503CC
:102DD0008FE99FE00197F1F700C000000E94AF0368
:102DE0000E94F4048FE99FE00197F1F700C0000012
:102DF0000C94FE040895CF92DF92EF92FF9220E0B0
:102E000030E040E251E460915005709151058091AD
:102E10005205909153050E94D6246B017C0160916C
:102E200022057091230580E090E00E9424249B01FC
:102E3000AC01C701B6010E9487238823FCF480916E
:102E400032058F5F853618F48093320539C089E6E4
:102E50008093320581E080933105109238051092FD
:102E6000370580919B0590919C05892B49F581E060
:102E700090E090939C0580939B0522C0809137053C
:102E8000909138050196853823E0920728F49093B5
:102E900038058093370514C089E893E0909338058E
:102EA00080933705109231051092320580919B0571
:102EB00090919C05019721F410929C0510929B051E
:102EC000FF90EF90DF90CF900895CF93DF938091A4
:102ED0008805811186C080918A05C1E0C80FC09322
:102EE0008A05CE3028F081E080938A05C1E04AC08F
:102EF000CA3079F40E94DE0780910D058093860523
:102F000080910E058093840580910F058093830541
:102F100081C0CB3079F40E94DE0780910B0580934D
:102F2000860580910C058093840580910A05809325
:102F3000830570C031E02BEF280F233008F030E01C
:102F40008B5091E0823008F090E0932B31F481E0D7
:102F5000C43008F080E0882339F1C73049F48CE2AE
:102F600091E00E94982590936105809360050AC0C6
:102F7000CD3041F48CED90E00E949825909361054E
:102F8000809360058C2F90E00197FC01EE0FFF1FEE
:102F90008E0F9F1FFC01EE5DF94F808190E00E9433
:102FA00090258093860536C08C2F90E00197EC0128
:102FB000CC0FDD1FC80FD91FCE5DD94F888190E09F
:102FC0000E94902580938605898190E00E9490253B
:102FD000809384058A8190E00E94902580938305E8
:102FE00019C08130B9F4809186058F5F8093860582
:102FF00090918A059C3029F4833018F081E0809309
:103000008605809160059091610501969093610518
:1030100080936005DF91CF910895CF93DF938091E6
:103020008805811186C080918A05CFEFC80FC093B3
:103030008A05C11105C08CE080938A05CCE040C0B0
:10304000CA3079F40E94DE0780910D0580938605D1
:1030500080910E058093840580910F0580938305F0
:1030600085C0CB3079F40E94DE0780910B058093F8
:10307000860580910C058093840580910A058093D4
:10308000830574C031E029EF280F233008F030E0C9
:103090008D5091E0823008F090E0932B31F481E084
:1030A000C43008F080E0882339F1C73049F48CE25D
:1030B00091E00E94982590936105809360050AC075
:1030C000CD3041F48CED90E00E94982590936105FD
:1030D000809360058C2F90E00197FC01EE0FFF1F9D
:1030E0008E0F9F1FFC01EE5DF94F808190E00E94E2
:1030F0009025809386053AC08C2F90E00197EC01D3
:10310000CC0FDD1FC80FD91FCE5DD94F888190E04D
:103110000E94902580938605898190E00E949025E9
:10312000809384058A8190E00E9490258093830596
:103130001DC08130D9F48091860581508093860529
:1031400090918A059C3049F4811104C082E08093FB
:10315000860503C081E0809386058091600590918B
:10316000610501979093610580936005DF91CF9190
:1031700008950F931F93CF93DF9333B323B393B388
:1031800083B33170C32F30E0D32F2270C20FD11D13
:103190009870C90FD11D8072C80FD11DC832D105DA
:1031A000B9F480E090E00E94FE0A60E088E990E0D7
:1031B0000E949D250E94330180E80E949E006AE0E3
:1031C00086E892E00E9436010E9450010E94500160
:1031D00080917C0590917D05019690937D0580936B
:1031E0007C05853F914098F01092890582E080939C
:1031F000770510928A0586E292E090937D05809390
:103200007C05E5E6F0E080818D7F808305C0E5E602
:10321000F0E080818260808380917C0590917D05C3
:103220008D32914010F010921505AB9708F0E3C174
:1032300083B3082F017010E043B3427050E063B3D2
:10324000687070E023B3207230E0C801840F951FCE
:10325000860F971F820F931F8B32910508F0CBC109
:10326000DB9AFFEFA0E7E2E0F150A040E040E1F799
:1032700000C00000DB988A32910509F0F8C0109276
:103280007D0510927C050130110561F028E19FE079
:1032900083B3A8950FB6F894A89521BD0FBE91BD34
:1032A00080FFF6CF80918905811111C081E090E007
:1032B00090937F0580937E05809389051092880501
:1032C00080938A0580917705811192C10AC080910F
:1032D000770581112FC080917E0590917F05019720
:1032E00019F580917605811108C080918905823099
:1032F000D9F481E08093760517C08130A9F48091DC
:103300008905833089F480910401873821F481E0B4
:103310008093770509C01092890510927F0510925D
:103320007E0582E080937705809189058F5F809389
:10333000890561C1813009F05EC180917E0590915F
:103340007F05019709F057C1809189053091880563
:1033500021E0311120E091E0813009F090E09923E3
:1033600079F0222369F080918A05813009F079C0D3
:103370008091220690E00E9490258093860571C07E
:1033800091E0823009F090E0992361F0222351F01E
:1033900081E08093880581E090E090937B058093A5
:1033A0007A055FC091E0833009F090E0992309F439
:1033B00058C081E0313009F080E0882309F451C021
:1033C00080918A0521E0843008F020E091E08C3083
:1033D00009F090E0922B39F4865091E0833008F0A8
:1033E00090E0992321F082E0809388053AC0809193
:1033F0007A0590917B0581309105A9F481E0809355
:10340000880582E08093890582E090E090937B05B7
:1034100080937A058091860580934005809184058C
:10342000809386051EC00297A9F481E080938805E9
:1034300082E08093890583E090E090937B05809300
:103440007A058091860580933F058091830580935E
:10345000860507C082E08093880510927B05109254
:103460007A05809189058F5F80938905C4C0893270
:10347000910509F03FC010927D0510927C053091B6
:103480008905333078F44230510561F028E19FE03E
:1034900083B3A8950FB6F894A89521BD0FBE91BD32
:1034A00081FFF6CF311198C081E080931505A3C04C
:1034B00080917E0590917F05019709F09CC08091D5
:1034C0008A05893051F480918805813021F482E0A9
:1034D0008093880590C0F9DC8EC0F7DC8CC08091A9
:1034E0007605813009F087C0809104018F5F809359
:1034F000040181C08332910509F041C010927D051D
:1035000010927C0530918905333078F4683071056C
:1035100061F028E19FE083B3A8950FB6F894A895D1
:1035200021BD0FBE91BD83FFF6CF31115BC010925C
:10353000150561C080917E0590917F05019709F086
:103540005AC080918A05893069F48091880581305C
:1035500039F41092880510928705809389054BC035
:103560005CDD49C05ADD47C080917605813009F0A5
:1035700042C0809104018150809304013CC00B97AC
:1035800009F039C010927D0510927C05203231057A
:1035900061F028E19FE083B3A8950FB6F894A89551
:1035A00021BD0FBE91BD85FFF6CF8091890588238F
:1035B00011F182E08093770580918805811103C025
:1035C0001092890518C08130B1F4109288051092CC
:1035D0008705809389050FC080917705813009F0B8
:1035E0007ECF66CF80917705813009F0BDCFA2CF25
:1035F000813009F4A9CEDF91CF911F910F910895E9
:103600008091880581111AC08091860590E00E9402
:103610004A0261E084E992E00E94360180918405CB
:1036200090E00E944A0263E089E992E00E9436013C
:103630008091830590E00E944A02B7C0813009F072
:10364000B4C080917A0590917B0581309105D1F5C8
:1036500080918605803218F08FE1809386058091F5
:1036600085058530D0F48091860590E00E944A025D
:1036700061E084E992E00E9436018091840590E047
:103680000E944A0263E089E992E00E94360180913B
:10369000830590E00E944A0288C063E082E992E0DC
:1036A0000E9436018091840590E00E944A0263E006
:1036B00089E992E00E9436018091830590E00E94A2
:1036C0004A0273C082309105A9F5809186058D303C
:1036D00018F08CE080938605809185058530D0F4C4
:1036E0008091400590E00E944A0261E084E992E006
:1036F0000E9436018091860590E00E944A0263E0B4
:1037000089E992E00E9436018091830590E00E9451
:103710004A024BC08091400590E00E944A0266E058
:1037200086E992E00E9436018091830590E00E9434
:103730004A023BC00397C9F5809186058C3318F087
:103740008BE380938605809185058530D0F4809148
:10375000400590E00E944A0261E084E992E00E9404
:10376000360180913F0590E00E944A0263E089E9BA
:1037700092E00E9436018091860590E00E944A0204
:1037800014C08091400590E00E944A0261E084E903
:1037900092E00E94360180913F0590E00E944A022B
:1037A00065E08DE992E00E94360164E088E993E0EB
:1037B0000C94360108958091880581111AC080917A
:1037C000860590E00E944A0261E086EA92E00E944B
:1037D00036018091840590E00E944A0261E086EA09
:1037E00092E00E9436018091830590E00E944A0297
:1037F000B7C0813009F0B4C080917A0590917B0503
:1038000081309105D1F580918605883118F087E1E6
:1038100080938605809185058530D0F4809186055A
:1038200090E00E944A0261E086EA92E00E9436013E
:103830008091840590E00E944A0261E086EA92E06D
:103840000E9436018091830590E00E944A0288C060
:1038500063E084EA92E00E9436018091840590E062
:103860000E944A0261E086EA92E00E94360180915D
:10387000830590E00E944A0273C082309105A9F549
:10388000809186058C3318F08BE3809386058091B8
:1038900085058530D0F48091400590E00E944A0271
:1038A00061E086EA92E00E9436018091860590E010
:1038B0000E944A0261E086EA92E00E94360180910D
:1038C000830590E00E944A024BC08091400590E041
:1038D0000E944A0264E083EA92E00E9436018091ED
:1038E000830590E00E944A023BC00397C9F580918E
:1038F00086058C3318F08BE38093860580918505CF
:103900008530D0F48091400590E00E944A0261E049
:1039100086EA92E00E94360180913F0590E00E9485
:103920004A0261E086EA92E00E94360180918605B3
:1039300090E00E944A0214C08091400590E00E94ED
:103940004A0261E086EA92E00E94360180913F05DA
:1039500090E00E944A0263E088EA92E00E94360109
:1039600066E086E993E00C9436010895CF93DF93E7
:10397000EC0180E80E949E0064E18CEA92E00E94E3
:10398000360180EC0E949E00FE013197ED30F1057A
:1039900008F051C0EA5BFF4F0C94452560E182ECD2
:1039A00092E00E94360147C060E183ED92E00E9400
:1039B000360141C06FE084EE92E00E9436013BC0C8
:1039C0006CE084EF92E00E94360135C06CE081E04B
:1039D00093E00E9436012FC064E18EE093E00E94E4
:1039E000360129C064E183E293E00E94360123C0DE
:1039F0006EE088E393E00E9436011DC064E187E435
:103A000093E00E94360117C066E08CE593E00E94C7
:103A1000360111C066E083E693E00E9436010BC0D8
:103A200069E08AE693E00E94360105C064E184E71C
:103A300093E00E94360190918805992359F0809176
:103A400085058F5F8B3018F48093850505C0109233
:103A5000850502C01092850580918A058930B1F4F0
:103A600084E90E949E0080918805811106C064E16E
:103A700088E893E00E943601FDC1813009F0FAC167
:103A800064E18DE993E00E943601F4C18B3011F4BA
:103A9000B7DDF0C18A3011F48EDEECC1883001F55B
:103AA000911106C08091860590E00E944A0212C0E2
:103AB00081E08093880580918505853030F462E04F
:103AC0008AE993E00E94360105C08091860590E066
:103AD0000E944A0264E082EB93E00E943601CAC170
:103AE000863041F58CE90E949E0080918805811105
:103AF00006C08091860590E00E944A0212C081E0D3
:103B00008093880580918505853030F462E08AE9EC
:103B100093E00E94360105C08091860590E00E94E6
:103B20004A028FED0E94BD0061E086E392E00E94B0
:103B30003601A0C1823019F5911106C08091860529
:103B400090E00E944A0212C081E080938805809133
:103B50008505853030F462E08AE993E00E94360101
:103B600005C08091860590E00E944A028FED0E9478
:103B7000BD0062E08CE292E00E9436017BC187309A
:103B800039F58CE90E949E0080918805811107C05B
:103B900080916005909161050E94680213C081E0E8
:103BA0008093880580918505853030F464E087EB4B
:103BB00093E00E94360106C08091600590916105F6
:103BC0000E94680264E08CEB93E00E94360152C1CF
:103BD0008D3039F58CE90E949E0080918805811115
:103BE00007C080916005909161050E94680213C032
:103BF00081E08093880580918505853030F464E00C
:103C000087EB93E00E94360106C080916005909199
:103C100061050E94680264E08CEB93E00E9436012B
:103C200029C1282F2D7F213091F5911115C0809148
:103C300086054AE06FEA76E090E03FD7EFEAF6E0EB
:103C400001900020E9F73197BF016F5A76408FEA63
:103C500096E00E94360112C081E080938805809131
:103C60008505853030F462E08AE993E00E943601F0
:103C700005C08091860590E00E944A028FED0E9467
:103C8000BD0062E08CE292E00E943601F3C08C300D
:103C900079F5911110C080918605823031F46BE086
:103CA00081EC93E00E943601E5C06BE08DEC93E07F
:103CB0000E943601DFC0913009F0ECC0809185058B
:103CC000853030F46BE089ED93E00E943601D2C07C
:103CD00080918605823031F46BE081EC93E00E94A4
:103CE0003601C8C06BE08DEC93E00E943601C2C083
:103CF0008450823008F0BEC091111AC080918605B0
:103D000090E00E944A0261E086EA92E00E94360159
:103D10008091840590E00E944A0261E086EA92E088
:103D20000E9436018091830590E00E944A02A2C061
:103D3000913009F09FC080917A0590917B05813088
:103D4000910599F5809185058530D0F4809186059F
:103D500090E00E944A0261E086EA92E00E94360109
:103D60008091840590E00E944A0261E086EA92E038
:103D70000E9436018091830590E00E944A027AC039
:103D800063E084EA92E00E9436018091840590E02D
:103D90000E944A0261E086EA92E00E943601809128
:103DA000830590E00E944A0265C08230910571F55A
:103DB000809185058530D0F48091400590E00E9487
:103DC0004A0261E086EA92E00E943601809186050F
:103DD00090E00E944A0261E086EA92E00E94360189
:103DE0008091830590E00E944A0244C08091400582
:103DF00090E00E944A0264E083EA92E00E94360169
:103E00008091830590E00E944A0234C0039791F5A7
:103E1000809185058530D0F48091400590E00E9426
:103E20004A0261E086EA92E00E94360180913F05F5
:103E300090E00E944A0261E086EA92E00E94360128
:103E40008091860590E00E944A0214C0809140054E
:103E500090E00E944A0261E086EA92E00E94360108
:103E600080913F0590E00E944A0263E088EA92E078
:103E70000E94360180918A052AEF280F91E02230B6
:103E800008F090E091110EC091E0893009F090E0C7
:103E9000911108C084E90E949E0064E188E893E0E3
:103EA0000E94360184ED0E949E0064E188E893E060
:103EB0000E943601DF91CF910895CF93DF938091D7
:103EC0007E0590917F05019709F0DCC00E943301C7
:103ED00080E80E949E0064E185EE93E00E94360136
:103EE00080918A05893041F464E18AEF93E00E9471
:103EF00036010E94550DBAC021E0843008F020E060
:103F000091E08C3009F090E0922B41F421E09AEF9F
:103F1000980F933008F020E0222321F1873041F4FC
:103F200060916005709161058CE291E013D66BC0E1
:103F30008D3041F460916005709161058CED90E0E9
:103F400009D661C090E00197FC01EE0FFF1F8E0FB4
:103F50009F1FFC01EE5DF94F80816091860590E026
:103F6000ECD551C08A3071F44091860550E06091E3
:103F70003F0570E08091400590E00E94B2080E94E9
:103F8000A40841C08B3071F44091860550E06091E7
:103F90003F0570E08091400590E00E9423090E9457
:103FA000150931C090E00197FC01EE0FFF1F8E0F45
:103FB0009F1FFC01EE5DF94F80816091400590E00C
:103FC000BCD580918A0590E00197FC01EE0FFF1FA0
:103FD0008E0F9F1FFC01EE5DF94F818160913F05BF
:103FE00090E0ABD580918A0590E00197FC01EE0F3F
:103FF000FF1F8E0F9F1FFC01EE5DF94F82816091C4
:10400000860590E09AD5C0918A0581E0C93008F014
:1040100080E0811106C081E0CC3009F080E0882387
:10402000C9F0D0E02197CE01880F991FC80FD91F82
:10403000CE5DD94F888190E073D5809386058981C4
:1040400090E06ED5809384058A8190E069D5809355
:1040500083050CC08091860580938305809140057F
:104060008093860580913F058093840510927B059F
:1040700010927A0582E08093890510924005109293
:104080003F0508C080E80E949E0063E18FE094E055
:104090000E9436010E943301DF91CF910895CF93A2
:1040A000DF930E94330181E080938A0510927705A7
:1040B000D8E1CFE049C0A8950FB6F894A895D1BD36
:1040C0000FBEC1BD56D880E80E949E008091760543
:1040D000811106C064E183E294E00E94360105C0CC
:1040E00064E189E394E00E94360180EC0E949E0026
:1040F0006AE08FE494E00E94360180917605813079
:1041000081F480918505853030F463E089E993E09E
:104110000E9436010BC08091040190E00E944A0287
:1041200005C08091040190E00E944A0261E08AE5A6
:1041300094E00E943601809185058F5F809385050C
:104140008B3010F01092850580917705882309F453
:10415000B2CF813069F480938905109285058091F2
:10416000220690E0DDD480938605D8E1CFE02EC012
:10417000109289052FC0A8950FB6F894A895D1BDC7
:104180000FBEC1BD0E94B91880918805811105C07C
:1041900080918A0590E0EADB19C0813029F4809192
:1041A0008A0590E0E3DB12C0823021F486DE1092B3
:1041B00088050CC0833051F41092890510928A054D
:1041C0001092880510927F0510927E0580918905D6
:1041D0008111D1CF0E94330180E80E949E006EE0E1
:1041E0008CE594E00E9436010E945001A8959FE062
:1041F00088E10FB6F894A89581BD0FBE91BD1092CD
:104200008A0510928905109277051092760582E84A
:10421000809304010E9433010E946711DF91CF91C6
:104220000895049B11C080912D058F5F80932D050B
:104230008536C8F081E08093940510922C0588E7BC
:1042400080932D05C29A089580912C058F5F8093ED
:104250002C05853640F01092940510922D0588E7C4
:1042600080932C05C29808950E94DE0780E80E9482
:104270009E0065E08BE694E00E94360180910B057C
:1042800090E00E944A0261E084E992E00E943601D7
:1042900080910C0590E00E944A0263E089E992E077
:1042A0000E94360180910A0590E00E944A0265E072
:1042B00087E993E00E94360180EC0E949E0065E051
:1042C0008BEF92E00E94360180910D0590E00E94F4
:1042D0004A0261E086EA92E00E94360180910E0572
:1042E00090E00E944A0261E086EA92E00E94360174
:1042F00080910F0590E00E944A0267E085E993E013
:104300000E94360184E90E949E006EE081E794E0FD
:104310000E9436018091140590E00E944A0264E0F8
:1043200082EB93E00E94360184ED0E949E006BE0D8
:1043300080E894E00E943601809112059091130567
:104340008B30910578F08536910530F061E086E597
:1043500091E00E9436010BC062E085E591E00E9489
:10436000360105C062E085E591E00E94360180914A
:104370001205909113050E944A0261E08BE993E0D7
:104380000E94360188E990E0CBD3813031F464E0BB
:104390008CE894E00C943601089564E088E993E099
:1043A0000C943601089580E80E949E0064E188E83C
:1043B00093E00E94360180EC0E949E0064E181E956
:1043C00094E00E94360184E90E949E0064E186EA3E
:1043D00094E00E94360184ED0E949E0064E188E82A
:1043E00093E00C943601089580911E0590E0209191
:1043F0008D0530918E058217930790F48091910579
:104400008F5F853618F480939105089588E780932F
:1044100091051092900581E080936C05C09A0895F3
:10442000809190058F5F853618F4809390050895EC
:1044300088E7809390051092910510926C05C098C2
:1044400008950E94A9100E9463030E94B20480E8AC
:104450000E949E0064E18BEB94E00E9436010E9472
:104460000910DB9A2FEF80E792E0215080409040C6
:10447000E1F700C00000DB98A8959FE088E10FB647
:10448000F894A89581BD0FBE91BDC2E318E1DFE0AD
:10449000369A0E94A3018FE19EE40197F1F700C0D4
:1044A0000000369A0E9409028FE19EE40197F1F71D
:1044B00000C000000E94A5030E94AF030E94F40404
:1044C0000E94FE04A8950FB6F894A89511BD0FBEE2
:1044D000D1BDC150E9F69FEF26E181E19150204026
:1044E0008040E1F700C0000080915E0690E020D39C
:1044F000019721F10E948E1280915E0661E070E0CA
:1045000090E028D342E350E06DE270E08DE090E06F
:104510000E94B2080E94A40844E150E063E070E009
:104520008FE090E00E9423090E94150980E090E04E
:104530000E94FE0A80E090E00E940C0B0E9467112E
:104540000E94330180ED94E00E948E098FEE94E08A
:104550000E948E0983E090E090937105809370052E
:104560008BB38BBB84ED0E949E0080919B05909144
:104570009C050E944A0280919D0590919E050E9493
:104580004A028091930590E00E944A028091920530
:1045900090E00E944A0208E11FE0C3E6D0E0A8953F
:1045A0000FB6F894A89501BD0FBE11BD0E94350C41
:1045B000609128057091290580E090E045D127EFB2
:1045C0003EED43EA51E4F2D113D170935D0560935F
:1045D0005C050E94C9110E94CA1680918D059091B8
:1045E0008E05059720F4D0938E05C0938D0580919C
:1045F0008B0590918C05059720F410928C051092F4
:104600008B050FDE80919405811109C080911505FD
:10461000811103C00E944F1605C026DE03C0C3DE11
:104620000E9430140E943A150E94FB160E94B9188D
:10463000DBDE0E94DD1280918905882309F4AFCF6B
:104640002EDDADCF5058BB27AA270ED075C166D13D
:1046500030F06BD120F031F49F3F11F41EF45BC1B8
:104660000EF4E095E7FB51C1E92F77D180F3BA173B
:10467000620773078407950718F071F49EF58FC1E0
:104680000EF4E0950B2EBA2FA02D0B01B90190016D
:104690000C01CA01A0011124FF27591B99F0593FB1
:1046A00050F4503E68F11A16F040A22F232F342FF9
:1046B0004427585FF3CF469537952795A795F04047
:1046C0005395C9F77EF41F16BA0B620B730B840B5C
:1046D000BAF09150A1F0FF0FBB1F661F771F881F14
:1046E000C2F70EC0BA0F621F731F841F48F487956C
:1046F00077956795B795F7959E3F08F0B3CF93955B
:10470000880F08F09927EE0F979587950895D9D0CF
:1047100008F481E008950CD00FC107D140F0FED01D
:1047200030F021F45F3F19F0F0C0511139C1F3C0EE
:1047300014D198F39923C9F35523B1F3951B550B65
:10474000BB27AA2762177307840738F09F5F5F4F64
:10475000220F331F441FAA1FA9F333D00E2E3AF0A5
:10476000E0E830D091505040E695001CCAF729D0BF
:10477000FE2F27D0660F771F881FBB1F261737070E
:104780004807AB07B0E809F0BB0B802DBF01FF273E
:1047900093585F4F2AF09E3F510568F0B6C000C1A4
:1047A0005F3FECF3983EDCF3869577956795B79578
:1047B000F7959F5FC9F7880F911D9695879597F993
:1047C0000895E1E0660F771F881FBB1F621773070C
:1047D0008407BA0720F0621B730B840BBA0BEE1F21
:1047E00088F7E095089504D06894B111D9C0089570
:1047F000BCD088F09F5790F0B92F9927B751A0F0FF
:10480000D1F0660F771F881F991F1AF0BA95C9F764
:1048100012C0B13081F0C3D0B1E00895C0C0672F9D
:10482000782F8827B85F39F0B93FCCF38695779514
:104830006795B395D9F73EF49095809570956195FD
:104840007F4F8F4F9F4F0895E89409C097FB3EF428
:1048500090958095709561957F4F8F4F9F4F9923CD
:10486000A9F0F92F96E9BB279395F695879577954B
:104870006795B795F111F8CFFAF4BB0F11F460FF0B
:104880001BC06F5F7F4F8F4F9F4F16C0882311F063
:1048900096E911C0772321F09EE8872F762F05C077
:1048A000662371F096E8862F70E060E02AF09A9512
:1048B000660F771F881FDAF7880F9695879597F907
:1048C0000895990F0008550FAA0BE0E8FEEF1616A1
:1048D0001706E807F907C0F012161306E407F507F4
:1048E00098F0621B730B840B950B39F40A2661F068
:1048F000232B242B252B21F408950A2609F4A1400B
:10490000A6958FEF811D811D089597F99F6780E817
:1049100070E060E008959FEF80EC089500240A9411
:104920001616170618060906089500240A9412168A
:104930001306140605060895092E0394000C11F4BD
:10494000882352F0BB0F40F4BF2B11F460FF04C06A
:104950006F5F7F4F8F4F9F4F089557FD9058440FC3
:10496000551F59F05F3F71F04795880F97FB991FCE
:1049700061F09F3F79F0879508951216130614068B
:10498000551FF2CF4695F1DF08C016161706180618
:10499000991FF1CF86957105610508940895E894F3
:1049A000BB2766277727CB0197F908950BD0C4CF93
:1049B000B5DF28F0BADF18F0952309F0A6CFABCF0A
:1049C0001124EECFCADFA0F3959FD1F3950F50E0ED
:1049D000551F629FF001729FBB27F00DB11D639FB1
:1049E000AA27F00DB11DAA1F649F6627B00DA11D57
:1049F000661F829F2227B00DA11D621F739FB00DFD
:104A0000A11D621F839FA00D611D221F749F33276C
:104A1000A00D611D231F849F600D211D822F762F05
:104A20006A2F11249F5750408AF0E1F088234AF002
:104A3000EE0FFF1FBB1F661F771F881F915050404E
:104A4000A9F79E3F510570F060CFAACF5F3FECF30E
:104A5000983EDCF3869577956795B795F795E7953A
:104A60009F5FC1F7FE2B880F911D9695879597F94B
:104A70000895991B79E004C0991F961708F0961BBA
:104A8000881F7A95C9F780950895EE0FFF1F0024BF
:104A9000001C0BBE0790F691E02D0994A29FB00177
:104AA000B39FC001A39F700D811D1124911DB29F62
:104AB000700D811D1124911D0895BB274A3031F4DA
:104AC000992322F4BDE2909581959F4F01C0BB27A9
:104AD000FB015527AA27880F991FAA1FA41710F0BA
:104AE000A41B83955051B9F7A05DAA3308F0A95DC6
:104AF000A193009779F7B111B1931192CB0100C046
:104B0000DC01FC01672F71917723E1F7329704C034
:104B10007C916D9370836291AE17BF07C8F30895BF
:104B2000E199FECF9FBB8EBBE09A99278DB3089584
:104B3000A8E1B0E042E050E012C0262FE199FECF9C
:104B40009FBB8EBB2DBB0FB6F894E29AE19A0FBEC5
:104B500001960895F2DF272FF1CFDC01CB01FC0194
:104B6000E199FECF06C0FFBBEEBBE09A31960DB2D5
:0E4B70000D9241505040B8F70895F894FFCFD1
:104B7E00E022020082010A0A1F1F0E060C180E11F7
:104B8E0011111111111F0E111111111F1F1F0E11D5
:104B9E00111F1F1F1F1F0E111F1F1F1F1F1F0E1F55
:104BAE001F1F1F1F1F1F0A0A1F1F0E060C18454529
:104BBE0050524F4D2046554C4C2020202020202076
:104BCE0020002D3E003030003A2D00446174653DCA
:104BDE000054726F6F6D3D0020546F75743D002050
:104BEE0046414E4D4F44453D002046414E5F414C9F
:104BFE0041524D3D002046696C7465725F4A616D8D
:104C0E003D00204241545F564F4C544147453D00B4
:104C1E0056002054696D653D0044617461205365F2
:104C2E006E64696E6720537461727473004E4F2008
:104C3E00534156454420454550524F4D2044415412
:104C4E0041004269736D696C6C6168697220202045
:104C5E00202020202020005261686D616E69722034
:104C6E00526168696D2020202020200042616E670D
:104C7E006C616C696E6B204643555F56352E30372E
:104C8E0000485320454E47494E454552494E472010
:104C9E004C54442E2000526F6D543A004320002095
:104CAE00546F75543A00430020566F6C74200020E8
:104CBE004C6F7720766F6C742020002052504D3A46
:104CCE000046414E203A0044656C61792020004F29
:104CDE006666202020200052455354202020004F8D
:104CEE006E2020202020004641554C542020005399
:104CFE0065632020200044617461204572617365F4
:104D0E00640020202F002F20202F3230002F202053
:104D1E002020003A20203A003A2020004D656E7582
:104D2E00204974656D2053656C656374696F6E20E0
:104D3E00200046616E2053746172742054656D704C
:104D4E003E3D004D61782053706565642054656D5D
:104D5E00703E3D0046616E2053746F702054656D39
:104D6E0070203C0046616E2052756E54696D653A36
:104D7E000046616E5265737454696D653A004578EC
:104D8E007472656D652054656D70657261747572AF
:104D9E00653E0046616E20446973636F6E6E656397
:104DAE007420766F6C743C004461746120496E749B
:104DBE00657276616C3D00446F776E6C6F61642036
:104DCE0044617461202020202020200054696D65EC
:104DDE003A2000446174653A200052504D204F66CF
:104DEE00663A200046616E205265636F6E6E656393
:104DFE007420766F6C743C00202020202020202010
:104E0E0020202020202020202020202000507265ED
:104E1E0073732055503D59657320446F776E3D4E28
:104E2E006F004D696E200020202E2000566F6C748E
:104E3E00005B4F46465D2E2E2E2E2020005B4F4EE1
:104E4E005D2E2E2E2E2E2020005B2020205D202079
:104E5E0020202020005570646174696E67204D65B6
:104E6E006E752E2E2E2E2E2E2E0053686F7720440A
:104E7E00617461204F6E2050432020202020005569
:104E8E0070646174696E67204D656E75204552526F
:104E9E004F520050726F76696465207468652050B9
:104EAE00617373776F726420005072657373204F55
:104EBE006B20746F20456E74657220202020005088
:104ECE00617373776F72643A5B005D002A2A2A4D14
:104EDE00656E7520454E442A2A2A00446174653A4F
:104EEE00005361766520496E74657276616C3A0086
:104EFE00536176656420446174613A0046756C6C4A
:104F0E0000212121212120434155544F4E202121A2
:104F1E002121212020004669726520416C61726D4D
:104F2E0020416C6C204F464620200053656E736FF7
:104F3E007220436865636B2E2E2E202020202000C9
:104F4E004269736D6E696C6C61686972205261683A
:104F5E006D616E697220526168696D200D0A00469E
:104F6E0043552042616E676C616C696E6B56312ED3
:064F7E003031200D0A0095
:00000001FF
